{"contracts/GovernanceDAO.sol":{"GovernanceDAO":{"abi":[{"inputs":[],"stateMutability":"nonpayable","type":"constructor"},{"inputs":[],"name":"AccessControlBadConfirmation","type":"error"},{"inputs":[{"internalType":"address","name":"account","type":"address"},{"internalType":"bytes32","name":"neededRole","type":"bytes32"}],"name":"AccessControlUnauthorizedAccount","type":"error"},{"inputs":[],"name":"EnforcedPause","type":"error"},{"inputs":[],"name":"ExpectedPause","type":"error"},{"inputs":[],"name":"ReentrancyGuardReentrantCall","type":"error"},{"anonymous":false,"inputs":[{"indexed":true,"internalType":"address","name":"guardian","type":"address"}],"name":"GuardianNodeAdded","type":"event"},{"anonymous":false,"inputs":[{"indexed":true,"internalType":"address","name":"guardian","type":"address"}],"name":"GuardianNodeRemoved","type":"event"},{"anonymous":false,"inputs":[{"indexed":false,"internalType":"address","name":"account","type":"address"}],"name":"Paused","type":"event"},{"anonymous":false,"inputs":[{"indexed":true,"internalType":"uint256","name":"proposalId","type":"uint256"},{"indexed":true,"internalType":"address","name":"proposer","type":"address"},{"indexed":false,"internalType":"enum GovernanceDAO.ProposalType","name":"proposalType","type":"uint8"},{"indexed":false,"internalType":"string","name":"title","type":"string"},{"indexed":false,"internalType":"uint256","name":"votingEnds","type":"uint256"}],"name":"ProposalCreated","type":"event"},{"anonymous":false,"inputs":[{"indexed":true,"internalType":"uint256","name":"proposalId","type":"uint256"},{"indexed":true,"internalType":"address","name":"executor","type":"address"}],"name":"ProposalExecuted","type":"event"},{"anonymous":false,"inputs":[{"indexed":true,"internalType":"uint256","name":"proposalId","type":"uint256"},{"indexed":true,"internalType":"address","name":"guardian","type":"address"},{"indexed":false,"internalType":"string","name":"reason","type":"string"}],"name":"ProposalVetoed","type":"event"},{"anonymous":false,"inputs":[{"indexed":true,"internalType":"address","name":"user","type":"address"},{"indexed":false,"internalType":"uint256","name":"oldReputation","type":"uint256"},{"indexed":false,"internalType":"uint256","name":"newReputation","type":"uint256"},{"indexed":false,"internalType":"string","name":"reason","type":"string"}],"name":"ReputationUpdated","type":"event"},{"anonymous":false,"inputs":[{"indexed":true,"internalType":"bytes32","name":"role","type":"bytes32"},{"indexed":true,"internalType":"bytes32","name":"previousAdminRole","type":"bytes32"},{"indexed":true,"internalType":"bytes32","name":"newAdminRole","type":"bytes32"}],"name":"RoleAdminChanged","type":"event"},{"anonymous":false,"inputs":[{"indexed":true,"internalType":"bytes32","name":"role","type":"bytes32"},{"indexed":true,"internalType":"address","name":"account","type":"address"},{"indexed":true,"internalType":"address","name":"sender","type":"address"}],"name":"RoleGranted","type":"event"},{"anonymous":false,"inputs":[{"indexed":true,"internalType":"bytes32","name":"role","type":"bytes32"},{"indexed":true,"internalType":"address","name":"account","type":"address"},{"indexed":true,"internalType":"address","name":"sender","type":"address"}],"name":"RoleRevoked","type":"event"},{"anonymous":false,"inputs":[{"indexed":true,"internalType":"address","name":"from","type":"address"},{"indexed":false,"internalType":"uint256","name":"amount","type":"uint256"}],"name":"TreasuryDeposit","type":"event"},{"anonymous":false,"inputs":[{"indexed":true,"internalType":"address","name":"to","type":"address"},{"indexed":false,"internalType":"uint256","name":"amount","type":"uint256"},{"indexed":false,"internalType":"uint256","name":"proposalId","type":"uint256"}],"name":"TreasuryWithdrawal","type":"event"},{"anonymous":false,"inputs":[{"indexed":false,"internalType":"address","name":"account","type":"address"}],"name":"Unpaused","type":"event"},{"anonymous":false,"inputs":[{"indexed":true,"internalType":"uint256","name":"proposalId","type":"uint256"},{"indexed":true,"internalType":"address","name":"voter","type":"address"},{"indexed":false,"internalType":"enum GovernanceDAO.VoteType","name":"voteType","type":"uint8"},{"indexed":false,"internalType":"uint256","name":"weight","type":"uint256"},{"indexed":false,"internalType":"bool","name":"isTetrahedronVote","type":"bool"}],"name":"VoteCast","type":"event"},{"inputs":[],"name":"DEFAULT_ADMIN_ROLE","outputs":[{"internalType":"bytes32","name":"","type":"bytes32"}],"stateMutability":"view","type":"function"},{"inputs":[],"name":"EXECUTION_DELAY","outputs":[{"internalType":"uint256","name":"","type":"uint256"}],"stateMutability":"view","type":"function"},{"inputs":[],"name":"GUARDIAN_NODE","outputs":[{"internalType":"bytes32","name":"","type":"bytes32"}],"stateMutability":"view","type":"function"},{"inputs":[],"name":"GUARDIAN_VETO_PERIOD","outputs":[{"internalType":"uint256","name":"","type":"uint256"}],"stateMutability":"view","type":"function"},{"inputs":[],"name":"MIN_QUORUM_PERCENTAGE","outputs":[{"internalType":"uint256","name":"","type":"uint256"}],"stateMutability":"view","type":"function"},{"inputs":[],"name":"PROPOSER_ROLE","outputs":[{"internalType":"bytes32","name":"","type":"bytes32"}],"stateMutability":"view","type":"function"},{"inputs":[],"name":"REPUTATION_THRESHOLD","outputs":[{"internalType":"uint256","name":"","type":"uint256"}],"stateMutability":"view","type":"function"},{"inputs":[],"name":"TETRAHEDRON_MULTIPLIER","outputs":[{"internalType":"uint256","name":"","type":"uint256"}],"stateMutability":"view","type":"function"},{"inputs":[],"name":"VOTING_PERIOD","outputs":[{"internalType":"uint256","name":"","type":"uint256"}],"stateMutability":"view","type":"function"},{"inputs":[{"internalType":"address","name":"guardian","type":"address"}],"name":"addGuardianNode","outputs":[],"stateMutability":"nonpayable","type":"function"},{"inputs":[{"internalType":"address","name":"user","type":"address"},{"internalType":"int256","name":"change","type":"int256"},{"internalType":"string","name":"reason","type":"string"}],"name":"adjustReputation","outputs":[],"stateMutability":"nonpayable","type":"function"},{"inputs":[{"internalType":"uint256","name":"proposalId","type":"uint256"},{"internalType":"address[4]","name":"vertices","type":"address[4]"},{"internalType":"enum GovernanceDAO.VoteType","name":"voteType","type":"uint8"}],"name":"castTetrahedronVote","outputs":[],"stateMutability":"nonpayable","type":"function"},{"inputs":[{"internalType":"uint256","name":"proposalId","type":"uint256"},{"internalType":"enum GovernanceDAO.VoteType","name":"voteType","type":"uint8"}],"name":"castVote","outputs":[],"stateMutability":"nonpayable","type":"function"},{"inputs":[{"internalType":"enum GovernanceDAO.ProposalType","name":"proposalType","type":"uint8"},{"internalType":"string","name":"title","type":"string"},{"internalType":"string","name":"description","type":"string"},{"internalType":"bytes","name":"calldata_","type":"bytes"}],"name":"createProposal","outputs":[{"internalType":"uint256","name":"","type":"uint256"}],"stateMutability":"nonpayable","type":"function"},{"inputs":[],"name":"depositToTreasury","outputs":[],"stateMutability":"payable","type":"function"},{"inputs":[{"internalType":"uint256","name":"proposalId","type":"uint256"}],"name":"executeProposal","outputs":[],"stateMutability":"nonpayable","type":"function"},{"inputs":[{"internalType":"uint256","name":"proposalId","type":"uint256"}],"name":"finalizeProposal","outputs":[],"stateMutability":"nonpayable","type":"function"},{"inputs":[{"internalType":"uint256","name":"proposalId","type":"uint256"}],"name":"getProposal","outputs":[{"internalType":"address","name":"proposer","type":"address"},{"internalType":"enum GovernanceDAO.ProposalType","name":"proposalType","type":"uint8"},{"internalType":"string","name":"title","type":"string"},{"internalType":"string","name":"description","type":"string"},{"internalType":"uint256","name":"createdAt","type":"uint256"},{"internalType":"uint256","name":"votingEnds","type":"uint256"},{"internalType":"uint256","name":"forVotes","type":"uint256"},{"internalType":"uint256","name":"againstVotes","type":"uint256"},{"internalType":"uint256","name":"abstainVotes","type":"uint256"},{"internalType":"enum GovernanceDAO.ProposalStatus","name":"status","type":"uint8"}],"stateMutability":"view","type":"function"},{"inputs":[{"internalType":"bytes32","name":"role","type":"bytes32"}],"name":"getRoleAdmin","outputs":[{"internalType":"bytes32","name":"","type":"bytes32"}],"stateMutability":"view","type":"function"},{"inputs":[{"internalType":"address","name":"user","type":"address"}],"name":"getUserProposals","outputs":[{"internalType":"uint256[]","name":"","type":"uint256[]"}],"stateMutability":"view","type":"function"},{"inputs":[{"internalType":"address","name":"voter","type":"address"}],"name":"getVoterProfile","outputs":[{"internalType":"uint256","name":"reputation","type":"uint256"},{"internalType":"uint256","name":"tetrahedronCount","type":"uint256"},{"internalType":"uint256","name":"proposalsCreated","type":"uint256"},{"internalType":"uint256","name":"votesCase","type":"uint256"},{"internalType":"uint256","name":"lastActivityTimestamp","type":"uint256"}],"stateMutability":"view","type":"function"},{"inputs":[{"internalType":"bytes32","name":"role","type":"bytes32"},{"internalType":"address","name":"account","type":"address"}],"name":"grantRole","outputs":[],"stateMutability":"nonpayable","type":"function"},{"inputs":[{"internalType":"bytes32","name":"role","type":"bytes32"},{"internalType":"address","name":"account","type":"address"}],"name":"hasRole","outputs":[{"internalType":"bool","name":"","type":"bool"}],"stateMutability":"view","type":"function"},{"inputs":[{"internalType":"uint256","name":"proposalId","type":"uint256"},{"internalType":"address","name":"voter","type":"address"}],"name":"hasVoted","outputs":[{"internalType":"bool","name":"","type":"bool"}],"stateMutability":"view","type":"function"},{"inputs":[],"name":"pause","outputs":[],"stateMutability":"nonpayable","type":"function"},{"inputs":[],"name":"paused","outputs":[{"internalType":"bool","name":"","type":"bool"}],"stateMutability":"view","type":"function"},{"inputs":[],"name":"proposalCount","outputs":[{"internalType":"uint256","name":"","type":"uint256"}],"stateMutability":"view","type":"function"},{"inputs":[{"internalType":"uint256","name":"","type":"uint256"}],"name":"proposals","outputs":[{"internalType":"uint256","name":"id","type":"uint256"},{"internalType":"address","name":"proposer","type":"address"},{"internalType":"enum GovernanceDAO.ProposalType","name":"proposalType","type":"uint8"},{"internalType":"string","name":"title","type":"string"},{"internalType":"string","name":"description","type":"string"},{"internalType":"bytes","name":"calldata_","type":"bytes"},{"internalType":"uint256","name":"createdAt","type":"uint256"},{"internalType":"uint256","name":"votingEnds","type":"uint256"},{"internalType":"uint256","name":"executionTime","type":"uint256"},{"internalType":"uint256","name":"forVotes","type":"uint256"},{"internalType":"uint256","name":"againstVotes","type":"uint256"},{"internalType":"uint256","name":"abstainVotes","type":"uint256"},{"internalType":"uint256","name":"totalVotingPower","type":"uint256"},{"internalType":"enum GovernanceDAO.ProposalStatus","name":"status","type":"uint8"},{"internalType":"bool","name":"guardianVetoed","type":"bool"}],"stateMutability":"view","type":"function"},{"inputs":[{"internalType":"address","name":"guardian","type":"address"}],"name":"removeGuardianNode","outputs":[],"stateMutability":"nonpayable","type":"function"},{"inputs":[{"internalType":"bytes32","name":"role","type":"bytes32"},{"internalType":"address","name":"callerConfirmation","type":"address"}],"name":"renounceRole","outputs":[],"stateMutability":"nonpayable","type":"function"},{"inputs":[{"internalType":"bytes32","name":"role","type":"bytes32"},{"internalType":"address","name":"account","type":"address"}],"name":"revokeRole","outputs":[],"stateMutability":"nonpayable","type":"function"},{"inputs":[{"internalType":"bytes4","name":"interfaceId","type":"bytes4"}],"name":"supportsInterface","outputs":[{"internalType":"bool","name":"","type":"bool"}],"stateMutability":"view","type":"function"},{"inputs":[{"internalType":"uint256","name":"","type":"uint256"},{"internalType":"bytes32","name":"","type":"bytes32"}],"name":"tetrahedronVotes","outputs":[{"internalType":"address","name":"vertex1","type":"address"},{"internalType":"address","name":"vertex2","type":"address"},{"internalType":"address","name":"vertex3","type":"address"},{"internalType":"address","name":"vertex4","type":"address"},{"internalType":"bool","name":"isComplete","type":"bool"},{"internalType":"enum GovernanceDAO.VoteType","name":"consensusVote","type":"uint8"}],"stateMutability":"view","type":"function"},{"inputs":[],"name":"totalVotingPower","outputs":[{"internalType":"uint256","name":"","type":"uint256"}],"stateMutability":"view","type":"function"},{"inputs":[],"name":"treasuryBalance","outputs":[{"internalType":"uint256","name":"","type":"uint256"}],"stateMutability":"view","type":"function"},{"inputs":[],"name":"unpause","outputs":[],"stateMutability":"nonpayable","type":"function"},{"inputs":[{"internalType":"address","name":"","type":"address"},{"internalType":"uint256","name":"","type":"uint256"}],"name":"userProposals","outputs":[{"internalType":"uint256","name":"","type":"uint256"}],"stateMutability":"view","type":"function"},{"inputs":[{"internalType":"uint256","name":"proposalId","type":"uint256"},{"internalType":"string","name":"reason","type":"string"}],"name":"vetoProposal","outputs":[],"stateMutability":"nonpayable","type":"function"},{"inputs":[{"internalType":"address","name":"","type":"address"}],"name":"voters","outputs":[{"internalType":"uint256","name":"reputation","type":"uint256"},{"internalType":"uint256","name":"tetrahedronCount","type":"uint256"},{"internalType":"uint256","name":"proposalsCreated","type":"uint256"},{"internalType":"uint256","name":"votesCase","type":"uint256"},{"internalType":"uint256","name":"lastActivityTimestamp","type":"uint256"},{"internalType":"bool","name":"isActive","type":"bool"}],"stateMutability":"view","type":"function"},{"inputs":[{"internalType":"address","name":"","type":"address"}],"name":"votingPower","outputs":[{"internalType":"uint256","name":"","type":"uint256"}],"stateMutability":"view","type":"function"},{"stateMutability":"payable","type":"receive"}],"evm":{"bytecode":{"linkReferences":{},"object":"608060405234620000425760018055620000193362000047565b506200002533620000c7565b50620000313362000169565b506040516129539081620002078239f35b600080fd5b6001600160a01b031660008181527fad3228b676f7d3cd4284a5443f17f1962b36e491b30a40b2405849e597ba5fb5602052604081205490919060ff16620000c357818052816020526040822081835260205260408220600160ff19825416179055339160008051602062002b5a8339815191528180a4600190565b5090565b6001600160a01b031660008181527f8b3b86ca8f0a4695bac601aa9b5b6bd2adc535cfe1210d53b4b5ca5d75f7138260205260408120549091907ffcb9118960b6d0907e06f4c44256c87d64f757397ce11d189cd0673cb6998c889060ff166200016457808352826020526040832082845260205260408320600160ff1982541617905560008051602062002b5a833981519152339380a4600190565b505090565b6001600160a01b031660008181527f3412d5605ac6cd444957cedb533e5dacad6378b4bc819ebe3652188a665066d560205260408120549091907fb09aa5aeb3702cfd50b6b62bc4532604938f21248a27a1d5ca736082b6819cc19060ff166200016457808352826020526040832082845260205260408320600160ff1982541617905560008051602062002b5a833981519152339380a460019056fe6080806040526004361015610025575b50361561001b57600080fd5b61002361283e565b005b60003560e01c908163013cf08b14611dc95750806301ffc9a714611d735780630d61b51914611af75780631b31527f14611a9f578063248a9ca314611a705780632627780d14611a5457806328bf60f9146115935780632f2ff15d14611554578063313dab201461153657806336568abe146114ef57806337f135d714610a6f5780633f4ba83a1461146457806342296a1414611448578063432fcf0c1461142c57806343859632146113dc578063556e6a4e1461134f5780635652077c1461133357806356781388146110f9578063571c81e2146110d05780635c975abb146110ad578063671b37931461108f5780636a11228814610eca578063718b205814610eb657806378ef113814610e025780638193520414610c675780638456cb5914610bec5780638f61f4f514610bb157806391d1485414610b645780639762a37e14610b06578063a217fddf14610aea578063a3ec138d14610a74578063b1610d7e14610a6f578063c07473f614610a35578063c7f758a814610942578063c8160b3c146108e4578063cdb0fb99146108c6578063d155aecd146102e8578063d547741f146102a9578063d8a6f68f1461020d5763da35c664146101ea573861000f565b34610208576000366003190112610208576020600354604051908152f35b600080fd5b34610208576020366003190112610208576001600160a01b0361022e612090565b16600052600760205260a060406000206040519061024b82611ff8565b80549182815260018201548060208301526002830154908160408401526003840154928360608201528660ff600560048801549788608086015201541615159101526040519485526020850152604084015260608301526080820152f35b34610208576040366003190112610208576100236004356102c86120a6565b908060005260006020526102e3600160406000200154612186565b612358565b346102085760803660031901126102085760043560058110156102085760249067ffffffffffffffff90823582811161020857610329903690600401612168565b9060443583811161020857610342903690600401612168565b9260643581811161020857366023820112156102085761036b9036908781600401359101612131565b9361037461243d565b3360009081527f3412d5605ac6cd444957cedb533e5dacad6378b4bc819ebe3652188a665066d5602090815260409091205490969060ff1680156108b2575b1561086457600484146107d8575b6003916103ce83546123cd565b968784558760005260068952604060002094888655600192838701805460ff60a01b8a60a01b169060ff60a01b193316906affffffffffffffffffffff60a81b1617179055885182811161074a5760028801906104358161042f8454611f28565b846123dc565b808d80601f831160011461076a575060009161075f575b50600019828a1b1c191690861b1790555b805182811161074a57808c888a01936104808361047a8754611f28565b876123dc565b81601f84116001146106e557506000926106da575b505060001982891b1c191690851b1790555b600486019180519182116106c55781906104cb826104c58654611f28565b866123dc565b8b90601f831160011461066157600092610656575b505060001982871b1c191690831b1790555b4260058501556004850361063f5762015180420180421161062a5760068501555b6006840193845462093a8081018091116106155790600c916007820155600554600b820155018160ff1982541617905533600052600988526040600020908154926801000000000000000084101561060157509261059d837f2160cbf9d326719dd2cc1be7c9b9c511051b9228f9b3edc8fe58aed7d44fdac396938a98966105ed960181556120bc565b81929154911b9087821b91600019901b1916179055336000526007885260026040600020016105cc81546123cd565b905554946105dd6040518094612036565b6060888401526060830190612043565b9360408201528033940390a3604051908152f35b634e487b7160e01b60009081526041600452fd5b83634e487b7160e01b60005260116004526000fd5b82634e487b7160e01b60005260116004526000fd5b62093a80420180421161062a576006850155610513565b015190508b806104e0565b60008581528d8120879550929190601f198516908f5b8282106106ac5750508411610694575b505050811b0190556104f2565b015160001983891b60f8161c191690558b8080610687565b8484015186558997909501949384019390810190610677565b84634e487b7160e01b60005260416004526000fd5b015190508d80610495565b9190889450601f1984168660005283600020936000905b8282106107315750508411610719575b505050811b0190556104a7565b0151600019838b1b60f8161c191690558d808061070c565b8484015186558b979095019493840193908101906106fc565b85634e487b7160e01b60005260416004526000fd5b90508b01518e61044c565b90889350846000528d8260002092600090601f198616925b8383106107b757505050831161079f575b5050811b01905561045d565b8d0151600019838c1b60f8161c191690558e80610793565b96819394969795878394970151815501950193018f918b9695949392610782565b6000805160206128be83398151915260005260008752604060002033600052875260ff604060002054166103c1578660326084926040519262461bcd60e51b845260048401528201527f4f6e6c7920477561726469616e204e6f6465732063616e2063726561746520656044820152716d657267656e63792070726f706f73616c7360701b6064820152fd5b8660226084926040519262461bcd60e51b845260048401528201527f496e73756666696369656e742072657075746174696f6e20746f2070726f706f604482015261736560f01b6064820152fd5b5060078752601960406000205410156103b3565b346102085760003660031901126102085760206040516203f4808152f35b34610208576020366003190112610208576108fd612090565b61090830331461287b565b610911816122d1565b506001600160a01b03167f4b250d0d037d96d260fce856f0a0f99eefe230e4a50a92b18cafe4d925965203600080a2005b3461020857602036600319011261020857600435600052600660205260ff60206040600020610a31600182015460058301549260068101546008820154600983015491610a0b60036109fd600a870154966109eb8d600c83015416996109cd604051936109bd856109b68160028501611f62565b0386612014565b6109b66040518098819301611f62565b6040516001600160a01b03821681529e8f9e8f019160a01c16612036565b61014060408d018190528c0190612043565b908a820360608c0152612043565b96608089015260a088015260c087015260e0860152610100850152610120840190612083565b0390f35b34610208576020366003190112610208576001600160a01b03610a56612090565b16600052600a6020526020604060002054604051908152f35b6120ea565b34610208576020366003190112610208576001600160a01b03610a95612090565b16600052600760205260c06040600020805490600181015490600281015460038201549060ff6005600485015494015416936040519586526020860152604085015260608401526080830152151560a0820152f35b3461020857600036600319011261020857602060405160008152f35b3461020857602036600319011261020857610b1f612090565b610b2a30331461287b565b610b33816121ca565b506001600160a01b03167f102c453d9e8ae0f4a100ae76acd60b1d646497dc82bcff786cdf4bde002bd3c9600080a2005b3461020857604036600319011261020857610b7d6120a6565b600435600052600060205260406000209060018060a01b0316600052602052602060ff604060002054166040519015158152f35b346102085760003660031901126102085760206040517fb09aa5aeb3702cfd50b6b62bc4532604938f21248a27a1d5ca736082b6819cc18152f35b34610208576000366003190112610208573360009081526000805160206128fe8339815191526020526040902054610c269060ff166126f8565b610c2e61243d565b600160ff1960025416176002557f62e78cea01bee320cd4e420270b5ea74000d11b0c9f74754ebdbfc544b05a2586020604051338152a1005b3461020857606036600319011261020857610c80612090565b6024359060443567ffffffffffffffff811161020857610ca4903690600401612168565b3360009081526000805160206128fe833981519152602090815260409091205491929091610cd49060ff166126f8565b6001600160a01b03166000818152600780845260408220549295909491811315610d7557906000805160206128de83398151915294610d669287600052818652610d246040600020918254612430565b90558660005280855260406000206064815411610d6b575b505b8660005284526040600020546040519485948552840152606060408401526060830190612043565b0390a2005b6064905587610d3c565b600160ff1b8114610dec57856000528484526040600020805491806000038310600014610dc657505050610d66906000805160206128de833981519152948660005280855260006040812055610d3e565b8201959092918611610dec576000805160206128de83398151915295610d669355610d3e565b634e487b7160e01b600052601160045260246000fd5b3461020857602080600319360112610208576001600160a01b03610e24612090565b1660005260098152604060002060405190818382549182815201908192600052846000209060005b86828210610ea2578686610e6282880383612014565b604051928392818401908285525180915260408401929160005b828110610e8b57505050500390f35b835185528695509381019392810192600101610e7c565b835485529093019260019283019201610e4c565b60003660031901126102085761002361283e565b346102085760403660031901126102085760043560243567ffffffffffffffff811161020857610efe903690600401612168565b3360009081526000805160206128fe83398151915260209081526040909120549092919060ff161561104a5781600052600683526040600020600c81019081549060ff8216600781101561103457600203610fe55760070154421015610fa75761ffff191661010517905560405183815233937f35a5df1b20f98186765f8fc3788938661b781d22789abadf13a6eca122074af8928291610fa29190830190612043565b0390a3005b60405162461bcd60e51b8152600481018690526016602482015275115e1958dd5d1a5bdb8819195b185e481c185cdcd95960521b6044820152606490fd5b60405162461bcd60e51b815260048101879052602160248201527f43616e206f6e6c79207665746f207375636365656465642070726f706f73616c6044820152607360f81b6064820152608490fd5b634e487b7160e01b600052602160045260246000fd5b60405162461bcd60e51b815260048101849052601c60248201527f4f6e6c7920477561726469616e204e6f6465732063616e207665746f000000006044820152606490fd5b34610208576000366003190112610208576020600554604051908152f35b3461020857600036600319011261020857602060ff600254166040519015158152f35b346102085760003660031901126102085760206040516000805160206128be8339815191528152f35b346102085760403660031901126102085760243560043560038210156102085761112161243d565b8060005260206006815260406000209060ff600c83015416600781101561103457600161114e911461245b565b61115e600683015442111561249d565b600d8201913360005282825260ff604060002054166112fe5760ff600182015460a01c16600581101561103457600281149081156112f3575b50611286575b6111a63361273a565b92336000528252604060002060ff1990600182825416179055600e8201835260406000209081541660ff87161790556001851460001461125e576008016111ee838254612430565b90555b3360005260078152600360406000200161120b81546123cd565b905533600052600781524260046040600020015561122c6040518095612108565b830152600060408301527f160d05298d5a9b038e9b621b76845708785d8c81a740cb7838b76d45220746ce60603393a3005b8461127857600901611271838254612430565b90556111f1565b600a01611271838254612430565b33600052600782526032604060002054101561119d5760405162461bcd60e51b815260048101839052602960248201527f496e73756666696369656e742072657075746174696f6e20666f7220637269746044820152686963616c20766f746560b81b6064820152608490fd5b600391501486611197565b60405162461bcd60e51b815260048101839052600d60248201526c105b1c9958591e481d9bdd1959609a1b6044820152606490fd5b34610208576020366003190112610208576100236004356124f0565b34610208576040366003190112610208576004356000526008602052604060002060243560005260205260c060406000206113da60018060a01b03918281541692806001830154169160038260028301541691015492604051958652602086015260408501528116606084015260ff8160a01c161515608084015260ff60a084019160a81c16612108565bf35b34610208576040366003190112610208576113f56120a6565b6004356000526006602052600d6040600020019060018060a01b0316600052602052602060ff604060002054166040519015158152f35b3461020857600036600319011261020857602060405160048152f35b3461020857600036600319011261020857602060405160328152f35b34610208576000366003190112610208573360009081526000805160206128fe833981519152602052604090205461149e9060ff166126f8565b60025460ff8116156114dd5760ff19166002557f5db9ee0a495bf2e6ff9c91a7834c1ba4fdd244a5e8aa4e537bd38aeae4b073aa6020604051338152a1005b604051638dfc202b60e01b8152600490fd5b34610208576040366003190112610208576115086120a6565b336001600160a01b038216036115245761002390600435612358565b60405163334bd91960e11b8152600490fd5b34610208576000366003190112610208576020600454604051908152f35b34610208576040366003190112610208576100236004356115736120a6565b9080600052600060205261158e600160406000200154612186565b612258565b346102085760c03660031901126102085736604312156102085760405167ffffffffffffffff9060808101828111828210176119875760405260a49181368411610208576024905b848210611a34575050600383351015610208576115f661243d565b600435600052600660205260406000209060ff600c830154169260079384811015611034576001611627911461245b565b611637600684015442111561249d565b6000805b60048110611a02575b50156119bd57604051916020830190826000835b6004821061199d57505050608084528360a08101109060a0850111176119875760a0830160405282519020600435600052600860205260406000209060005260205260406000209160018060a01b03825116600052600d840160205260ff604060002054161580611965575b80611945575b80611923575b156118d257506000936000905b600482106118175750508360021b9380850460041490151715610dec5760009285356001036117e65790600860039201611718868254612430565b90555b805183546001600160a01b03199081166001600160a01b039283161785556020830151600186018054831691841691909117905560408301516002860180549092169083161790556060909101519190920180549093919092169190611034576001600160b01b03191617923560a881901b60ff60a81b1693909317600160a01b179055604051916117ae908390612108565b60208201526001604082015233907f160d05298d5a9b038e9b621b76845708785d8c81a740cb7838b76d45220746ce606060043592a3005b6000935060039190863561180957600901611802868254612430565b905561171b565b600a01611802868254612430565b90946118cc906118439061183d6001600160a01b036118368a886124df565b511661273a565b90612430565b956001600160a01b0361185682866124df565b51166000908152600d870160205260409020805460ff191660011790556001600160a01b0361188582866124df565b51166000528260205260036040600020016118a081546123cd565b90556001600160a01b036118b482866124df565b511660005282602052426004604060002001556123cd565b906116dd565b60a060849160208862461bcd60e51b84840152820152602160c48201527f5465747261686564726f6e206d656d6265727320616c726561647920766f746560e4820152601960fa1b61010482015201fd5b5060608201516001600160a01b03166000908152604090205460ff16156116d0565b506040828101516001600160a01b03166000908152205460ff16156116ca565b5060208201516001600160a01b03166000908152604090205460ff16156116c4565b634e487b7160e01b600052604160045260246000fd5b82516001600160a01b031681526020928301926001929092019101611658565b60405162461bcd60e51b815260206004820152601e60248201527f43616c6c6572206e6f742070617274206f66207465747261686564726f6e00006044820152606490fd5b336001600160a01b03611a1583866124df565b511614611a2a57611a25906123cd565b61163b565b5050600186611644565b81356001600160a01b0381168103610208578152602091820191016115db565b34610208576000366003190112610208576020604051600a8152f35b346102085760203660031901126102085760043560005260006020526020600160406000200154604051908152f35b3461020857604036600319011261020857611ab8612090565b6001600160a01b031660009081526009602052604090208054602435919082101561020857602091611ae9916120bc565b90546040519160031b1c8152f35b3461020857602080600319360112610208576004356001916002835414611d61576002835581600052600681526040600020600c81019081549160ff8316600781101561103457600203611d235760078201544210611cde5760ff8360081c16611c9957600460ff1993841681179091550180549091611b7682611f28565b611ba7575b8533867f9c85b616f29fca57a17eafe71cf9ff82ffef41766e2cf01ea7f8f7878dd3ec24600080a38055005b60405192600092611bb781611f28565b92818916918215611c84575050600114611c4b575b5050816000928392039082305af13d15611c46573d611bea81612115565b90611bf86040519283612014565b81526000833d92013e5b15611c0f57808080611b7b565b6064906040519062461bcd60e51b82526004820152601060248201526f115e1958dd5d1a5bdb8819985a5b195960821b6044820152fd5b611c02565b9091506000528260002083866000925b848410611c72575050509082019050816000611bcc565b80548487015201910190868591611c5b565b16855250508015150282019050816000611bcc565b60405162461bcd60e51b815260048101859052601b60248201527f50726f706f73616c207665746f656420627920477561726469616e00000000006044820152606490fd5b60405162461bcd60e51b815260048101859052601a60248201527f457865637574696f6e2064656c6179206e6f74207061737365640000000000006044820152606490fd5b60405162461bcd60e51b8152600481018590526016602482015275141c9bdc1bdcd85b081b9bdd081cdd58d8d95959195960521b6044820152606490fd5b604051633ee5aeb560e01b8152600490fd5b346102085760203660031901126102085760043563ffffffff60e01b811680910361020857602090637965db0b60e01b8114908115611db8575b506040519015158152f35b6301ffc9a760e01b14905082611dad565b34610208576020366003190112610208576004356000526006602052604060002080549060018101549280806002840190611e0391611f62565b03611e0e9082612014565b6040519182611e208160038401611f62565b03611e2b9084612014565b6040519283611e3d8160048501611f62565b03611e489085612014565b60058201549360068301546007840154600885015491600986015493600a87015495600b88015497600c0154986040519c8d9c8d528c600160a01b600190038216906020015260408d019060a01c60ff1690611ea391612036565b8b6101e06060819201528c01611eb891612043565b8b810360808d0152611ec991612043565b8a810360a08c0152611eda91612043565b9760c08a015260e08901526101008801526101208701526101408601526101608501526101808401526101a0830160ff821690611f1691612083565b60081c60ff1615156101c08301520390f35b90600182811c92168015611f58575b6020831014611f4257565b634e487b7160e01b600052602260045260246000fd5b91607f1691611f37565b9060009291805491611f7383611f28565b918282526001938481169081600014611fd55750600114611f95575b50505050565b90919394506000526020928360002092846000945b838610611fc1575050505001019038808080611f8f565b805485870183015294019385908201611faa565b9294505050602093945060ff191683830152151560051b01019038808080611f8f565b60c0810190811067ffffffffffffffff82111761198757604052565b90601f8019910116810190811067ffffffffffffffff82111761198757604052565b9060058210156110345752565b919082519283825260005b84811061206f575050826000602080949584010152601f8019910116010190565b60208183018101518483018201520161204e565b9060078210156110345752565b600435906001600160a01b038216820361020857565b602435906001600160a01b038216820361020857565b80548210156120d45760005260206000200190600090565b634e487b7160e01b600052603260045260246000fd5b3461020857600036600319011261020857602060405162093a808152f35b9060038210156110345752565b67ffffffffffffffff811161198757601f01601f191660200190565b92919261213d82612115565b9161214b6040519384612014565b829481845281830111610208578281602093846000960137010152565b9080601f830112156102085781602061218393359101612131565b90565b80600052600060205260406000203360005260205260ff60406000205416156121ac5750565b6044906040519063e2517d3f60e01b82523360048301526024820152fd5b6001600160a01b031660008181526000805160206128fe83398151915260205260408120549091906000805160206128be8339815191529060ff1661225357808352826020526040832082845260205260408320600160ff198254161790557f2f8788117e7eff1d82e926ec794901d17c78024a50270940304540a733656f0d339380a4600190565b505090565b9060009180835282602052604083209160018060a01b03169182845260205260ff6040842054161560001461225357808352826020526040832082845260205260408320600160ff198254161790557f2f8788117e7eff1d82e926ec794901d17c78024a50270940304540a733656f0d339380a4600190565b6001600160a01b031660008181526000805160206128fe83398151915260205260408120549091906000805160206128be8339815191529060ff16156122535780835282602052604083208284526020526040832060ff1981541690557ff6391f5c32d9c69d2a47ea670b442974b53935d1edc7fd64eb21e047a839171b339380a4600190565b9060009180835282602052604083209160018060a01b03169182845260205260ff6040842054166000146122535780835282602052604083208284526020526040832060ff1981541690557ff6391f5c32d9c69d2a47ea670b442974b53935d1edc7fd64eb21e047a839171b339380a4600190565b6000198114610dec5760010190565b90601f81116123ea57505050565b600091825260208220906020601f850160051c83019410612426575b601f0160051c01915b82811061241b57505050565b81815560010161240f565b9092508290612406565b91908201809211610dec57565b60ff6002541661244957565b60405163d93c066560e01b8152600490fd5b1561246257565b60405162461bcd60e51b815260206004820152601360248201527250726f706f73616c206e6f742061637469766560681b6044820152606490fd5b156124a457565b60405162461bcd60e51b8152602060048201526013602482015272159bdd1a5b99c81c195c9a5bd908195b991959606a1b6044820152606490fd5b9060048110156120d45760051b0190565b906000918252602060068152604090818420600c8101805460ff811660078110156126e4576001612521911461245b565b60068301544211156126a05760088301546009840154916125506125458484612430565b600a87015490612430565b600b860154600a810290808204600a149015171561268c5760649004116126785750111561266557805460ff191660021790556001015482516001600160a01b0391909116929080820167ffffffffffffffff811182821017612651578252601381527214dd58d8d95cdcd99d5b081c1c9bdc1bdcd85b606a1b838201528386526007835281862091825492600584019081851161263d5791806000805160206128de83398151915297989960609361262f96955589815260078852206064815411612634575b54815196879687528601528401526060830190612043565b0390a2565b60648155612617565b634e487b7160e01b89526011600452602489fd5b634e487b7160e01b87526041600452602487fd5b805460ff19166003179055509192505050565b60ff19166003179092555093945050505050565b634e487b7160e01b8b52601160045260248bfd5b845162461bcd60e51b815260048101859052601860248201527f566f74696e67207374696c6c20696e2070726f677265737300000000000000006044820152606490fd5b634e487b7160e01b88526021600452602488fd5b156126ff57565b60405162461bcd60e51b81526020600482015260136024820152724f6e6c7920477561726469616e204e6f64657360681b6044820152606490fd5b60018060a01b0316600052600760205260406000206040519061275c82611ff8565b805491828152600182015460208201526002820154604082015260a060ff600560038501549460608501958652600481015460808601520154161515910152606482029180830460641490151715610dec576127ba612183926127df565b60009151600a81116127cd575b50612430565b6127d89192506127df565b90386127c7565b8015612838576001808201808311610dec57811c90825b8383106128035750505090565b91925090828015612823578061281a918304612430565b821c91906127f6565b60246000634e487b7160e01b81526012600452fd5b50600090565b61284a34600454612430565b6004556040513481527fe3407208b14fa025330ca187030f118a1c0cdb604aba93ba45c862e6095aee2760203392a2565b1561288257565b60405162461bcd60e51b81526020600482015260136024820152724f6e6c792076696120676f7665726e616e636560681b6044820152606490fdfefcb9118960b6d0907e06f4c44256c87d64f757397ce11d189cd0673cb6998c884146a620f234be49686701963664655b5fb451997f8462f773d272d68f17043f8b3b86ca8f0a4695bac601aa9b5b6bd2adc535cfe1210d53b4b5ca5d75f71382a26469706673582212202bed5f976e6adfdf8e41e742fb0122f76be3b1dc87012ec8e49a5fe80c76f7f564736f6c634300081400332f8788117e7eff1d82e926ec794901d17c78024a50270940304540a733656f0d","opcodes":"PUSH1 0x80 PUSH1 0x40 MSTORE CALLVALUE PUSH3 0x42 JUMPI PUSH1 0x1 DUP1 SSTORE PUSH3 0x19 CALLER PUSH3 0x47 JUMP JUMPDEST POP PUSH3 0x25 CALLER PUSH3 0xC7 JUMP JUMPDEST POP PUSH3 0x31 CALLER PUSH3 0x169 JUMP JUMPDEST POP PUSH1 0x40 MLOAD PUSH2 0x2953 SWAP1 DUP2 PUSH3 0x207 DUP3 CODECOPY RETURN JUMPDEST PUSH1 0x0 DUP1 REVERT JUMPDEST PUSH1 0x1 PUSH1 0x1 PUSH1 0xA0 SHL SUB AND PUSH1 0x0 DUP2 DUP2 MSTORE PUSH32 0xAD3228B676F7D3CD4284A5443F17F1962B36E491B30A40B2405849E597BA5FB5 PUSH1 0x20 MSTORE PUSH1 0x40 DUP2 KECCAK256 SLOAD SWAP1 SWAP2 SWAP1 PUSH1 0xFF AND PUSH3 0xC3 JUMPI DUP2 DUP1 MSTORE DUP2 PUSH1 0x20 MSTORE PUSH1 0x40 DUP3 KECCAK256 DUP2 DUP4 MSTORE PUSH1 0x20 MSTORE PUSH1 0x40 DUP3 KECCAK256 PUSH1 0x1 PUSH1 0xFF NOT DUP3 SLOAD AND OR SWAP1 SSTORE CALLER SWAP2 PUSH1 0x0 DUP1 MLOAD PUSH1 0x20 PUSH3 0x2B5A DUP4 CODECOPY DUP2 MLOAD SWAP2 MSTORE DUP2 DUP1 LOG4 PUSH1 0x1 SWAP1 JUMP JUMPDEST POP SWAP1 JUMP JUMPDEST PUSH1 0x1 PUSH1 0x1 PUSH1 0xA0 SHL SUB AND PUSH1 0x0 DUP2 DUP2 MSTORE PUSH32 0x8B3B86CA8F0A4695BAC601AA9B5B6BD2ADC535CFE1210D53B4B5CA5D75F71382 PUSH1 0x20 MSTORE PUSH1 0x40 DUP2 KECCAK256 SLOAD SWAP1 SWAP2 SWAP1 PUSH32 0xFCB9118960B6D0907E06F4C44256C87D64F757397CE11D189CD0673CB6998C88 SWAP1 PUSH1 0xFF AND PUSH3 0x164 JUMPI DUP1 DUP4 MSTORE DUP3 PUSH1 0x20 MSTORE PUSH1 0x40 DUP4 KECCAK256 DUP3 DUP5 MSTORE PUSH1 0x20 MSTORE PUSH1 0x40 DUP4 KECCAK256 PUSH1 0x1 PUSH1 0xFF NOT DUP3 SLOAD AND OR SWAP1 SSTORE PUSH1 0x0 DUP1 MLOAD PUSH1 0x20 PUSH3 0x2B5A DUP4 CODECOPY DUP2 MLOAD SWAP2 MSTORE CALLER SWAP4 DUP1 LOG4 PUSH1 0x1 SWAP1 JUMP JUMPDEST POP POP SWAP1 JUMP JUMPDEST PUSH1 0x1 PUSH1 0x1 PUSH1 0xA0 SHL SUB AND PUSH1 0x0 DUP2 DUP2 MSTORE PUSH32 0x3412D5605AC6CD444957CEDB533E5DACAD6378B4BC819EBE3652188A665066D5 PUSH1 0x20 MSTORE PUSH1 0x40 DUP2 KECCAK256 SLOAD SWAP1 SWAP2 SWAP1 PUSH32 0xB09AA5AEB3702CFD50B6B62BC4532604938F21248A27A1D5CA736082B6819CC1 SWAP1 PUSH1 0xFF AND PUSH3 0x164 JUMPI DUP1 DUP4 MSTORE DUP3 PUSH1 0x20 MSTORE PUSH1 0x40 DUP4 KECCAK256 DUP3 DUP5 MSTORE PUSH1 0x20 MSTORE PUSH1 0x40 DUP4 KECCAK256 PUSH1 0x1 PUSH1 0xFF NOT DUP3 SLOAD AND OR SWAP1 SSTORE PUSH1 0x0 DUP1 MLOAD PUSH1 0x20 PUSH3 0x2B5A DUP4 CODECOPY DUP2 MLOAD SWAP2 MSTORE CALLER SWAP4 DUP1 LOG4 PUSH1 0x1 SWAP1 JUMP INVALID PUSH1 0x80 DUP1 PUSH1 0x40 MSTORE PUSH1 0x4 CALLDATASIZE LT ISZERO PUSH2 0x25 JUMPI JUMPDEST POP CALLDATASIZE ISZERO PUSH2 0x1B JUMPI PUSH1 0x0 DUP1 REVERT JUMPDEST PUSH2 0x23 PUSH2 0x283E JUMP JUMPDEST STOP JUMPDEST PUSH1 0x0 CALLDATALOAD PUSH1 0xE0 SHR SWAP1 DUP2 PUSH4 0x13CF08B EQ PUSH2 0x1DC9 JUMPI POP DUP1 PUSH4 0x1FFC9A7 EQ PUSH2 0x1D73 JUMPI DUP1 PUSH4 0xD61B519 EQ PUSH2 0x1AF7 JUMPI DUP1 PUSH4 0x1B31527F EQ PUSH2 0x1A9F JUMPI DUP1 PUSH4 0x248A9CA3 EQ PUSH2 0x1A70 JUMPI DUP1 PUSH4 0x2627780D EQ PUSH2 0x1A54 JUMPI DUP1 PUSH4 0x28BF60F9 EQ PUSH2 0x1593 JUMPI DUP1 PUSH4 0x2F2FF15D EQ PUSH2 0x1554 JUMPI DUP1 PUSH4 0x313DAB20 EQ PUSH2 0x1536 JUMPI DUP1 PUSH4 0x36568ABE EQ PUSH2 0x14EF JUMPI DUP1 PUSH4 0x37F135D7 EQ PUSH2 0xA6F JUMPI DUP1 PUSH4 0x3F4BA83A EQ PUSH2 0x1464 JUMPI DUP1 PUSH4 0x42296A14 EQ PUSH2 0x1448 JUMPI DUP1 PUSH4 0x432FCF0C EQ PUSH2 0x142C JUMPI DUP1 PUSH4 0x43859632 EQ PUSH2 0x13DC JUMPI DUP1 PUSH4 0x556E6A4E EQ PUSH2 0x134F JUMPI DUP1 PUSH4 0x5652077C EQ PUSH2 0x1333 JUMPI DUP1 PUSH4 0x56781388 EQ PUSH2 0x10F9 JUMPI DUP1 PUSH4 0x571C81E2 EQ PUSH2 0x10D0 JUMPI DUP1 PUSH4 0x5C975ABB EQ PUSH2 0x10AD JUMPI DUP1 PUSH4 0x671B3793 EQ PUSH2 0x108F JUMPI DUP1 PUSH4 0x6A112288 EQ PUSH2 0xECA JUMPI DUP1 PUSH4 0x718B2058 EQ PUSH2 0xEB6 JUMPI DUP1 PUSH4 0x78EF1138 EQ PUSH2 0xE02 JUMPI DUP1 PUSH4 0x81935204 EQ PUSH2 0xC67 JUMPI DUP1 PUSH4 0x8456CB59 EQ PUSH2 0xBEC JUMPI DUP1 PUSH4 0x8F61F4F5 EQ PUSH2 0xBB1 JUMPI DUP1 PUSH4 0x91D14854 EQ PUSH2 0xB64 JUMPI DUP1 PUSH4 0x9762A37E EQ PUSH2 0xB06 JUMPI DUP1 PUSH4 0xA217FDDF EQ PUSH2 0xAEA JUMPI DUP1 PUSH4 0xA3EC138D EQ PUSH2 0xA74 JUMPI DUP1 PUSH4 0xB1610D7E EQ PUSH2 0xA6F JUMPI DUP1 PUSH4 0xC07473F6 EQ PUSH2 0xA35 JUMPI DUP1 PUSH4 0xC7F758A8 EQ PUSH2 0x942 JUMPI DUP1 PUSH4 0xC8160B3C EQ PUSH2 0x8E4 JUMPI DUP1 PUSH4 0xCDB0FB99 EQ PUSH2 0x8C6 JUMPI DUP1 PUSH4 0xD155AECD EQ PUSH2 0x2E8 JUMPI DUP1 PUSH4 0xD547741F EQ PUSH2 0x2A9 JUMPI DUP1 PUSH4 0xD8A6F68F EQ PUSH2 0x20D JUMPI PUSH4 0xDA35C664 EQ PUSH2 0x1EA JUMPI CODESIZE PUSH2 0xF JUMP JUMPDEST CALLVALUE PUSH2 0x208 JUMPI PUSH1 0x0 CALLDATASIZE PUSH1 0x3 NOT ADD SLT PUSH2 0x208 JUMPI PUSH1 0x20 PUSH1 0x3 SLOAD PUSH1 0x40 MLOAD SWAP1 DUP2 MSTORE RETURN JUMPDEST PUSH1 0x0 DUP1 REVERT JUMPDEST CALLVALUE PUSH2 0x208 JUMPI PUSH1 0x20 CALLDATASIZE PUSH1 0x3 NOT ADD SLT PUSH2 0x208 JUMPI PUSH1 0x1 PUSH1 0x1 PUSH1 0xA0 SHL SUB PUSH2 0x22E PUSH2 0x2090 JUMP JUMPDEST AND PUSH1 0x0 MSTORE PUSH1 0x7 PUSH1 0x20 MSTORE PUSH1 0xA0 PUSH1 0x40 PUSH1 0x0 KECCAK256 PUSH1 0x40 MLOAD SWAP1 PUSH2 0x24B DUP3 PUSH2 0x1FF8 JUMP JUMPDEST DUP1 SLOAD SWAP2 DUP3 DUP2 MSTORE PUSH1 0x1 DUP3 ADD SLOAD DUP1 PUSH1 0x20 DUP4 ADD MSTORE PUSH1 0x2 DUP4 ADD SLOAD SWAP1 DUP2 PUSH1 0x40 DUP5 ADD MSTORE PUSH1 0x3 DUP5 ADD SLOAD SWAP3 DUP4 PUSH1 0x60 DUP3 ADD MSTORE DUP7 PUSH1 0xFF PUSH1 0x5 PUSH1 0x4 DUP9 ADD SLOAD SWAP8 DUP9 PUSH1 0x80 DUP7 ADD MSTORE ADD SLOAD AND ISZERO ISZERO SWAP2 ADD MSTORE PUSH1 0x40 MLOAD SWAP5 DUP6 MSTORE PUSH1 0x20 DUP6 ADD MSTORE PUSH1 0x40 DUP5 ADD MSTORE PUSH1 0x60 DUP4 ADD MSTORE PUSH1 0x80 DUP3 ADD MSTORE RETURN JUMPDEST CALLVALUE PUSH2 0x208 JUMPI PUSH1 0x40 CALLDATASIZE PUSH1 0x3 NOT ADD SLT PUSH2 0x208 JUMPI PUSH2 0x23 PUSH1 0x4 CALLDATALOAD PUSH2 0x2C8 PUSH2 0x20A6 JUMP JUMPDEST SWAP1 DUP1 PUSH1 0x0 MSTORE PUSH1 0x0 PUSH1 0x20 MSTORE PUSH2 0x2E3 PUSH1 0x1 PUSH1 0x40 PUSH1 0x0 KECCAK256 ADD SLOAD PUSH2 0x2186 JUMP JUMPDEST PUSH2 0x2358 JUMP JUMPDEST CALLVALUE PUSH2 0x208 JUMPI PUSH1 0x80 CALLDATASIZE PUSH1 0x3 NOT ADD SLT PUSH2 0x208 JUMPI PUSH1 0x4 CALLDATALOAD PUSH1 0x5 DUP2 LT ISZERO PUSH2 0x208 JUMPI PUSH1 0x24 SWAP1 PUSH8 0xFFFFFFFFFFFFFFFF SWAP1 DUP3 CALLDATALOAD DUP3 DUP2 GT PUSH2 0x208 JUMPI PUSH2 0x329 SWAP1 CALLDATASIZE SWAP1 PUSH1 0x4 ADD PUSH2 0x2168 JUMP JUMPDEST SWAP1 PUSH1 0x44 CALLDATALOAD DUP4 DUP2 GT PUSH2 0x208 JUMPI PUSH2 0x342 SWAP1 CALLDATASIZE SWAP1 PUSH1 0x4 ADD PUSH2 0x2168 JUMP JUMPDEST SWAP3 PUSH1 0x64 CALLDATALOAD DUP2 DUP2 GT PUSH2 0x208 JUMPI CALLDATASIZE PUSH1 0x23 DUP3 ADD SLT ISZERO PUSH2 0x208 JUMPI PUSH2 0x36B SWAP1 CALLDATASIZE SWAP1 DUP8 DUP2 PUSH1 0x4 ADD CALLDATALOAD SWAP2 ADD PUSH2 0x2131 JUMP JUMPDEST SWAP4 PUSH2 0x374 PUSH2 0x243D JUMP JUMPDEST CALLER PUSH1 0x0 SWAP1 DUP2 MSTORE PUSH32 0x3412D5605AC6CD444957CEDB533E5DACAD6378B4BC819EBE3652188A665066D5 PUSH1 0x20 SWAP1 DUP2 MSTORE PUSH1 0x40 SWAP1 SWAP2 KECCAK256 SLOAD SWAP1 SWAP7 SWAP1 PUSH1 0xFF AND DUP1 ISZERO PUSH2 0x8B2 JUMPI JUMPDEST ISZERO PUSH2 0x864 JUMPI PUSH1 0x4 DUP5 EQ PUSH2 0x7D8 JUMPI JUMPDEST PUSH1 0x3 SWAP2 PUSH2 0x3CE DUP4 SLOAD PUSH2 0x23CD JUMP JUMPDEST SWAP7 DUP8 DUP5 SSTORE DUP8 PUSH1 0x0 MSTORE PUSH1 0x6 DUP10 MSTORE PUSH1 0x40 PUSH1 0x0 KECCAK256 SWAP5 DUP9 DUP7 SSTORE PUSH1 0x1 SWAP3 DUP4 DUP8 ADD DUP1 SLOAD PUSH1 0xFF PUSH1 0xA0 SHL DUP11 PUSH1 0xA0 SHL AND SWAP1 PUSH1 0xFF PUSH1 0xA0 SHL NOT CALLER AND SWAP1 PUSH11 0xFFFFFFFFFFFFFFFFFFFFFF PUSH1 0xA8 SHL AND OR OR SWAP1 SSTORE DUP9 MLOAD DUP3 DUP2 GT PUSH2 0x74A JUMPI PUSH1 0x2 DUP9 ADD SWAP1 PUSH2 0x435 DUP2 PUSH2 0x42F DUP5 SLOAD PUSH2 0x1F28 JUMP JUMPDEST DUP5 PUSH2 0x23DC JUMP JUMPDEST DUP1 DUP14 DUP1 PUSH1 0x1F DUP4 GT PUSH1 0x1 EQ PUSH2 0x76A JUMPI POP PUSH1 0x0 SWAP2 PUSH2 0x75F JUMPI JUMPDEST POP PUSH1 0x0 NOT DUP3 DUP11 SHL SHR NOT AND SWAP1 DUP7 SHL OR SWAP1 SSTORE JUMPDEST DUP1 MLOAD DUP3 DUP2 GT PUSH2 0x74A JUMPI DUP1 DUP13 DUP9 DUP11 ADD SWAP4 PUSH2 0x480 DUP4 PUSH2 0x47A DUP8 SLOAD PUSH2 0x1F28 JUMP JUMPDEST DUP8 PUSH2 0x23DC JUMP JUMPDEST DUP2 PUSH1 0x1F DUP5 GT PUSH1 0x1 EQ PUSH2 0x6E5 JUMPI POP PUSH1 0x0 SWAP3 PUSH2 0x6DA JUMPI JUMPDEST POP POP PUSH1 0x0 NOT DUP3 DUP10 SHL SHR NOT AND SWAP1 DUP6 SHL OR SWAP1 SSTORE JUMPDEST PUSH1 0x4 DUP7 ADD SWAP2 DUP1 MLOAD SWAP2 DUP3 GT PUSH2 0x6C5 JUMPI DUP2 SWAP1 PUSH2 0x4CB DUP3 PUSH2 0x4C5 DUP7 SLOAD PUSH2 0x1F28 JUMP JUMPDEST DUP7 PUSH2 0x23DC JUMP JUMPDEST DUP12 SWAP1 PUSH1 0x1F DUP4 GT PUSH1 0x1 EQ PUSH2 0x661 JUMPI PUSH1 0x0 SWAP3 PUSH2 0x656 JUMPI JUMPDEST POP POP PUSH1 0x0 NOT DUP3 DUP8 SHL SHR NOT AND SWAP1 DUP4 SHL OR SWAP1 SSTORE JUMPDEST TIMESTAMP PUSH1 0x5 DUP6 ADD SSTORE PUSH1 0x4 DUP6 SUB PUSH2 0x63F JUMPI PUSH3 0x15180 TIMESTAMP ADD DUP1 TIMESTAMP GT PUSH2 0x62A JUMPI PUSH1 0x6 DUP6 ADD SSTORE JUMPDEST PUSH1 0x6 DUP5 ADD SWAP4 DUP5 SLOAD PUSH3 0x93A80 DUP2 ADD DUP1 SWAP2 GT PUSH2 0x615 JUMPI SWAP1 PUSH1 0xC SWAP2 PUSH1 0x7 DUP3 ADD SSTORE PUSH1 0x5 SLOAD PUSH1 0xB DUP3 ADD SSTORE ADD DUP2 PUSH1 0xFF NOT DUP3 SLOAD AND OR SWAP1 SSTORE CALLER PUSH1 0x0 MSTORE PUSH1 0x9 DUP9 MSTORE PUSH1 0x40 PUSH1 0x0 KECCAK256 SWAP1 DUP2 SLOAD SWAP3 PUSH9 0x10000000000000000 DUP5 LT ISZERO PUSH2 0x601 JUMPI POP SWAP3 PUSH2 0x59D DUP4 PUSH32 0x2160CBF9D326719DD2CC1BE7C9B9C511051B9228F9B3EDC8FE58AED7D44FDAC3 SWAP7 SWAP4 DUP11 SWAP9 SWAP7 PUSH2 0x5ED SWAP7 ADD DUP2 SSTORE PUSH2 0x20BC JUMP JUMPDEST DUP2 SWAP3 SWAP2 SLOAD SWAP2 SHL SWAP1 DUP8 DUP3 SHL SWAP2 PUSH1 0x0 NOT SWAP1 SHL NOT AND OR SWAP1 SSTORE CALLER PUSH1 0x0 MSTORE PUSH1 0x7 DUP9 MSTORE PUSH1 0x2 PUSH1 0x40 PUSH1 0x0 KECCAK256 ADD PUSH2 0x5CC DUP2 SLOAD PUSH2 0x23CD JUMP JUMPDEST SWAP1 SSTORE SLOAD SWAP5 PUSH2 0x5DD PUSH1 0x40 MLOAD DUP1 SWAP5 PUSH2 0x2036 JUMP JUMPDEST PUSH1 0x60 DUP9 DUP5 ADD MSTORE PUSH1 0x60 DUP4 ADD SWAP1 PUSH2 0x2043 JUMP JUMPDEST SWAP4 PUSH1 0x40 DUP3 ADD MSTORE DUP1 CALLER SWAP5 SUB SWAP1 LOG3 PUSH1 0x40 MLOAD SWAP1 DUP2 MSTORE RETURN JUMPDEST PUSH4 0x4E487B71 PUSH1 0xE0 SHL PUSH1 0x0 SWAP1 DUP2 MSTORE PUSH1 0x41 PUSH1 0x4 MSTORE REVERT JUMPDEST DUP4 PUSH4 0x4E487B71 PUSH1 0xE0 SHL PUSH1 0x0 MSTORE PUSH1 0x11 PUSH1 0x4 MSTORE PUSH1 0x0 REVERT JUMPDEST DUP3 PUSH4 0x4E487B71 PUSH1 0xE0 SHL PUSH1 0x0 MSTORE PUSH1 0x11 PUSH1 0x4 MSTORE PUSH1 0x0 REVERT JUMPDEST PUSH3 0x93A80 TIMESTAMP ADD DUP1 TIMESTAMP GT PUSH2 0x62A JUMPI PUSH1 0x6 DUP6 ADD SSTORE PUSH2 0x513 JUMP JUMPDEST ADD MLOAD SWAP1 POP DUP12 DUP1 PUSH2 0x4E0 JUMP JUMPDEST PUSH1 0x0 DUP6 DUP2 MSTORE DUP14 DUP2 KECCAK256 DUP8 SWAP6 POP SWAP3 SWAP2 SWAP1 PUSH1 0x1F NOT DUP6 AND SWAP1 DUP16 JUMPDEST DUP3 DUP3 LT PUSH2 0x6AC JUMPI POP POP DUP5 GT PUSH2 0x694 JUMPI JUMPDEST POP POP POP DUP2 SHL ADD SWAP1 SSTORE PUSH2 0x4F2 JUMP JUMPDEST ADD MLOAD PUSH1 0x0 NOT DUP4 DUP10 SHL PUSH1 0xF8 AND SHR NOT AND SWAP1 SSTORE DUP12 DUP1 DUP1 PUSH2 0x687 JUMP JUMPDEST DUP5 DUP5 ADD MLOAD DUP7 SSTORE DUP10 SWAP8 SWAP1 SWAP6 ADD SWAP5 SWAP4 DUP5 ADD SWAP4 SWAP1 DUP2 ADD SWAP1 PUSH2 0x677 JUMP JUMPDEST DUP5 PUSH4 0x4E487B71 PUSH1 0xE0 SHL PUSH1 0x0 MSTORE PUSH1 0x41 PUSH1 0x4 MSTORE PUSH1 0x0 REVERT JUMPDEST ADD MLOAD SWAP1 POP DUP14 DUP1 PUSH2 0x495 JUMP JUMPDEST SWAP2 SWAP1 DUP9 SWAP5 POP PUSH1 0x1F NOT DUP5 AND DUP7 PUSH1 0x0 MSTORE DUP4 PUSH1 0x0 KECCAK256 SWAP4 PUSH1 0x0 SWAP1 JUMPDEST DUP3 DUP3 LT PUSH2 0x731 JUMPI POP POP DUP5 GT PUSH2 0x719 JUMPI JUMPDEST POP POP POP DUP2 SHL ADD SWAP1 SSTORE PUSH2 0x4A7 JUMP JUMPDEST ADD MLOAD PUSH1 0x0 NOT DUP4 DUP12 SHL PUSH1 0xF8 AND SHR NOT AND SWAP1 SSTORE DUP14 DUP1 DUP1 PUSH2 0x70C JUMP JUMPDEST DUP5 DUP5 ADD MLOAD DUP7 SSTORE DUP12 SWAP8 SWAP1 SWAP6 ADD SWAP5 SWAP4 DUP5 ADD SWAP4 SWAP1 DUP2 ADD SWAP1 PUSH2 0x6FC JUMP JUMPDEST DUP6 PUSH4 0x4E487B71 PUSH1 0xE0 SHL PUSH1 0x0 MSTORE PUSH1 0x41 PUSH1 0x4 MSTORE PUSH1 0x0 REVERT JUMPDEST SWAP1 POP DUP12 ADD MLOAD DUP15 PUSH2 0x44C JUMP JUMPDEST SWAP1 DUP9 SWAP4 POP DUP5 PUSH1 0x0 MSTORE DUP14 DUP3 PUSH1 0x0 KECCAK256 SWAP3 PUSH1 0x0 SWAP1 PUSH1 0x1F NOT DUP7 AND SWAP3 JUMPDEST DUP4 DUP4 LT PUSH2 0x7B7 JUMPI POP POP POP DUP4 GT PUSH2 0x79F JUMPI JUMPDEST POP POP DUP2 SHL ADD SWAP1 SSTORE PUSH2 0x45D JUMP JUMPDEST DUP14 ADD MLOAD PUSH1 0x0 NOT DUP4 DUP13 SHL PUSH1 0xF8 AND SHR NOT AND SWAP1 SSTORE DUP15 DUP1 PUSH2 0x793 JUMP JUMPDEST SWAP7 DUP2 SWAP4 SWAP5 SWAP7 SWAP8 SWAP6 DUP8 DUP4 SWAP5 SWAP8 ADD MLOAD DUP2 SSTORE ADD SWAP6 ADD SWAP4 ADD DUP16 SWAP2 DUP12 SWAP7 SWAP6 SWAP5 SWAP4 SWAP3 PUSH2 0x782 JUMP JUMPDEST PUSH1 0x0 DUP1 MLOAD PUSH1 0x20 PUSH2 0x28BE DUP4 CODECOPY DUP2 MLOAD SWAP2 MSTORE PUSH1 0x0 MSTORE PUSH1 0x0 DUP8 MSTORE PUSH1 0x40 PUSH1 0x0 KECCAK256 CALLER PUSH1 0x0 MSTORE DUP8 MSTORE PUSH1 0xFF PUSH1 0x40 PUSH1 0x0 KECCAK256 SLOAD AND PUSH2 0x3C1 JUMPI DUP7 PUSH1 0x32 PUSH1 0x84 SWAP3 PUSH1 0x40 MLOAD SWAP3 PUSH3 0x461BCD PUSH1 0xE5 SHL DUP5 MSTORE PUSH1 0x4 DUP5 ADD MSTORE DUP3 ADD MSTORE PUSH32 0x4F6E6C7920477561726469616E204E6F6465732063616E206372656174652065 PUSH1 0x44 DUP3 ADD MSTORE PUSH18 0x6D657267656E63792070726F706F73616C73 PUSH1 0x70 SHL PUSH1 0x64 DUP3 ADD MSTORE REVERT JUMPDEST DUP7 PUSH1 0x22 PUSH1 0x84 SWAP3 PUSH1 0x40 MLOAD SWAP3 PUSH3 0x461BCD PUSH1 0xE5 SHL DUP5 MSTORE PUSH1 0x4 DUP5 ADD MSTORE DUP3 ADD MSTORE PUSH32 0x496E73756666696369656E742072657075746174696F6E20746F2070726F706F PUSH1 0x44 DUP3 ADD MSTORE PUSH2 0x7365 PUSH1 0xF0 SHL PUSH1 0x64 DUP3 ADD MSTORE REVERT JUMPDEST POP PUSH1 0x7 DUP8 MSTORE PUSH1 0x19 PUSH1 0x40 PUSH1 0x0 KECCAK256 SLOAD LT ISZERO PUSH2 0x3B3 JUMP JUMPDEST CALLVALUE PUSH2 0x208 JUMPI PUSH1 0x0 CALLDATASIZE PUSH1 0x3 NOT ADD SLT PUSH2 0x208 JUMPI PUSH1 0x20 PUSH1 0x40 MLOAD PUSH3 0x3F480 DUP2 MSTORE RETURN JUMPDEST CALLVALUE PUSH2 0x208 JUMPI PUSH1 0x20 CALLDATASIZE PUSH1 0x3 NOT ADD SLT PUSH2 0x208 JUMPI PUSH2 0x8FD PUSH2 0x2090 JUMP JUMPDEST PUSH2 0x908 ADDRESS CALLER EQ PUSH2 0x287B JUMP JUMPDEST PUSH2 0x911 DUP2 PUSH2 0x22D1 JUMP JUMPDEST POP PUSH1 0x1 PUSH1 0x1 PUSH1 0xA0 SHL SUB AND PUSH32 0x4B250D0D037D96D260FCE856F0A0F99EEFE230E4A50A92B18CAFE4D925965203 PUSH1 0x0 DUP1 LOG2 STOP JUMPDEST CALLVALUE PUSH2 0x208 JUMPI PUSH1 0x20 CALLDATASIZE PUSH1 0x3 NOT ADD SLT PUSH2 0x208 JUMPI PUSH1 0x4 CALLDATALOAD PUSH1 0x0 MSTORE PUSH1 0x6 PUSH1 0x20 MSTORE PUSH1 0xFF PUSH1 0x20 PUSH1 0x40 PUSH1 0x0 KECCAK256 PUSH2 0xA31 PUSH1 0x1 DUP3 ADD SLOAD PUSH1 0x5 DUP4 ADD SLOAD SWAP3 PUSH1 0x6 DUP2 ADD SLOAD PUSH1 0x8 DUP3 ADD SLOAD PUSH1 0x9 DUP4 ADD SLOAD SWAP2 PUSH2 0xA0B PUSH1 0x3 PUSH2 0x9FD PUSH1 0xA DUP8 ADD SLOAD SWAP7 PUSH2 0x9EB DUP14 PUSH1 0xC DUP4 ADD SLOAD AND SWAP10 PUSH2 0x9CD PUSH1 0x40 MLOAD SWAP4 PUSH2 0x9BD DUP6 PUSH2 0x9B6 DUP2 PUSH1 0x2 DUP6 ADD PUSH2 0x1F62 JUMP JUMPDEST SUB DUP7 PUSH2 0x2014 JUMP JUMPDEST PUSH2 0x9B6 PUSH1 0x40 MLOAD DUP1 SWAP9 DUP2 SWAP4 ADD PUSH2 0x1F62 JUMP JUMPDEST PUSH1 0x40 MLOAD PUSH1 0x1 PUSH1 0x1 PUSH1 0xA0 SHL SUB DUP3 AND DUP2 MSTORE SWAP15 DUP16 SWAP15 DUP16 ADD SWAP2 PUSH1 0xA0 SHR AND PUSH2 0x2036 JUMP JUMPDEST PUSH2 0x140 PUSH1 0x40 DUP14 ADD DUP2 SWAP1 MSTORE DUP13 ADD SWAP1 PUSH2 0x2043 JUMP JUMPDEST SWAP1 DUP11 DUP3 SUB PUSH1 0x60 DUP13 ADD MSTORE PUSH2 0x2043 JUMP JUMPDEST SWAP7 PUSH1 0x80 DUP10 ADD MSTORE PUSH1 0xA0 DUP9 ADD MSTORE PUSH1 0xC0 DUP8 ADD MSTORE PUSH1 0xE0 DUP7 ADD MSTORE PUSH2 0x100 DUP6 ADD MSTORE PUSH2 0x120 DUP5 ADD SWAP1 PUSH2 0x2083 JUMP JUMPDEST SUB SWAP1 RETURN JUMPDEST CALLVALUE PUSH2 0x208 JUMPI PUSH1 0x20 CALLDATASIZE PUSH1 0x3 NOT ADD SLT PUSH2 0x208 JUMPI PUSH1 0x1 PUSH1 0x1 PUSH1 0xA0 SHL SUB PUSH2 0xA56 PUSH2 0x2090 JUMP JUMPDEST AND PUSH1 0x0 MSTORE PUSH1 0xA PUSH1 0x20 MSTORE PUSH1 0x20 PUSH1 0x40 PUSH1 0x0 KECCAK256 SLOAD PUSH1 0x40 MLOAD SWAP1 DUP2 MSTORE RETURN JUMPDEST PUSH2 0x20EA JUMP JUMPDEST CALLVALUE PUSH2 0x208 JUMPI PUSH1 0x20 CALLDATASIZE PUSH1 0x3 NOT ADD SLT PUSH2 0x208 JUMPI PUSH1 0x1 PUSH1 0x1 PUSH1 0xA0 SHL SUB PUSH2 0xA95 PUSH2 0x2090 JUMP JUMPDEST AND PUSH1 0x0 MSTORE PUSH1 0x7 PUSH1 0x20 MSTORE PUSH1 0xC0 PUSH1 0x40 PUSH1 0x0 KECCAK256 DUP1 SLOAD SWAP1 PUSH1 0x1 DUP2 ADD SLOAD SWAP1 PUSH1 0x2 DUP2 ADD SLOAD PUSH1 0x3 DUP3 ADD SLOAD SWAP1 PUSH1 0xFF PUSH1 0x5 PUSH1 0x4 DUP6 ADD SLOAD SWAP5 ADD SLOAD AND SWAP4 PUSH1 0x40 MLOAD SWAP6 DUP7 MSTORE PUSH1 0x20 DUP7 ADD MSTORE PUSH1 0x40 DUP6 ADD MSTORE PUSH1 0x60 DUP5 ADD MSTORE PUSH1 0x80 DUP4 ADD MSTORE ISZERO ISZERO PUSH1 0xA0 DUP3 ADD MSTORE RETURN JUMPDEST CALLVALUE PUSH2 0x208 JUMPI PUSH1 0x0 CALLDATASIZE PUSH1 0x3 NOT ADD SLT PUSH2 0x208 JUMPI PUSH1 0x20 PUSH1 0x40 MLOAD PUSH1 0x0 DUP2 MSTORE RETURN JUMPDEST CALLVALUE PUSH2 0x208 JUMPI PUSH1 0x20 CALLDATASIZE PUSH1 0x3 NOT ADD SLT PUSH2 0x208 JUMPI PUSH2 0xB1F PUSH2 0x2090 JUMP JUMPDEST PUSH2 0xB2A ADDRESS CALLER EQ PUSH2 0x287B JUMP JUMPDEST PUSH2 0xB33 DUP2 PUSH2 0x21CA JUMP JUMPDEST POP PUSH1 0x1 PUSH1 0x1 PUSH1 0xA0 SHL SUB AND PUSH32 0x102C453D9E8AE0F4A100AE76ACD60B1D646497DC82BCFF786CDF4BDE002BD3C9 PUSH1 0x0 DUP1 LOG2 STOP JUMPDEST CALLVALUE PUSH2 0x208 JUMPI PUSH1 0x40 CALLDATASIZE PUSH1 0x3 NOT ADD SLT PUSH2 0x208 JUMPI PUSH2 0xB7D PUSH2 0x20A6 JUMP JUMPDEST PUSH1 0x4 CALLDATALOAD PUSH1 0x0 MSTORE PUSH1 0x0 PUSH1 0x20 MSTORE PUSH1 0x40 PUSH1 0x0 KECCAK256 SWAP1 PUSH1 0x1 DUP1 PUSH1 0xA0 SHL SUB AND PUSH1 0x0 MSTORE PUSH1 0x20 MSTORE PUSH1 0x20 PUSH1 0xFF PUSH1 0x40 PUSH1 0x0 KECCAK256 SLOAD AND PUSH1 0x40 MLOAD SWAP1 ISZERO ISZERO DUP2 MSTORE RETURN JUMPDEST CALLVALUE PUSH2 0x208 JUMPI PUSH1 0x0 CALLDATASIZE PUSH1 0x3 NOT ADD SLT PUSH2 0x208 JUMPI PUSH1 0x20 PUSH1 0x40 MLOAD PUSH32 0xB09AA5AEB3702CFD50B6B62BC4532604938F21248A27A1D5CA736082B6819CC1 DUP2 MSTORE RETURN JUMPDEST CALLVALUE PUSH2 0x208 JUMPI PUSH1 0x0 CALLDATASIZE PUSH1 0x3 NOT ADD SLT PUSH2 0x208 JUMPI CALLER PUSH1 0x0 SWAP1 DUP2 MSTORE PUSH1 0x0 DUP1 MLOAD PUSH1 0x20 PUSH2 0x28FE DUP4 CODECOPY DUP2 MLOAD SWAP2 MSTORE PUSH1 0x20 MSTORE PUSH1 0x40 SWAP1 KECCAK256 SLOAD PUSH2 0xC26 SWAP1 PUSH1 0xFF AND PUSH2 0x26F8 JUMP JUMPDEST PUSH2 0xC2E PUSH2 0x243D JUMP JUMPDEST PUSH1 0x1 PUSH1 0xFF NOT PUSH1 0x2 SLOAD AND OR PUSH1 0x2 SSTORE PUSH32 0x62E78CEA01BEE320CD4E420270B5EA74000D11B0C9F74754EBDBFC544B05A258 PUSH1 0x20 PUSH1 0x40 MLOAD CALLER DUP2 MSTORE LOG1 STOP JUMPDEST CALLVALUE PUSH2 0x208 JUMPI PUSH1 0x60 CALLDATASIZE PUSH1 0x3 NOT ADD SLT PUSH2 0x208 JUMPI PUSH2 0xC80 PUSH2 0x2090 JUMP JUMPDEST PUSH1 0x24 CALLDATALOAD SWAP1 PUSH1 0x44 CALLDATALOAD PUSH8 0xFFFFFFFFFFFFFFFF DUP2 GT PUSH2 0x208 JUMPI PUSH2 0xCA4 SWAP1 CALLDATASIZE SWAP1 PUSH1 0x4 ADD PUSH2 0x2168 JUMP JUMPDEST CALLER PUSH1 0x0 SWAP1 DUP2 MSTORE PUSH1 0x0 DUP1 MLOAD PUSH1 0x20 PUSH2 0x28FE DUP4 CODECOPY DUP2 MLOAD SWAP2 MSTORE PUSH1 0x20 SWAP1 DUP2 MSTORE PUSH1 0x40 SWAP1 SWAP2 KECCAK256 SLOAD SWAP2 SWAP3 SWAP1 SWAP2 PUSH2 0xCD4 SWAP1 PUSH1 0xFF AND PUSH2 0x26F8 JUMP JUMPDEST PUSH1 0x1 PUSH1 0x1 PUSH1 0xA0 SHL SUB AND PUSH1 0x0 DUP2 DUP2 MSTORE PUSH1 0x7 DUP1 DUP5 MSTORE PUSH1 0x40 DUP3 KECCAK256 SLOAD SWAP3 SWAP6 SWAP1 SWAP5 SWAP2 DUP2 SGT ISZERO PUSH2 0xD75 JUMPI SWAP1 PUSH1 0x0 DUP1 MLOAD PUSH1 0x20 PUSH2 0x28DE DUP4 CODECOPY DUP2 MLOAD SWAP2 MSTORE SWAP5 PUSH2 0xD66 SWAP3 DUP8 PUSH1 0x0 MSTORE DUP2 DUP7 MSTORE PUSH2 0xD24 PUSH1 0x40 PUSH1 0x0 KECCAK256 SWAP2 DUP3 SLOAD PUSH2 0x2430 JUMP JUMPDEST SWAP1 SSTORE DUP7 PUSH1 0x0 MSTORE DUP1 DUP6 MSTORE PUSH1 0x40 PUSH1 0x0 KECCAK256 PUSH1 0x64 DUP2 SLOAD GT PUSH2 0xD6B JUMPI JUMPDEST POP JUMPDEST DUP7 PUSH1 0x0 MSTORE DUP5 MSTORE PUSH1 0x40 PUSH1 0x0 KECCAK256 SLOAD PUSH1 0x40 MLOAD SWAP5 DUP6 SWAP5 DUP6 MSTORE DUP5 ADD MSTORE PUSH1 0x60 PUSH1 0x40 DUP5 ADD MSTORE PUSH1 0x60 DUP4 ADD SWAP1 PUSH2 0x2043 JUMP JUMPDEST SUB SWAP1 LOG2 STOP JUMPDEST PUSH1 0x64 SWAP1 SSTORE DUP8 PUSH2 0xD3C JUMP JUMPDEST PUSH1 0x1 PUSH1 0xFF SHL DUP2 EQ PUSH2 0xDEC JUMPI DUP6 PUSH1 0x0 MSTORE DUP5 DUP5 MSTORE PUSH1 0x40 PUSH1 0x0 KECCAK256 DUP1 SLOAD SWAP2 DUP1 PUSH1 0x0 SUB DUP4 LT PUSH1 0x0 EQ PUSH2 0xDC6 JUMPI POP POP POP PUSH2 0xD66 SWAP1 PUSH1 0x0 DUP1 MLOAD PUSH1 0x20 PUSH2 0x28DE DUP4 CODECOPY DUP2 MLOAD SWAP2 MSTORE SWAP5 DUP7 PUSH1 0x0 MSTORE DUP1 DUP6 MSTORE PUSH1 0x0 PUSH1 0x40 DUP2 KECCAK256 SSTORE PUSH2 0xD3E JUMP JUMPDEST DUP3 ADD SWAP6 SWAP1 SWAP3 SWAP2 DUP7 GT PUSH2 0xDEC JUMPI PUSH1 0x0 DUP1 MLOAD PUSH1 0x20 PUSH2 0x28DE DUP4 CODECOPY DUP2 MLOAD SWAP2 MSTORE SWAP6 PUSH2 0xD66 SWAP4 SSTORE PUSH2 0xD3E JUMP JUMPDEST PUSH4 0x4E487B71 PUSH1 0xE0 SHL PUSH1 0x0 MSTORE PUSH1 0x11 PUSH1 0x4 MSTORE PUSH1 0x24 PUSH1 0x0 REVERT JUMPDEST CALLVALUE PUSH2 0x208 JUMPI PUSH1 0x20 DUP1 PUSH1 0x3 NOT CALLDATASIZE ADD SLT PUSH2 0x208 JUMPI PUSH1 0x1 PUSH1 0x1 PUSH1 0xA0 SHL SUB PUSH2 0xE24 PUSH2 0x2090 JUMP JUMPDEST AND PUSH1 0x0 MSTORE PUSH1 0x9 DUP2 MSTORE PUSH1 0x40 PUSH1 0x0 KECCAK256 PUSH1 0x40 MLOAD SWAP1 DUP2 DUP4 DUP3 SLOAD SWAP2 DUP3 DUP2 MSTORE ADD SWAP1 DUP2 SWAP3 PUSH1 0x0 MSTORE DUP5 PUSH1 0x0 KECCAK256 SWAP1 PUSH1 0x0 JUMPDEST DUP7 DUP3 DUP3 LT PUSH2 0xEA2 JUMPI DUP7 DUP7 PUSH2 0xE62 DUP3 DUP9 SUB DUP4 PUSH2 0x2014 JUMP JUMPDEST PUSH1 0x40 MLOAD SWAP3 DUP4 SWAP3 DUP2 DUP5 ADD SWAP1 DUP3 DUP6 MSTORE MLOAD DUP1 SWAP2 MSTORE PUSH1 0x40 DUP5 ADD SWAP3 SWAP2 PUSH1 0x0 JUMPDEST DUP3 DUP2 LT PUSH2 0xE8B JUMPI POP POP POP POP SUB SWAP1 RETURN JUMPDEST DUP4 MLOAD DUP6 MSTORE DUP7 SWAP6 POP SWAP4 DUP2 ADD SWAP4 SWAP3 DUP2 ADD SWAP3 PUSH1 0x1 ADD PUSH2 0xE7C JUMP JUMPDEST DUP4 SLOAD DUP6 MSTORE SWAP1 SWAP4 ADD SWAP3 PUSH1 0x1 SWAP3 DUP4 ADD SWAP3 ADD PUSH2 0xE4C JUMP JUMPDEST PUSH1 0x0 CALLDATASIZE PUSH1 0x3 NOT ADD SLT PUSH2 0x208 JUMPI PUSH2 0x23 PUSH2 0x283E JUMP JUMPDEST CALLVALUE PUSH2 0x208 JUMPI PUSH1 0x40 CALLDATASIZE PUSH1 0x3 NOT ADD SLT PUSH2 0x208 JUMPI PUSH1 0x4 CALLDATALOAD PUSH1 0x24 CALLDATALOAD PUSH8 0xFFFFFFFFFFFFFFFF DUP2 GT PUSH2 0x208 JUMPI PUSH2 0xEFE SWAP1 CALLDATASIZE SWAP1 PUSH1 0x4 ADD PUSH2 0x2168 JUMP JUMPDEST CALLER PUSH1 0x0 SWAP1 DUP2 MSTORE PUSH1 0x0 DUP1 MLOAD PUSH1 0x20 PUSH2 0x28FE DUP4 CODECOPY DUP2 MLOAD SWAP2 MSTORE PUSH1 0x20 SWAP1 DUP2 MSTORE PUSH1 0x40 SWAP1 SWAP2 KECCAK256 SLOAD SWAP1 SWAP3 SWAP2 SWAP1 PUSH1 0xFF AND ISZERO PUSH2 0x104A JUMPI DUP2 PUSH1 0x0 MSTORE PUSH1 0x6 DUP4 MSTORE PUSH1 0x40 PUSH1 0x0 KECCAK256 PUSH1 0xC DUP2 ADD SWAP1 DUP2 SLOAD SWAP1 PUSH1 0xFF DUP3 AND PUSH1 0x7 DUP2 LT ISZERO PUSH2 0x1034 JUMPI PUSH1 0x2 SUB PUSH2 0xFE5 JUMPI PUSH1 0x7 ADD SLOAD TIMESTAMP LT ISZERO PUSH2 0xFA7 JUMPI PUSH2 0xFFFF NOT AND PUSH2 0x105 OR SWAP1 SSTORE PUSH1 0x40 MLOAD DUP4 DUP2 MSTORE CALLER SWAP4 PUSH32 0x35A5DF1B20F98186765F8FC3788938661B781D22789ABADF13A6ECA122074AF8 SWAP3 DUP3 SWAP2 PUSH2 0xFA2 SWAP2 SWAP1 DUP4 ADD SWAP1 PUSH2 0x2043 JUMP JUMPDEST SUB SWAP1 LOG3 STOP JUMPDEST PUSH1 0x40 MLOAD PUSH3 0x461BCD PUSH1 0xE5 SHL DUP2 MSTORE PUSH1 0x4 DUP2 ADD DUP7 SWAP1 MSTORE PUSH1 0x16 PUSH1 0x24 DUP3 ADD MSTORE PUSH22 0x115E1958DD5D1A5BDB8819195B185E481C185CDCD959 PUSH1 0x52 SHL PUSH1 0x44 DUP3 ADD MSTORE PUSH1 0x64 SWAP1 REVERT JUMPDEST PUSH1 0x40 MLOAD PUSH3 0x461BCD PUSH1 0xE5 SHL DUP2 MSTORE PUSH1 0x4 DUP2 ADD DUP8 SWAP1 MSTORE PUSH1 0x21 PUSH1 0x24 DUP3 ADD MSTORE PUSH32 0x43616E206F6E6C79207665746F207375636365656465642070726F706F73616C PUSH1 0x44 DUP3 ADD MSTORE PUSH1 0x73 PUSH1 0xF8 SHL PUSH1 0x64 DUP3 ADD MSTORE PUSH1 0x84 SWAP1 REVERT JUMPDEST PUSH4 0x4E487B71 PUSH1 0xE0 SHL PUSH1 0x0 MSTORE PUSH1 0x21 PUSH1 0x4 MSTORE PUSH1 0x24 PUSH1 0x0 REVERT JUMPDEST PUSH1 0x40 MLOAD PUSH3 0x461BCD PUSH1 0xE5 SHL DUP2 MSTORE PUSH1 0x4 DUP2 ADD DUP5 SWAP1 MSTORE PUSH1 0x1C PUSH1 0x24 DUP3 ADD MSTORE PUSH32 0x4F6E6C7920477561726469616E204E6F6465732063616E207665746F00000000 PUSH1 0x44 DUP3 ADD MSTORE PUSH1 0x64 SWAP1 REVERT JUMPDEST CALLVALUE PUSH2 0x208 JUMPI PUSH1 0x0 CALLDATASIZE PUSH1 0x3 NOT ADD SLT PUSH2 0x208 JUMPI PUSH1 0x20 PUSH1 0x5 SLOAD PUSH1 0x40 MLOAD SWAP1 DUP2 MSTORE RETURN JUMPDEST CALLVALUE PUSH2 0x208 JUMPI PUSH1 0x0 CALLDATASIZE PUSH1 0x3 NOT ADD SLT PUSH2 0x208 JUMPI PUSH1 0x20 PUSH1 0xFF PUSH1 0x2 SLOAD AND PUSH1 0x40 MLOAD SWAP1 ISZERO ISZERO DUP2 MSTORE RETURN JUMPDEST CALLVALUE PUSH2 0x208 JUMPI PUSH1 0x0 CALLDATASIZE PUSH1 0x3 NOT ADD SLT PUSH2 0x208 JUMPI PUSH1 0x20 PUSH1 0x40 MLOAD PUSH1 0x0 DUP1 MLOAD PUSH1 0x20 PUSH2 0x28BE DUP4 CODECOPY DUP2 MLOAD SWAP2 MSTORE DUP2 MSTORE RETURN JUMPDEST CALLVALUE PUSH2 0x208 JUMPI PUSH1 0x40 CALLDATASIZE PUSH1 0x3 NOT ADD SLT PUSH2 0x208 JUMPI PUSH1 0x24 CALLDATALOAD PUSH1 0x4 CALLDATALOAD PUSH1 0x3 DUP3 LT ISZERO PUSH2 0x208 JUMPI PUSH2 0x1121 PUSH2 0x243D JUMP JUMPDEST DUP1 PUSH1 0x0 MSTORE PUSH1 0x20 PUSH1 0x6 DUP2 MSTORE PUSH1 0x40 PUSH1 0x0 KECCAK256 SWAP1 PUSH1 0xFF PUSH1 0xC DUP4 ADD SLOAD AND PUSH1 0x7 DUP2 LT ISZERO PUSH2 0x1034 JUMPI PUSH1 0x1 PUSH2 0x114E SWAP2 EQ PUSH2 0x245B JUMP JUMPDEST PUSH2 0x115E PUSH1 0x6 DUP4 ADD SLOAD TIMESTAMP GT ISZERO PUSH2 0x249D JUMP JUMPDEST PUSH1 0xD DUP3 ADD SWAP2 CALLER PUSH1 0x0 MSTORE DUP3 DUP3 MSTORE PUSH1 0xFF PUSH1 0x40 PUSH1 0x0 KECCAK256 SLOAD AND PUSH2 0x12FE JUMPI PUSH1 0xFF PUSH1 0x1 DUP3 ADD SLOAD PUSH1 0xA0 SHR AND PUSH1 0x5 DUP2 LT ISZERO PUSH2 0x1034 JUMPI PUSH1 0x2 DUP2 EQ SWAP1 DUP2 ISZERO PUSH2 0x12F3 JUMPI JUMPDEST POP PUSH2 0x1286 JUMPI JUMPDEST PUSH2 0x11A6 CALLER PUSH2 0x273A JUMP JUMPDEST SWAP3 CALLER PUSH1 0x0 MSTORE DUP3 MSTORE PUSH1 0x40 PUSH1 0x0 KECCAK256 PUSH1 0xFF NOT SWAP1 PUSH1 0x1 DUP3 DUP3 SLOAD AND OR SWAP1 SSTORE PUSH1 0xE DUP3 ADD DUP4 MSTORE PUSH1 0x40 PUSH1 0x0 KECCAK256 SWAP1 DUP2 SLOAD AND PUSH1 0xFF DUP8 AND OR SWAP1 SSTORE PUSH1 0x1 DUP6 EQ PUSH1 0x0 EQ PUSH2 0x125E JUMPI PUSH1 0x8 ADD PUSH2 0x11EE DUP4 DUP3 SLOAD PUSH2 0x2430 JUMP JUMPDEST SWAP1 SSTORE JUMPDEST CALLER PUSH1 0x0 MSTORE PUSH1 0x7 DUP2 MSTORE PUSH1 0x3 PUSH1 0x40 PUSH1 0x0 KECCAK256 ADD PUSH2 0x120B DUP2 SLOAD PUSH2 0x23CD JUMP JUMPDEST SWAP1 SSTORE CALLER PUSH1 0x0 MSTORE PUSH1 0x7 DUP2 MSTORE TIMESTAMP PUSH1 0x4 PUSH1 0x40 PUSH1 0x0 KECCAK256 ADD SSTORE PUSH2 0x122C PUSH1 0x40 MLOAD DUP1 SWAP6 PUSH2 0x2108 JUMP JUMPDEST DUP4 ADD MSTORE PUSH1 0x0 PUSH1 0x40 DUP4 ADD MSTORE PUSH32 0x160D05298D5A9B038E9B621B76845708785D8C81A740CB7838B76D45220746CE PUSH1 0x60 CALLER SWAP4 LOG3 STOP JUMPDEST DUP5 PUSH2 0x1278 JUMPI PUSH1 0x9 ADD PUSH2 0x1271 DUP4 DUP3 SLOAD PUSH2 0x2430 JUMP JUMPDEST SWAP1 SSTORE PUSH2 0x11F1 JUMP JUMPDEST PUSH1 0xA ADD PUSH2 0x1271 DUP4 DUP3 SLOAD PUSH2 0x2430 JUMP JUMPDEST CALLER PUSH1 0x0 MSTORE PUSH1 0x7 DUP3 MSTORE PUSH1 0x32 PUSH1 0x40 PUSH1 0x0 KECCAK256 SLOAD LT ISZERO PUSH2 0x119D JUMPI PUSH1 0x40 MLOAD PUSH3 0x461BCD PUSH1 0xE5 SHL DUP2 MSTORE PUSH1 0x4 DUP2 ADD DUP4 SWAP1 MSTORE PUSH1 0x29 PUSH1 0x24 DUP3 ADD MSTORE PUSH32 0x496E73756666696369656E742072657075746174696F6E20666F722063726974 PUSH1 0x44 DUP3 ADD MSTORE PUSH9 0x6963616C20766F7465 PUSH1 0xB8 SHL PUSH1 0x64 DUP3 ADD MSTORE PUSH1 0x84 SWAP1 REVERT JUMPDEST PUSH1 0x3 SWAP2 POP EQ DUP7 PUSH2 0x1197 JUMP JUMPDEST PUSH1 0x40 MLOAD PUSH3 0x461BCD PUSH1 0xE5 SHL DUP2 MSTORE PUSH1 0x4 DUP2 ADD DUP4 SWAP1 MSTORE PUSH1 0xD PUSH1 0x24 DUP3 ADD MSTORE PUSH13 0x105B1C9958591E481D9BDD1959 PUSH1 0x9A SHL PUSH1 0x44 DUP3 ADD MSTORE PUSH1 0x64 SWAP1 REVERT JUMPDEST CALLVALUE PUSH2 0x208 JUMPI PUSH1 0x20 CALLDATASIZE PUSH1 0x3 NOT ADD SLT PUSH2 0x208 JUMPI PUSH2 0x23 PUSH1 0x4 CALLDATALOAD PUSH2 0x24F0 JUMP JUMPDEST CALLVALUE PUSH2 0x208 JUMPI PUSH1 0x40 CALLDATASIZE PUSH1 0x3 NOT ADD SLT PUSH2 0x208 JUMPI PUSH1 0x4 CALLDATALOAD PUSH1 0x0 MSTORE PUSH1 0x8 PUSH1 0x20 MSTORE PUSH1 0x40 PUSH1 0x0 KECCAK256 PUSH1 0x24 CALLDATALOAD PUSH1 0x0 MSTORE PUSH1 0x20 MSTORE PUSH1 0xC0 PUSH1 0x40 PUSH1 0x0 KECCAK256 PUSH2 0x13DA PUSH1 0x1 DUP1 PUSH1 0xA0 SHL SUB SWAP2 DUP3 DUP2 SLOAD AND SWAP3 DUP1 PUSH1 0x1 DUP4 ADD SLOAD AND SWAP2 PUSH1 0x3 DUP3 PUSH1 0x2 DUP4 ADD SLOAD AND SWAP2 ADD SLOAD SWAP3 PUSH1 0x40 MLOAD SWAP6 DUP7 MSTORE PUSH1 0x20 DUP7 ADD MSTORE PUSH1 0x40 DUP6 ADD MSTORE DUP2 AND PUSH1 0x60 DUP5 ADD MSTORE PUSH1 0xFF DUP2 PUSH1 0xA0 SHR AND ISZERO ISZERO PUSH1 0x80 DUP5 ADD MSTORE PUSH1 0xFF PUSH1 0xA0 DUP5 ADD SWAP2 PUSH1 0xA8 SHR AND PUSH2 0x2108 JUMP JUMPDEST RETURN JUMPDEST CALLVALUE PUSH2 0x208 JUMPI PUSH1 0x40 CALLDATASIZE PUSH1 0x3 NOT ADD SLT PUSH2 0x208 JUMPI PUSH2 0x13F5 PUSH2 0x20A6 JUMP JUMPDEST PUSH1 0x4 CALLDATALOAD PUSH1 0x0 MSTORE PUSH1 0x6 PUSH1 0x20 MSTORE PUSH1 0xD PUSH1 0x40 PUSH1 0x0 KECCAK256 ADD SWAP1 PUSH1 0x1 DUP1 PUSH1 0xA0 SHL SUB AND PUSH1 0x0 MSTORE PUSH1 0x20 MSTORE PUSH1 0x20 PUSH1 0xFF PUSH1 0x40 PUSH1 0x0 KECCAK256 SLOAD AND PUSH1 0x40 MLOAD SWAP1 ISZERO ISZERO DUP2 MSTORE RETURN JUMPDEST CALLVALUE PUSH2 0x208 JUMPI PUSH1 0x0 CALLDATASIZE PUSH1 0x3 NOT ADD SLT PUSH2 0x208 JUMPI PUSH1 0x20 PUSH1 0x40 MLOAD PUSH1 0x4 DUP2 MSTORE RETURN JUMPDEST CALLVALUE PUSH2 0x208 JUMPI PUSH1 0x0 CALLDATASIZE PUSH1 0x3 NOT ADD SLT PUSH2 0x208 JUMPI PUSH1 0x20 PUSH1 0x40 MLOAD PUSH1 0x32 DUP2 MSTORE RETURN JUMPDEST CALLVALUE PUSH2 0x208 JUMPI PUSH1 0x0 CALLDATASIZE PUSH1 0x3 NOT ADD SLT PUSH2 0x208 JUMPI CALLER PUSH1 0x0 SWAP1 DUP2 MSTORE PUSH1 0x0 DUP1 MLOAD PUSH1 0x20 PUSH2 0x28FE DUP4 CODECOPY DUP2 MLOAD SWAP2 MSTORE PUSH1 0x20 MSTORE PUSH1 0x40 SWAP1 KECCAK256 SLOAD PUSH2 0x149E SWAP1 PUSH1 0xFF AND PUSH2 0x26F8 JUMP JUMPDEST PUSH1 0x2 SLOAD PUSH1 0xFF DUP2 AND ISZERO PUSH2 0x14DD JUMPI PUSH1 0xFF NOT AND PUSH1 0x2 SSTORE PUSH32 0x5DB9EE0A495BF2E6FF9C91A7834C1BA4FDD244A5E8AA4E537BD38AEAE4B073AA PUSH1 0x20 PUSH1 0x40 MLOAD CALLER DUP2 MSTORE LOG1 STOP JUMPDEST PUSH1 0x40 MLOAD PUSH4 0x8DFC202B PUSH1 0xE0 SHL DUP2 MSTORE PUSH1 0x4 SWAP1 REVERT JUMPDEST CALLVALUE PUSH2 0x208 JUMPI PUSH1 0x40 CALLDATASIZE PUSH1 0x3 NOT ADD SLT PUSH2 0x208 JUMPI PUSH2 0x1508 PUSH2 0x20A6 JUMP JUMPDEST CALLER PUSH1 0x1 PUSH1 0x1 PUSH1 0xA0 SHL SUB DUP3 AND SUB PUSH2 0x1524 JUMPI PUSH2 0x23 SWAP1 PUSH1 0x4 CALLDATALOAD PUSH2 0x2358 JUMP JUMPDEST PUSH1 0x40 MLOAD PUSH4 0x334BD919 PUSH1 0xE1 SHL DUP2 MSTORE PUSH1 0x4 SWAP1 REVERT JUMPDEST CALLVALUE PUSH2 0x208 JUMPI PUSH1 0x0 CALLDATASIZE PUSH1 0x3 NOT ADD SLT PUSH2 0x208 JUMPI PUSH1 0x20 PUSH1 0x4 SLOAD PUSH1 0x40 MLOAD SWAP1 DUP2 MSTORE RETURN JUMPDEST CALLVALUE PUSH2 0x208 JUMPI PUSH1 0x40 CALLDATASIZE PUSH1 0x3 NOT ADD SLT PUSH2 0x208 JUMPI PUSH2 0x23 PUSH1 0x4 CALLDATALOAD PUSH2 0x1573 PUSH2 0x20A6 JUMP JUMPDEST SWAP1 DUP1 PUSH1 0x0 MSTORE PUSH1 0x0 PUSH1 0x20 MSTORE PUSH2 0x158E PUSH1 0x1 PUSH1 0x40 PUSH1 0x0 KECCAK256 ADD SLOAD PUSH2 0x2186 JUMP JUMPDEST PUSH2 0x2258 JUMP JUMPDEST CALLVALUE PUSH2 0x208 JUMPI PUSH1 0xC0 CALLDATASIZE PUSH1 0x3 NOT ADD SLT PUSH2 0x208 JUMPI CALLDATASIZE PUSH1 0x43 SLT ISZERO PUSH2 0x208 JUMPI PUSH1 0x40 MLOAD PUSH8 0xFFFFFFFFFFFFFFFF SWAP1 PUSH1 0x80 DUP2 ADD DUP3 DUP2 GT DUP3 DUP3 LT OR PUSH2 0x1987 JUMPI PUSH1 0x40 MSTORE PUSH1 0xA4 SWAP2 DUP2 CALLDATASIZE DUP5 GT PUSH2 0x208 JUMPI PUSH1 0x24 SWAP1 JUMPDEST DUP5 DUP3 LT PUSH2 0x1A34 JUMPI POP POP PUSH1 0x3 DUP4 CALLDATALOAD LT ISZERO PUSH2 0x208 JUMPI PUSH2 0x15F6 PUSH2 0x243D JUMP JUMPDEST PUSH1 0x4 CALLDATALOAD PUSH1 0x0 MSTORE PUSH1 0x6 PUSH1 0x20 MSTORE PUSH1 0x40 PUSH1 0x0 KECCAK256 SWAP1 PUSH1 0xFF PUSH1 0xC DUP4 ADD SLOAD AND SWAP3 PUSH1 0x7 SWAP4 DUP5 DUP2 LT ISZERO PUSH2 0x1034 JUMPI PUSH1 0x1 PUSH2 0x1627 SWAP2 EQ PUSH2 0x245B JUMP JUMPDEST PUSH2 0x1637 PUSH1 0x6 DUP5 ADD SLOAD TIMESTAMP GT ISZERO PUSH2 0x249D JUMP JUMPDEST PUSH1 0x0 DUP1 JUMPDEST PUSH1 0x4 DUP2 LT PUSH2 0x1A02 JUMPI JUMPDEST POP ISZERO PUSH2 0x19BD JUMPI PUSH1 0x40 MLOAD SWAP2 PUSH1 0x20 DUP4 ADD SWAP1 DUP3 PUSH1 0x0 DUP4 JUMPDEST PUSH1 0x4 DUP3 LT PUSH2 0x199D JUMPI POP POP POP PUSH1 0x80 DUP5 MSTORE DUP4 PUSH1 0xA0 DUP2 ADD LT SWAP1 PUSH1 0xA0 DUP6 ADD GT OR PUSH2 0x1987 JUMPI PUSH1 0xA0 DUP4 ADD PUSH1 0x40 MSTORE DUP3 MLOAD SWAP1 KECCAK256 PUSH1 0x4 CALLDATALOAD PUSH1 0x0 MSTORE PUSH1 0x8 PUSH1 0x20 MSTORE PUSH1 0x40 PUSH1 0x0 KECCAK256 SWAP1 PUSH1 0x0 MSTORE PUSH1 0x20 MSTORE PUSH1 0x40 PUSH1 0x0 KECCAK256 SWAP2 PUSH1 0x1 DUP1 PUSH1 0xA0 SHL SUB DUP3 MLOAD AND PUSH1 0x0 MSTORE PUSH1 0xD DUP5 ADD PUSH1 0x20 MSTORE PUSH1 0xFF PUSH1 0x40 PUSH1 0x0 KECCAK256 SLOAD AND ISZERO DUP1 PUSH2 0x1965 JUMPI JUMPDEST DUP1 PUSH2 0x1945 JUMPI JUMPDEST DUP1 PUSH2 0x1923 JUMPI JUMPDEST ISZERO PUSH2 0x18D2 JUMPI POP PUSH1 0x0 SWAP4 PUSH1 0x0 SWAP1 JUMPDEST PUSH1 0x4 DUP3 LT PUSH2 0x1817 JUMPI POP POP DUP4 PUSH1 0x2 SHL SWAP4 DUP1 DUP6 DIV PUSH1 0x4 EQ SWAP1 ISZERO OR ISZERO PUSH2 0xDEC JUMPI PUSH1 0x0 SWAP3 DUP6 CALLDATALOAD PUSH1 0x1 SUB PUSH2 0x17E6 JUMPI SWAP1 PUSH1 0x8 PUSH1 0x3 SWAP3 ADD PUSH2 0x1718 DUP7 DUP3 SLOAD PUSH2 0x2430 JUMP JUMPDEST SWAP1 SSTORE JUMPDEST DUP1 MLOAD DUP4 SLOAD PUSH1 0x1 PUSH1 0x1 PUSH1 0xA0 SHL SUB NOT SWAP1 DUP2 AND PUSH1 0x1 PUSH1 0x1 PUSH1 0xA0 SHL SUB SWAP3 DUP4 AND OR DUP6 SSTORE PUSH1 0x20 DUP4 ADD MLOAD PUSH1 0x1 DUP7 ADD DUP1 SLOAD DUP4 AND SWAP2 DUP5 AND SWAP2 SWAP1 SWAP2 OR SWAP1 SSTORE PUSH1 0x40 DUP4 ADD MLOAD PUSH1 0x2 DUP7 ADD DUP1 SLOAD SWAP1 SWAP3 AND SWAP1 DUP4 AND OR SWAP1 SSTORE PUSH1 0x60 SWAP1 SWAP2 ADD MLOAD SWAP2 SWAP1 SWAP3 ADD DUP1 SLOAD SWAP1 SWAP4 SWAP2 SWAP1 SWAP3 AND SWAP2 SWAP1 PUSH2 0x1034 JUMPI PUSH1 0x1 PUSH1 0x1 PUSH1 0xB0 SHL SUB NOT AND OR SWAP3 CALLDATALOAD PUSH1 0xA8 DUP2 SWAP1 SHL PUSH1 0xFF PUSH1 0xA8 SHL AND SWAP4 SWAP1 SWAP4 OR PUSH1 0x1 PUSH1 0xA0 SHL OR SWAP1 SSTORE PUSH1 0x40 MLOAD SWAP2 PUSH2 0x17AE SWAP1 DUP4 SWAP1 PUSH2 0x2108 JUMP JUMPDEST PUSH1 0x20 DUP3 ADD MSTORE PUSH1 0x1 PUSH1 0x40 DUP3 ADD MSTORE CALLER SWAP1 PUSH32 0x160D05298D5A9B038E9B621B76845708785D8C81A740CB7838B76D45220746CE PUSH1 0x60 PUSH1 0x4 CALLDATALOAD SWAP3 LOG3 STOP JUMPDEST PUSH1 0x0 SWAP4 POP PUSH1 0x3 SWAP2 SWAP1 DUP7 CALLDATALOAD PUSH2 0x1809 JUMPI PUSH1 0x9 ADD PUSH2 0x1802 DUP7 DUP3 SLOAD PUSH2 0x2430 JUMP JUMPDEST SWAP1 SSTORE PUSH2 0x171B JUMP JUMPDEST PUSH1 0xA ADD PUSH2 0x1802 DUP7 DUP3 SLOAD PUSH2 0x2430 JUMP JUMPDEST SWAP1 SWAP5 PUSH2 0x18CC SWAP1 PUSH2 0x1843 SWAP1 PUSH2 0x183D PUSH1 0x1 PUSH1 0x1 PUSH1 0xA0 SHL SUB PUSH2 0x1836 DUP11 DUP9 PUSH2 0x24DF JUMP JUMPDEST MLOAD AND PUSH2 0x273A JUMP JUMPDEST SWAP1 PUSH2 0x2430 JUMP JUMPDEST SWAP6 PUSH1 0x1 PUSH1 0x1 PUSH1 0xA0 SHL SUB PUSH2 0x1856 DUP3 DUP7 PUSH2 0x24DF JUMP JUMPDEST MLOAD AND PUSH1 0x0 SWAP1 DUP2 MSTORE PUSH1 0xD DUP8 ADD PUSH1 0x20 MSTORE PUSH1 0x40 SWAP1 KECCAK256 DUP1 SLOAD PUSH1 0xFF NOT AND PUSH1 0x1 OR SWAP1 SSTORE PUSH1 0x1 PUSH1 0x1 PUSH1 0xA0 SHL SUB PUSH2 0x1885 DUP3 DUP7 PUSH2 0x24DF JUMP JUMPDEST MLOAD AND PUSH1 0x0 MSTORE DUP3 PUSH1 0x20 MSTORE PUSH1 0x3 PUSH1 0x40 PUSH1 0x0 KECCAK256 ADD PUSH2 0x18A0 DUP2 SLOAD PUSH2 0x23CD JUMP JUMPDEST SWAP1 SSTORE PUSH1 0x1 PUSH1 0x1 PUSH1 0xA0 SHL SUB PUSH2 0x18B4 DUP3 DUP7 PUSH2 0x24DF JUMP JUMPDEST MLOAD AND PUSH1 0x0 MSTORE DUP3 PUSH1 0x20 MSTORE TIMESTAMP PUSH1 0x4 PUSH1 0x40 PUSH1 0x0 KECCAK256 ADD SSTORE PUSH2 0x23CD JUMP JUMPDEST SWAP1 PUSH2 0x16DD JUMP JUMPDEST PUSH1 0xA0 PUSH1 0x84 SWAP2 PUSH1 0x20 DUP9 PUSH3 0x461BCD PUSH1 0xE5 SHL DUP5 DUP5 ADD MSTORE DUP3 ADD MSTORE PUSH1 0x21 PUSH1 0xC4 DUP3 ADD MSTORE PUSH32 0x5465747261686564726F6E206D656D6265727320616C726561647920766F7465 PUSH1 0xE4 DUP3 ADD MSTORE PUSH1 0x19 PUSH1 0xFA SHL PUSH2 0x104 DUP3 ADD MSTORE ADD REVERT JUMPDEST POP PUSH1 0x60 DUP3 ADD MLOAD PUSH1 0x1 PUSH1 0x1 PUSH1 0xA0 SHL SUB AND PUSH1 0x0 SWAP1 DUP2 MSTORE PUSH1 0x40 SWAP1 KECCAK256 SLOAD PUSH1 0xFF AND ISZERO PUSH2 0x16D0 JUMP JUMPDEST POP PUSH1 0x40 DUP3 DUP2 ADD MLOAD PUSH1 0x1 PUSH1 0x1 PUSH1 0xA0 SHL SUB AND PUSH1 0x0 SWAP1 DUP2 MSTORE KECCAK256 SLOAD PUSH1 0xFF AND ISZERO PUSH2 0x16CA JUMP JUMPDEST POP PUSH1 0x20 DUP3 ADD MLOAD PUSH1 0x1 PUSH1 0x1 PUSH1 0xA0 SHL SUB AND PUSH1 0x0 SWAP1 DUP2 MSTORE PUSH1 0x40 SWAP1 KECCAK256 SLOAD PUSH1 0xFF AND ISZERO PUSH2 0x16C4 JUMP JUMPDEST PUSH4 0x4E487B71 PUSH1 0xE0 SHL PUSH1 0x0 MSTORE PUSH1 0x41 PUSH1 0x4 MSTORE PUSH1 0x24 PUSH1 0x0 REVERT JUMPDEST DUP3 MLOAD PUSH1 0x1 PUSH1 0x1 PUSH1 0xA0 SHL SUB AND DUP2 MSTORE PUSH1 0x20 SWAP3 DUP4 ADD SWAP3 PUSH1 0x1 SWAP3 SWAP1 SWAP3 ADD SWAP2 ADD PUSH2 0x1658 JUMP JUMPDEST PUSH1 0x40 MLOAD PUSH3 0x461BCD PUSH1 0xE5 SHL DUP2 MSTORE PUSH1 0x20 PUSH1 0x4 DUP3 ADD MSTORE PUSH1 0x1E PUSH1 0x24 DUP3 ADD MSTORE PUSH32 0x43616C6C6572206E6F742070617274206F66207465747261686564726F6E0000 PUSH1 0x44 DUP3 ADD MSTORE PUSH1 0x64 SWAP1 REVERT JUMPDEST CALLER PUSH1 0x1 PUSH1 0x1 PUSH1 0xA0 SHL SUB PUSH2 0x1A15 DUP4 DUP7 PUSH2 0x24DF JUMP JUMPDEST MLOAD AND EQ PUSH2 0x1A2A JUMPI PUSH2 0x1A25 SWAP1 PUSH2 0x23CD JUMP JUMPDEST PUSH2 0x163B JUMP JUMPDEST POP POP PUSH1 0x1 DUP7 PUSH2 0x1644 JUMP JUMPDEST DUP2 CALLDATALOAD PUSH1 0x1 PUSH1 0x1 PUSH1 0xA0 SHL SUB DUP2 AND DUP2 SUB PUSH2 0x208 JUMPI DUP2 MSTORE PUSH1 0x20 SWAP2 DUP3 ADD SWAP2 ADD PUSH2 0x15DB JUMP JUMPDEST CALLVALUE PUSH2 0x208 JUMPI PUSH1 0x0 CALLDATASIZE PUSH1 0x3 NOT ADD SLT PUSH2 0x208 JUMPI PUSH1 0x20 PUSH1 0x40 MLOAD PUSH1 0xA DUP2 MSTORE RETURN JUMPDEST CALLVALUE PUSH2 0x208 JUMPI PUSH1 0x20 CALLDATASIZE PUSH1 0x3 NOT ADD SLT PUSH2 0x208 JUMPI PUSH1 0x4 CALLDATALOAD PUSH1 0x0 MSTORE PUSH1 0x0 PUSH1 0x20 MSTORE PUSH1 0x20 PUSH1 0x1 PUSH1 0x40 PUSH1 0x0 KECCAK256 ADD SLOAD PUSH1 0x40 MLOAD SWAP1 DUP2 MSTORE RETURN JUMPDEST CALLVALUE PUSH2 0x208 JUMPI PUSH1 0x40 CALLDATASIZE PUSH1 0x3 NOT ADD SLT PUSH2 0x208 JUMPI PUSH2 0x1AB8 PUSH2 0x2090 JUMP JUMPDEST PUSH1 0x1 PUSH1 0x1 PUSH1 0xA0 SHL SUB AND PUSH1 0x0 SWAP1 DUP2 MSTORE PUSH1 0x9 PUSH1 0x20 MSTORE PUSH1 0x40 SWAP1 KECCAK256 DUP1 SLOAD PUSH1 0x24 CALLDATALOAD SWAP2 SWAP1 DUP3 LT ISZERO PUSH2 0x208 JUMPI PUSH1 0x20 SWAP2 PUSH2 0x1AE9 SWAP2 PUSH2 0x20BC JUMP JUMPDEST SWAP1 SLOAD PUSH1 0x40 MLOAD SWAP2 PUSH1 0x3 SHL SHR DUP2 MSTORE RETURN JUMPDEST CALLVALUE PUSH2 0x208 JUMPI PUSH1 0x20 DUP1 PUSH1 0x3 NOT CALLDATASIZE ADD SLT PUSH2 0x208 JUMPI PUSH1 0x4 CALLDATALOAD PUSH1 0x1 SWAP2 PUSH1 0x2 DUP4 SLOAD EQ PUSH2 0x1D61 JUMPI PUSH1 0x2 DUP4 SSTORE DUP2 PUSH1 0x0 MSTORE PUSH1 0x6 DUP2 MSTORE PUSH1 0x40 PUSH1 0x0 KECCAK256 PUSH1 0xC DUP2 ADD SWAP1 DUP2 SLOAD SWAP2 PUSH1 0xFF DUP4 AND PUSH1 0x7 DUP2 LT ISZERO PUSH2 0x1034 JUMPI PUSH1 0x2 SUB PUSH2 0x1D23 JUMPI PUSH1 0x7 DUP3 ADD SLOAD TIMESTAMP LT PUSH2 0x1CDE JUMPI PUSH1 0xFF DUP4 PUSH1 0x8 SHR AND PUSH2 0x1C99 JUMPI PUSH1 0x4 PUSH1 0xFF NOT SWAP4 DUP5 AND DUP2 OR SWAP1 SWAP2 SSTORE ADD DUP1 SLOAD SWAP1 SWAP2 PUSH2 0x1B76 DUP3 PUSH2 0x1F28 JUMP JUMPDEST PUSH2 0x1BA7 JUMPI JUMPDEST DUP6 CALLER DUP7 PUSH32 0x9C85B616F29FCA57A17EAFE71CF9FF82FFEF41766E2CF01EA7F8F7878DD3EC24 PUSH1 0x0 DUP1 LOG3 DUP1 SSTORE STOP JUMPDEST PUSH1 0x40 MLOAD SWAP3 PUSH1 0x0 SWAP3 PUSH2 0x1BB7 DUP2 PUSH2 0x1F28 JUMP JUMPDEST SWAP3 DUP2 DUP10 AND SWAP2 DUP3 ISZERO PUSH2 0x1C84 JUMPI POP POP PUSH1 0x1 EQ PUSH2 0x1C4B JUMPI JUMPDEST POP POP DUP2 PUSH1 0x0 SWAP3 DUP4 SWAP3 SUB SWAP1 DUP3 ADDRESS GAS CALL RETURNDATASIZE ISZERO PUSH2 0x1C46 JUMPI RETURNDATASIZE PUSH2 0x1BEA DUP2 PUSH2 0x2115 JUMP JUMPDEST SWAP1 PUSH2 0x1BF8 PUSH1 0x40 MLOAD SWAP3 DUP4 PUSH2 0x2014 JUMP JUMPDEST DUP2 MSTORE PUSH1 0x0 DUP4 RETURNDATASIZE SWAP3 ADD RETURNDATACOPY JUMPDEST ISZERO PUSH2 0x1C0F JUMPI DUP1 DUP1 DUP1 PUSH2 0x1B7B JUMP JUMPDEST PUSH1 0x64 SWAP1 PUSH1 0x40 MLOAD SWAP1 PUSH3 0x461BCD PUSH1 0xE5 SHL DUP3 MSTORE PUSH1 0x4 DUP3 ADD MSTORE PUSH1 0x10 PUSH1 0x24 DUP3 ADD MSTORE PUSH16 0x115E1958DD5D1A5BDB8819985A5B1959 PUSH1 0x82 SHL PUSH1 0x44 DUP3 ADD MSTORE REVERT JUMPDEST PUSH2 0x1C02 JUMP JUMPDEST SWAP1 SWAP2 POP PUSH1 0x0 MSTORE DUP3 PUSH1 0x0 KECCAK256 DUP4 DUP7 PUSH1 0x0 SWAP3 JUMPDEST DUP5 DUP5 LT PUSH2 0x1C72 JUMPI POP POP POP SWAP1 DUP3 ADD SWAP1 POP DUP2 PUSH1 0x0 PUSH2 0x1BCC JUMP JUMPDEST DUP1 SLOAD DUP5 DUP8 ADD MSTORE ADD SWAP2 ADD SWAP1 DUP7 DUP6 SWAP2 PUSH2 0x1C5B JUMP JUMPDEST AND DUP6 MSTORE POP POP DUP1 ISZERO ISZERO MUL DUP3 ADD SWAP1 POP DUP2 PUSH1 0x0 PUSH2 0x1BCC JUMP JUMPDEST PUSH1 0x40 MLOAD PUSH3 0x461BCD PUSH1 0xE5 SHL DUP2 MSTORE PUSH1 0x4 DUP2 ADD DUP6 SWAP1 MSTORE PUSH1 0x1B PUSH1 0x24 DUP3 ADD MSTORE PUSH32 0x50726F706F73616C207665746F656420627920477561726469616E0000000000 PUSH1 0x44 DUP3 ADD MSTORE PUSH1 0x64 SWAP1 REVERT JUMPDEST PUSH1 0x40 MLOAD PUSH3 0x461BCD PUSH1 0xE5 SHL DUP2 MSTORE PUSH1 0x4 DUP2 ADD DUP6 SWAP1 MSTORE PUSH1 0x1A PUSH1 0x24 DUP3 ADD MSTORE PUSH32 0x457865637574696F6E2064656C6179206E6F7420706173736564000000000000 PUSH1 0x44 DUP3 ADD MSTORE PUSH1 0x64 SWAP1 REVERT JUMPDEST PUSH1 0x40 MLOAD PUSH3 0x461BCD PUSH1 0xE5 SHL DUP2 MSTORE PUSH1 0x4 DUP2 ADD DUP6 SWAP1 MSTORE PUSH1 0x16 PUSH1 0x24 DUP3 ADD MSTORE PUSH22 0x141C9BDC1BDCD85B081B9BDD081CDD58D8D959591959 PUSH1 0x52 SHL PUSH1 0x44 DUP3 ADD MSTORE PUSH1 0x64 SWAP1 REVERT JUMPDEST PUSH1 0x40 MLOAD PUSH4 0x3EE5AEB5 PUSH1 0xE0 SHL DUP2 MSTORE PUSH1 0x4 SWAP1 REVERT JUMPDEST CALLVALUE PUSH2 0x208 JUMPI PUSH1 0x20 CALLDATASIZE PUSH1 0x3 NOT ADD SLT PUSH2 0x208 JUMPI PUSH1 0x4 CALLDATALOAD PUSH4 0xFFFFFFFF PUSH1 0xE0 SHL DUP2 AND DUP1 SWAP2 SUB PUSH2 0x208 JUMPI PUSH1 0x20 SWAP1 PUSH4 0x7965DB0B PUSH1 0xE0 SHL DUP2 EQ SWAP1 DUP2 ISZERO PUSH2 0x1DB8 JUMPI JUMPDEST POP PUSH1 0x40 MLOAD SWAP1 ISZERO ISZERO DUP2 MSTORE RETURN JUMPDEST PUSH4 0x1FFC9A7 PUSH1 0xE0 SHL EQ SWAP1 POP DUP3 PUSH2 0x1DAD JUMP JUMPDEST CALLVALUE PUSH2 0x208 JUMPI PUSH1 0x20 CALLDATASIZE PUSH1 0x3 NOT ADD SLT PUSH2 0x208 JUMPI PUSH1 0x4 CALLDATALOAD PUSH1 0x0 MSTORE PUSH1 0x6 PUSH1 0x20 MSTORE PUSH1 0x40 PUSH1 0x0 KECCAK256 DUP1 SLOAD SWAP1 PUSH1 0x1 DUP2 ADD SLOAD SWAP3 DUP1 DUP1 PUSH1 0x2 DUP5 ADD SWAP1 PUSH2 0x1E03 SWAP2 PUSH2 0x1F62 JUMP JUMPDEST SUB PUSH2 0x1E0E SWAP1 DUP3 PUSH2 0x2014 JUMP JUMPDEST PUSH1 0x40 MLOAD SWAP2 DUP3 PUSH2 0x1E20 DUP2 PUSH1 0x3 DUP5 ADD PUSH2 0x1F62 JUMP JUMPDEST SUB PUSH2 0x1E2B SWAP1 DUP5 PUSH2 0x2014 JUMP JUMPDEST PUSH1 0x40 MLOAD SWAP3 DUP4 PUSH2 0x1E3D DUP2 PUSH1 0x4 DUP6 ADD PUSH2 0x1F62 JUMP JUMPDEST SUB PUSH2 0x1E48 SWAP1 DUP6 PUSH2 0x2014 JUMP JUMPDEST PUSH1 0x5 DUP3 ADD SLOAD SWAP4 PUSH1 0x6 DUP4 ADD SLOAD PUSH1 0x7 DUP5 ADD SLOAD PUSH1 0x8 DUP6 ADD SLOAD SWAP2 PUSH1 0x9 DUP7 ADD SLOAD SWAP4 PUSH1 0xA DUP8 ADD SLOAD SWAP6 PUSH1 0xB DUP9 ADD SLOAD SWAP8 PUSH1 0xC ADD SLOAD SWAP9 PUSH1 0x40 MLOAD SWAP13 DUP14 SWAP13 DUP14 MSTORE DUP13 PUSH1 0x1 PUSH1 0xA0 SHL PUSH1 0x1 SWAP1 SUB DUP3 AND SWAP1 PUSH1 0x20 ADD MSTORE PUSH1 0x40 DUP14 ADD SWAP1 PUSH1 0xA0 SHR PUSH1 0xFF AND SWAP1 PUSH2 0x1EA3 SWAP2 PUSH2 0x2036 JUMP JUMPDEST DUP12 PUSH2 0x1E0 PUSH1 0x60 DUP2 SWAP3 ADD MSTORE DUP13 ADD PUSH2 0x1EB8 SWAP2 PUSH2 0x2043 JUMP JUMPDEST DUP12 DUP2 SUB PUSH1 0x80 DUP14 ADD MSTORE PUSH2 0x1EC9 SWAP2 PUSH2 0x2043 JUMP JUMPDEST DUP11 DUP2 SUB PUSH1 0xA0 DUP13 ADD MSTORE PUSH2 0x1EDA SWAP2 PUSH2 0x2043 JUMP JUMPDEST SWAP8 PUSH1 0xC0 DUP11 ADD MSTORE PUSH1 0xE0 DUP10 ADD MSTORE PUSH2 0x100 DUP9 ADD MSTORE PUSH2 0x120 DUP8 ADD MSTORE PUSH2 0x140 DUP7 ADD MSTORE PUSH2 0x160 DUP6 ADD MSTORE PUSH2 0x180 DUP5 ADD MSTORE PUSH2 0x1A0 DUP4 ADD PUSH1 0xFF DUP3 AND SWAP1 PUSH2 0x1F16 SWAP2 PUSH2 0x2083 JUMP JUMPDEST PUSH1 0x8 SHR PUSH1 0xFF AND ISZERO ISZERO PUSH2 0x1C0 DUP4 ADD MSTORE SUB SWAP1 RETURN JUMPDEST SWAP1 PUSH1 0x1 DUP3 DUP2 SHR SWAP3 AND DUP1 ISZERO PUSH2 0x1F58 JUMPI JUMPDEST PUSH1 0x20 DUP4 LT EQ PUSH2 0x1F42 JUMPI JUMP JUMPDEST PUSH4 0x4E487B71 PUSH1 0xE0 SHL PUSH1 0x0 MSTORE PUSH1 0x22 PUSH1 0x4 MSTORE PUSH1 0x24 PUSH1 0x0 REVERT JUMPDEST SWAP2 PUSH1 0x7F AND SWAP2 PUSH2 0x1F37 JUMP JUMPDEST SWAP1 PUSH1 0x0 SWAP3 SWAP2 DUP1 SLOAD SWAP2 PUSH2 0x1F73 DUP4 PUSH2 0x1F28 JUMP JUMPDEST SWAP2 DUP3 DUP3 MSTORE PUSH1 0x1 SWAP4 DUP5 DUP2 AND SWAP1 DUP2 PUSH1 0x0 EQ PUSH2 0x1FD5 JUMPI POP PUSH1 0x1 EQ PUSH2 0x1F95 JUMPI JUMPDEST POP POP POP POP JUMP JUMPDEST SWAP1 SWAP2 SWAP4 SWAP5 POP PUSH1 0x0 MSTORE PUSH1 0x20 SWAP3 DUP4 PUSH1 0x0 KECCAK256 SWAP3 DUP5 PUSH1 0x0 SWAP5 JUMPDEST DUP4 DUP7 LT PUSH2 0x1FC1 JUMPI POP POP POP POP ADD ADD SWAP1 CODESIZE DUP1 DUP1 DUP1 PUSH2 0x1F8F JUMP JUMPDEST DUP1 SLOAD DUP6 DUP8 ADD DUP4 ADD MSTORE SWAP5 ADD SWAP4 DUP6 SWAP1 DUP3 ADD PUSH2 0x1FAA JUMP JUMPDEST SWAP3 SWAP5 POP POP POP PUSH1 0x20 SWAP4 SWAP5 POP PUSH1 0xFF NOT AND DUP4 DUP4 ADD MSTORE ISZERO ISZERO PUSH1 0x5 SHL ADD ADD SWAP1 CODESIZE DUP1 DUP1 DUP1 PUSH2 0x1F8F JUMP JUMPDEST PUSH1 0xC0 DUP2 ADD SWAP1 DUP2 LT PUSH8 0xFFFFFFFFFFFFFFFF DUP3 GT OR PUSH2 0x1987 JUMPI PUSH1 0x40 MSTORE JUMP JUMPDEST SWAP1 PUSH1 0x1F DUP1 NOT SWAP2 ADD AND DUP2 ADD SWAP1 DUP2 LT PUSH8 0xFFFFFFFFFFFFFFFF DUP3 GT OR PUSH2 0x1987 JUMPI PUSH1 0x40 MSTORE JUMP JUMPDEST SWAP1 PUSH1 0x5 DUP3 LT ISZERO PUSH2 0x1034 JUMPI MSTORE JUMP JUMPDEST SWAP2 SWAP1 DUP3 MLOAD SWAP3 DUP4 DUP3 MSTORE PUSH1 0x0 JUMPDEST DUP5 DUP2 LT PUSH2 0x206F JUMPI POP POP DUP3 PUSH1 0x0 PUSH1 0x20 DUP1 SWAP5 SWAP6 DUP5 ADD ADD MSTORE PUSH1 0x1F DUP1 NOT SWAP2 ADD AND ADD ADD SWAP1 JUMP JUMPDEST PUSH1 0x20 DUP2 DUP4 ADD DUP2 ADD MLOAD DUP5 DUP4 ADD DUP3 ADD MSTORE ADD PUSH2 0x204E JUMP JUMPDEST SWAP1 PUSH1 0x7 DUP3 LT ISZERO PUSH2 0x1034 JUMPI MSTORE JUMP JUMPDEST PUSH1 0x4 CALLDATALOAD SWAP1 PUSH1 0x1 PUSH1 0x1 PUSH1 0xA0 SHL SUB DUP3 AND DUP3 SUB PUSH2 0x208 JUMPI JUMP JUMPDEST PUSH1 0x24 CALLDATALOAD SWAP1 PUSH1 0x1 PUSH1 0x1 PUSH1 0xA0 SHL SUB DUP3 AND DUP3 SUB PUSH2 0x208 JUMPI JUMP JUMPDEST DUP1 SLOAD DUP3 LT ISZERO PUSH2 0x20D4 JUMPI PUSH1 0x0 MSTORE PUSH1 0x20 PUSH1 0x0 KECCAK256 ADD SWAP1 PUSH1 0x0 SWAP1 JUMP JUMPDEST PUSH4 0x4E487B71 PUSH1 0xE0 SHL PUSH1 0x0 MSTORE PUSH1 0x32 PUSH1 0x4 MSTORE PUSH1 0x24 PUSH1 0x0 REVERT JUMPDEST CALLVALUE PUSH2 0x208 JUMPI PUSH1 0x0 CALLDATASIZE PUSH1 0x3 NOT ADD SLT PUSH2 0x208 JUMPI PUSH1 0x20 PUSH1 0x40 MLOAD PUSH3 0x93A80 DUP2 MSTORE RETURN JUMPDEST SWAP1 PUSH1 0x3 DUP3 LT ISZERO PUSH2 0x1034 JUMPI MSTORE JUMP JUMPDEST PUSH8 0xFFFFFFFFFFFFFFFF DUP2 GT PUSH2 0x1987 JUMPI PUSH1 0x1F ADD PUSH1 0x1F NOT AND PUSH1 0x20 ADD SWAP1 JUMP JUMPDEST SWAP3 SWAP2 SWAP3 PUSH2 0x213D DUP3 PUSH2 0x2115 JUMP JUMPDEST SWAP2 PUSH2 0x214B PUSH1 0x40 MLOAD SWAP4 DUP5 PUSH2 0x2014 JUMP JUMPDEST DUP3 SWAP5 DUP2 DUP5 MSTORE DUP2 DUP4 ADD GT PUSH2 0x208 JUMPI DUP3 DUP2 PUSH1 0x20 SWAP4 DUP5 PUSH1 0x0 SWAP7 ADD CALLDATACOPY ADD ADD MSTORE JUMP JUMPDEST SWAP1 DUP1 PUSH1 0x1F DUP4 ADD SLT ISZERO PUSH2 0x208 JUMPI DUP2 PUSH1 0x20 PUSH2 0x2183 SWAP4 CALLDATALOAD SWAP2 ADD PUSH2 0x2131 JUMP JUMPDEST SWAP1 JUMP JUMPDEST DUP1 PUSH1 0x0 MSTORE PUSH1 0x0 PUSH1 0x20 MSTORE PUSH1 0x40 PUSH1 0x0 KECCAK256 CALLER PUSH1 0x0 MSTORE PUSH1 0x20 MSTORE PUSH1 0xFF PUSH1 0x40 PUSH1 0x0 KECCAK256 SLOAD AND ISZERO PUSH2 0x21AC JUMPI POP JUMP JUMPDEST PUSH1 0x44 SWAP1 PUSH1 0x40 MLOAD SWAP1 PUSH4 0xE2517D3F PUSH1 0xE0 SHL DUP3 MSTORE CALLER PUSH1 0x4 DUP4 ADD MSTORE PUSH1 0x24 DUP3 ADD MSTORE REVERT JUMPDEST PUSH1 0x1 PUSH1 0x1 PUSH1 0xA0 SHL SUB AND PUSH1 0x0 DUP2 DUP2 MSTORE PUSH1 0x0 DUP1 MLOAD PUSH1 0x20 PUSH2 0x28FE DUP4 CODECOPY DUP2 MLOAD SWAP2 MSTORE PUSH1 0x20 MSTORE PUSH1 0x40 DUP2 KECCAK256 SLOAD SWAP1 SWAP2 SWAP1 PUSH1 0x0 DUP1 MLOAD PUSH1 0x20 PUSH2 0x28BE DUP4 CODECOPY DUP2 MLOAD SWAP2 MSTORE SWAP1 PUSH1 0xFF AND PUSH2 0x2253 JUMPI DUP1 DUP4 MSTORE DUP3 PUSH1 0x20 MSTORE PUSH1 0x40 DUP4 KECCAK256 DUP3 DUP5 MSTORE PUSH1 0x20 MSTORE PUSH1 0x40 DUP4 KECCAK256 PUSH1 0x1 PUSH1 0xFF NOT DUP3 SLOAD AND OR SWAP1 SSTORE PUSH32 0x2F8788117E7EFF1D82E926EC794901D17C78024A50270940304540A733656F0D CALLER SWAP4 DUP1 LOG4 PUSH1 0x1 SWAP1 JUMP JUMPDEST POP POP SWAP1 JUMP JUMPDEST SWAP1 PUSH1 0x0 SWAP2 DUP1 DUP4 MSTORE DUP3 PUSH1 0x20 MSTORE PUSH1 0x40 DUP4 KECCAK256 SWAP2 PUSH1 0x1 DUP1 PUSH1 0xA0 SHL SUB AND SWAP2 DUP3 DUP5 MSTORE PUSH1 0x20 MSTORE PUSH1 0xFF PUSH1 0x40 DUP5 KECCAK256 SLOAD AND ISZERO PUSH1 0x0 EQ PUSH2 0x2253 JUMPI DUP1 DUP4 MSTORE DUP3 PUSH1 0x20 MSTORE PUSH1 0x40 DUP4 KECCAK256 DUP3 DUP5 MSTORE PUSH1 0x20 MSTORE PUSH1 0x40 DUP4 KECCAK256 PUSH1 0x1 PUSH1 0xFF NOT DUP3 SLOAD AND OR SWAP1 SSTORE PUSH32 0x2F8788117E7EFF1D82E926EC794901D17C78024A50270940304540A733656F0D CALLER SWAP4 DUP1 LOG4 PUSH1 0x1 SWAP1 JUMP JUMPDEST PUSH1 0x1 PUSH1 0x1 PUSH1 0xA0 SHL SUB AND PUSH1 0x0 DUP2 DUP2 MSTORE PUSH1 0x0 DUP1 MLOAD PUSH1 0x20 PUSH2 0x28FE DUP4 CODECOPY DUP2 MLOAD SWAP2 MSTORE PUSH1 0x20 MSTORE PUSH1 0x40 DUP2 KECCAK256 SLOAD SWAP1 SWAP2 SWAP1 PUSH1 0x0 DUP1 MLOAD PUSH1 0x20 PUSH2 0x28BE DUP4 CODECOPY DUP2 MLOAD SWAP2 MSTORE SWAP1 PUSH1 0xFF AND ISZERO PUSH2 0x2253 JUMPI DUP1 DUP4 MSTORE DUP3 PUSH1 0x20 MSTORE PUSH1 0x40 DUP4 KECCAK256 DUP3 DUP5 MSTORE PUSH1 0x20 MSTORE PUSH1 0x40 DUP4 KECCAK256 PUSH1 0xFF NOT DUP2 SLOAD AND SWAP1 SSTORE PUSH32 0xF6391F5C32D9C69D2A47EA670B442974B53935D1EDC7FD64EB21E047A839171B CALLER SWAP4 DUP1 LOG4 PUSH1 0x1 SWAP1 JUMP JUMPDEST SWAP1 PUSH1 0x0 SWAP2 DUP1 DUP4 MSTORE DUP3 PUSH1 0x20 MSTORE PUSH1 0x40 DUP4 KECCAK256 SWAP2 PUSH1 0x1 DUP1 PUSH1 0xA0 SHL SUB AND SWAP2 DUP3 DUP5 MSTORE PUSH1 0x20 MSTORE PUSH1 0xFF PUSH1 0x40 DUP5 KECCAK256 SLOAD AND PUSH1 0x0 EQ PUSH2 0x2253 JUMPI DUP1 DUP4 MSTORE DUP3 PUSH1 0x20 MSTORE PUSH1 0x40 DUP4 KECCAK256 DUP3 DUP5 MSTORE PUSH1 0x20 MSTORE PUSH1 0x40 DUP4 KECCAK256 PUSH1 0xFF NOT DUP2 SLOAD AND SWAP1 SSTORE PUSH32 0xF6391F5C32D9C69D2A47EA670B442974B53935D1EDC7FD64EB21E047A839171B CALLER SWAP4 DUP1 LOG4 PUSH1 0x1 SWAP1 JUMP JUMPDEST PUSH1 0x0 NOT DUP2 EQ PUSH2 0xDEC JUMPI PUSH1 0x1 ADD SWAP1 JUMP JUMPDEST SWAP1 PUSH1 0x1F DUP2 GT PUSH2 0x23EA JUMPI POP POP POP JUMP JUMPDEST PUSH1 0x0 SWAP2 DUP3 MSTORE PUSH1 0x20 DUP3 KECCAK256 SWAP1 PUSH1 0x20 PUSH1 0x1F DUP6 ADD PUSH1 0x5 SHR DUP4 ADD SWAP5 LT PUSH2 0x2426 JUMPI JUMPDEST PUSH1 0x1F ADD PUSH1 0x5 SHR ADD SWAP2 JUMPDEST DUP3 DUP2 LT PUSH2 0x241B JUMPI POP POP POP JUMP JUMPDEST DUP2 DUP2 SSTORE PUSH1 0x1 ADD PUSH2 0x240F JUMP JUMPDEST SWAP1 SWAP3 POP DUP3 SWAP1 PUSH2 0x2406 JUMP JUMPDEST SWAP2 SWAP1 DUP3 ADD DUP1 SWAP3 GT PUSH2 0xDEC JUMPI JUMP JUMPDEST PUSH1 0xFF PUSH1 0x2 SLOAD AND PUSH2 0x2449 JUMPI JUMP JUMPDEST PUSH1 0x40 MLOAD PUSH4 0xD93C0665 PUSH1 0xE0 SHL DUP2 MSTORE PUSH1 0x4 SWAP1 REVERT JUMPDEST ISZERO PUSH2 0x2462 JUMPI JUMP JUMPDEST PUSH1 0x40 MLOAD PUSH3 0x461BCD PUSH1 0xE5 SHL DUP2 MSTORE PUSH1 0x20 PUSH1 0x4 DUP3 ADD MSTORE PUSH1 0x13 PUSH1 0x24 DUP3 ADD MSTORE PUSH19 0x50726F706F73616C206E6F7420616374697665 PUSH1 0x68 SHL PUSH1 0x44 DUP3 ADD MSTORE PUSH1 0x64 SWAP1 REVERT JUMPDEST ISZERO PUSH2 0x24A4 JUMPI JUMP JUMPDEST PUSH1 0x40 MLOAD PUSH3 0x461BCD PUSH1 0xE5 SHL DUP2 MSTORE PUSH1 0x20 PUSH1 0x4 DUP3 ADD MSTORE PUSH1 0x13 PUSH1 0x24 DUP3 ADD MSTORE PUSH19 0x159BDD1A5B99C81C195C9A5BD908195B991959 PUSH1 0x6A SHL PUSH1 0x44 DUP3 ADD MSTORE PUSH1 0x64 SWAP1 REVERT JUMPDEST SWAP1 PUSH1 0x4 DUP2 LT ISZERO PUSH2 0x20D4 JUMPI PUSH1 0x5 SHL ADD SWAP1 JUMP JUMPDEST SWAP1 PUSH1 0x0 SWAP2 DUP3 MSTORE PUSH1 0x20 PUSH1 0x6 DUP2 MSTORE PUSH1 0x40 SWAP1 DUP2 DUP5 KECCAK256 PUSH1 0xC DUP2 ADD DUP1 SLOAD PUSH1 0xFF DUP2 AND PUSH1 0x7 DUP2 LT ISZERO PUSH2 0x26E4 JUMPI PUSH1 0x1 PUSH2 0x2521 SWAP2 EQ PUSH2 0x245B JUMP JUMPDEST PUSH1 0x6 DUP4 ADD SLOAD TIMESTAMP GT ISZERO PUSH2 0x26A0 JUMPI PUSH1 0x8 DUP4 ADD SLOAD PUSH1 0x9 DUP5 ADD SLOAD SWAP2 PUSH2 0x2550 PUSH2 0x2545 DUP5 DUP5 PUSH2 0x2430 JUMP JUMPDEST PUSH1 0xA DUP8 ADD SLOAD SWAP1 PUSH2 0x2430 JUMP JUMPDEST PUSH1 0xB DUP7 ADD SLOAD PUSH1 0xA DUP2 MUL SWAP1 DUP1 DUP3 DIV PUSH1 0xA EQ SWAP1 ISZERO OR ISZERO PUSH2 0x268C JUMPI PUSH1 0x64 SWAP1 DIV GT PUSH2 0x2678 JUMPI POP GT ISZERO PUSH2 0x2665 JUMPI DUP1 SLOAD PUSH1 0xFF NOT AND PUSH1 0x2 OR SWAP1 SSTORE PUSH1 0x1 ADD SLOAD DUP3 MLOAD PUSH1 0x1 PUSH1 0x1 PUSH1 0xA0 SHL SUB SWAP2 SWAP1 SWAP2 AND SWAP3 SWAP1 DUP1 DUP3 ADD PUSH8 0xFFFFFFFFFFFFFFFF DUP2 GT DUP3 DUP3 LT OR PUSH2 0x2651 JUMPI DUP3 MSTORE PUSH1 0x13 DUP2 MSTORE PUSH19 0x14DD58D8D95CDCD99D5B081C1C9BDC1BDCD85B PUSH1 0x6A SHL DUP4 DUP3 ADD MSTORE DUP4 DUP7 MSTORE PUSH1 0x7 DUP4 MSTORE DUP2 DUP7 KECCAK256 SWAP2 DUP3 SLOAD SWAP3 PUSH1 0x5 DUP5 ADD SWAP1 DUP2 DUP6 GT PUSH2 0x263D JUMPI SWAP2 DUP1 PUSH1 0x0 DUP1 MLOAD PUSH1 0x20 PUSH2 0x28DE DUP4 CODECOPY DUP2 MLOAD SWAP2 MSTORE SWAP8 SWAP9 SWAP10 PUSH1 0x60 SWAP4 PUSH2 0x262F SWAP7 SWAP6 SSTORE DUP10 DUP2 MSTORE PUSH1 0x7 DUP9 MSTORE KECCAK256 PUSH1 0x64 DUP2 SLOAD GT PUSH2 0x2634 JUMPI JUMPDEST SLOAD DUP2 MLOAD SWAP7 DUP8 SWAP7 DUP8 MSTORE DUP7 ADD MSTORE DUP5 ADD MSTORE PUSH1 0x60 DUP4 ADD SWAP1 PUSH2 0x2043 JUMP JUMPDEST SUB SWAP1 LOG2 JUMP JUMPDEST PUSH1 0x64 DUP2 SSTORE PUSH2 0x2617 JUMP JUMPDEST PUSH4 0x4E487B71 PUSH1 0xE0 SHL DUP10 MSTORE PUSH1 0x11 PUSH1 0x4 MSTORE PUSH1 0x24 DUP10 REVERT JUMPDEST PUSH4 0x4E487B71 PUSH1 0xE0 SHL DUP8 MSTORE PUSH1 0x41 PUSH1 0x4 MSTORE PUSH1 0x24 DUP8 REVERT JUMPDEST DUP1 SLOAD PUSH1 0xFF NOT AND PUSH1 0x3 OR SWAP1 SSTORE POP SWAP2 SWAP3 POP POP POP JUMP JUMPDEST PUSH1 0xFF NOT AND PUSH1 0x3 OR SWAP1 SWAP3 SSTORE POP SWAP4 SWAP5 POP POP POP POP POP JUMP JUMPDEST PUSH4 0x4E487B71 PUSH1 0xE0 SHL DUP12 MSTORE PUSH1 0x11 PUSH1 0x4 MSTORE PUSH1 0x24 DUP12 REVERT JUMPDEST DUP5 MLOAD PUSH3 0x461BCD PUSH1 0xE5 SHL DUP2 MSTORE PUSH1 0x4 DUP2 ADD DUP6 SWAP1 MSTORE PUSH1 0x18 PUSH1 0x24 DUP3 ADD MSTORE PUSH32 0x566F74696E67207374696C6C20696E2070726F67726573730000000000000000 PUSH1 0x44 DUP3 ADD MSTORE PUSH1 0x64 SWAP1 REVERT JUMPDEST PUSH4 0x4E487B71 PUSH1 0xE0 SHL DUP9 MSTORE PUSH1 0x21 PUSH1 0x4 MSTORE PUSH1 0x24 DUP9 REVERT JUMPDEST ISZERO PUSH2 0x26FF JUMPI JUMP JUMPDEST PUSH1 0x40 MLOAD PUSH3 0x461BCD PUSH1 0xE5 SHL DUP2 MSTORE PUSH1 0x20 PUSH1 0x4 DUP3 ADD MSTORE PUSH1 0x13 PUSH1 0x24 DUP3 ADD MSTORE PUSH19 0x4F6E6C7920477561726469616E204E6F646573 PUSH1 0x68 SHL PUSH1 0x44 DUP3 ADD MSTORE PUSH1 0x64 SWAP1 REVERT JUMPDEST PUSH1 0x1 DUP1 PUSH1 0xA0 SHL SUB AND PUSH1 0x0 MSTORE PUSH1 0x7 PUSH1 0x20 MSTORE PUSH1 0x40 PUSH1 0x0 KECCAK256 PUSH1 0x40 MLOAD SWAP1 PUSH2 0x275C DUP3 PUSH2 0x1FF8 JUMP JUMPDEST DUP1 SLOAD SWAP2 DUP3 DUP2 MSTORE PUSH1 0x1 DUP3 ADD SLOAD PUSH1 0x20 DUP3 ADD MSTORE PUSH1 0x2 DUP3 ADD SLOAD PUSH1 0x40 DUP3 ADD MSTORE PUSH1 0xA0 PUSH1 0xFF PUSH1 0x5 PUSH1 0x3 DUP6 ADD SLOAD SWAP5 PUSH1 0x60 DUP6 ADD SWAP6 DUP7 MSTORE PUSH1 0x4 DUP2 ADD SLOAD PUSH1 0x80 DUP7 ADD MSTORE ADD SLOAD AND ISZERO ISZERO SWAP2 ADD MSTORE PUSH1 0x64 DUP3 MUL SWAP2 DUP1 DUP4 DIV PUSH1 0x64 EQ SWAP1 ISZERO OR ISZERO PUSH2 0xDEC JUMPI PUSH2 0x27BA PUSH2 0x2183 SWAP3 PUSH2 0x27DF JUMP JUMPDEST PUSH1 0x0 SWAP2 MLOAD PUSH1 0xA DUP2 GT PUSH2 0x27CD JUMPI JUMPDEST POP PUSH2 0x2430 JUMP JUMPDEST PUSH2 0x27D8 SWAP2 SWAP3 POP PUSH2 0x27DF JUMP JUMPDEST SWAP1 CODESIZE PUSH2 0x27C7 JUMP JUMPDEST DUP1 ISZERO PUSH2 0x2838 JUMPI PUSH1 0x1 DUP1 DUP3 ADD DUP1 DUP4 GT PUSH2 0xDEC JUMPI DUP2 SHR SWAP1 DUP3 JUMPDEST DUP4 DUP4 LT PUSH2 0x2803 JUMPI POP POP POP SWAP1 JUMP JUMPDEST SWAP2 SWAP3 POP SWAP1 DUP3 DUP1 ISZERO PUSH2 0x2823 JUMPI DUP1 PUSH2 0x281A SWAP2 DUP4 DIV PUSH2 0x2430 JUMP JUMPDEST DUP3 SHR SWAP2 SWAP1 PUSH2 0x27F6 JUMP JUMPDEST PUSH1 0x24 PUSH1 0x0 PUSH4 0x4E487B71 PUSH1 0xE0 SHL DUP2 MSTORE PUSH1 0x12 PUSH1 0x4 MSTORE REVERT JUMPDEST POP PUSH1 0x0 SWAP1 JUMP JUMPDEST PUSH2 0x284A CALLVALUE PUSH1 0x4 SLOAD PUSH2 0x2430 JUMP JUMPDEST PUSH1 0x4 SSTORE PUSH1 0x40 MLOAD CALLVALUE DUP2 MSTORE PUSH32 0xE3407208B14FA025330CA187030F118A1C0CDB604ABA93BA45C862E6095AEE27 PUSH1 0x20 CALLER SWAP3 LOG2 JUMP JUMPDEST ISZERO PUSH2 0x2882 JUMPI JUMP JUMPDEST PUSH1 0x40 MLOAD PUSH3 0x461BCD PUSH1 0xE5 SHL DUP2 MSTORE PUSH1 0x20 PUSH1 0x4 DUP3 ADD MSTORE PUSH1 0x13 PUSH1 0x24 DUP3 ADD MSTORE PUSH19 0x4F6E6C792076696120676F7665726E616E6365 PUSH1 0x68 SHL PUSH1 0x44 DUP3 ADD MSTORE PUSH1 0x64 SWAP1 REVERT INVALID 0xFC 0xB9 GT DUP10 PUSH1 0xB6 0xD0 SWAP1 PUSH31 0x6F4C44256C87D64F757397CE11D189CD0673CB6998C884146A620F234BE49 PUSH9 0x6701963664655B5FB4 MLOAD SWAP10 PUSH32 0x8462F773D272D68F17043F8B3B86CA8F0A4695BAC601AA9B5B6BD2ADC535CFE1 0x21 0xD MSTORE8 0xB4 0xB5 0xCA 0x5D PUSH22 0xF71382A26469706673582212202BED5F976E6ADFDF8E COINBASE 0xE7 TIMESTAMP 0xFB ADD 0x22 0xF7 PUSH12 0xE3B1DC87012EC8E49A5FE80C PUSH23 0xF7F564736F6C634300081400332F8788117E7EFF1D82E9 0x26 0xEC PUSH26 0x4901D17C78024A50270940304540A733656F0D00000000000000 "},"methodIdentifiers":{"DEFAULT_ADMIN_ROLE()":"a217fddf","EXECUTION_DELAY()":"37f135d7","GUARDIAN_NODE()":"571c81e2","GUARDIAN_VETO_PERIOD()":"cdb0fb99","MIN_QUORUM_PERCENTAGE()":"2627780d","PROPOSER_ROLE()":"8f61f4f5","REPUTATION_THRESHOLD()":"42296a14","TETRAHEDRON_MULTIPLIER()":"432fcf0c","VOTING_PERIOD()":"b1610d7e","addGuardianNode(address)":"9762a37e","adjustReputation(address,int256,string)":"81935204","castTetrahedronVote(uint256,address[4],uint8)":"28bf60f9","castVote(uint256,uint8)":"56781388","createProposal(uint8,string,string,bytes)":"d155aecd","depositToTreasury()":"718b2058","executeProposal(uint256)":"0d61b519","finalizeProposal(uint256)":"5652077c","getProposal(uint256)":"c7f758a8","getRoleAdmin(bytes32)":"248a9ca3","getUserProposals(address)":"78ef1138","getVoterProfile(address)":"d8a6f68f","grantRole(bytes32,address)":"2f2ff15d","hasRole(bytes32,address)":"91d14854","hasVoted(uint256,address)":"43859632","pause()":"8456cb59","paused()":"5c975abb","proposalCount()":"da35c664","proposals(uint256)":"013cf08b","removeGuardianNode(address)":"c8160b3c","renounceRole(bytes32,address)":"36568abe","revokeRole(bytes32,address)":"d547741f","supportsInterface(bytes4)":"01ffc9a7","tetrahedronVotes(uint256,bytes32)":"556e6a4e","totalVotingPower()":"671b3793","treasuryBalance()":"313dab20","unpause()":"3f4ba83a","userProposals(address,uint256)":"1b31527f","vetoProposal(uint256,string)":"6a112288","voters(address)":"a3ec138d","votingPower(address)":"c07473f6"}},"storageLayout":{"storage":[{"astId":27,"contract":"contracts/GovernanceDAO.sol:GovernanceDAO","label":"_roles","offset":0,"slot":"0","type":"t_mapping(t_bytes32,t_struct(RoleData)22_storage)"},{"astId":528,"contract":"contracts/GovernanceDAO.sol:GovernanceDAO","label":"_status","offset":0,"slot":"1","type":"t_uint256"},{"astId":418,"contract":"contracts/GovernanceDAO.sol:GovernanceDAO","label":"_paused","offset":0,"slot":"2","type":"t_bool"},{"astId":751,"contract":"contracts/GovernanceDAO.sol:GovernanceDAO","label":"proposalCount","offset":0,"slot":"3","type":"t_uint256"},{"astId":753,"contract":"contracts/GovernanceDAO.sol:GovernanceDAO","label":"treasuryBalance","offset":0,"slot":"4","type":"t_uint256"},{"astId":755,"contract":"contracts/GovernanceDAO.sol:GovernanceDAO","label":"totalVotingPower","offset":0,"slot":"5","type":"t_uint256"},{"astId":760,"contract":"contracts/GovernanceDAO.sol:GovernanceDAO","label":"proposals","offset":0,"slot":"6","type":"t_mapping(t_uint256,t_struct(Proposal)722_storage)"},{"astId":765,"contract":"contracts/GovernanceDAO.sol:GovernanceDAO","label":"voters","offset":0,"slot":"7","type":"t_mapping(t_address,t_struct(VoterProfile)735_storage)"},{"astId":772,"contract":"contracts/GovernanceDAO.sol:GovernanceDAO","label":"tetrahedronVotes","offset":0,"slot":"8","type":"t_mapping(t_uint256,t_mapping(t_bytes32,t_struct(TetrahedronVote)749_storage))"},{"astId":777,"contract":"contracts/GovernanceDAO.sol:GovernanceDAO","label":"userProposals","offset":0,"slot":"9","type":"t_mapping(t_address,t_array(t_uint256)dyn_storage)"},{"astId":781,"contract":"contracts/GovernanceDAO.sol:GovernanceDAO","label":"votingPower","offset":0,"slot":"10","type":"t_mapping(t_address,t_uint256)"}],"types":{"t_address":{"encoding":"inplace","label":"address","numberOfBytes":"20"},"t_array(t_uint256)dyn_storage":{"base":"t_uint256","encoding":"dynamic_array","label":"uint256[]","numberOfBytes":"32"},"t_bool":{"encoding":"inplace","label":"bool","numberOfBytes":"1"},"t_bytes32":{"encoding":"inplace","label":"bytes32","numberOfBytes":"32"},"t_bytes_storage":{"encoding":"bytes","label":"bytes","numberOfBytes":"32"},"t_enum(ProposalStatus)676":{"encoding":"inplace","label":"enum GovernanceDAO.ProposalStatus","numberOfBytes":"1"},"t_enum(ProposalType)668":{"encoding":"inplace","label":"enum GovernanceDAO.ProposalType","numberOfBytes":"1"},"t_enum(VoteType)680":{"encoding":"inplace","label":"enum GovernanceDAO.VoteType","numberOfBytes":"1"},"t_mapping(t_address,t_array(t_uint256)dyn_storage)":{"encoding":"mapping","key":"t_address","label":"mapping(address => uint256[])","numberOfBytes":"32","value":"t_array(t_uint256)dyn_storage"},"t_mapping(t_address,t_bool)":{"encoding":"mapping","key":"t_address","label":"mapping(address => bool)","numberOfBytes":"32","value":"t_bool"},"t_mapping(t_address,t_enum(VoteType)680)":{"encoding":"mapping","key":"t_address","label":"mapping(address => enum GovernanceDAO.VoteType)","numberOfBytes":"32","value":"t_enum(VoteType)680"},"t_mapping(t_address,t_struct(VoterProfile)735_storage)":{"encoding":"mapping","key":"t_address","label":"mapping(address => struct GovernanceDAO.VoterProfile)","numberOfBytes":"32","value":"t_struct(VoterProfile)735_storage"},"t_mapping(t_address,t_uint256)":{"encoding":"mapping","key":"t_address","label":"mapping(address => uint256)","numberOfBytes":"32","value":"t_uint256"},"t_mapping(t_bytes32,t_struct(RoleData)22_storage)":{"encoding":"mapping","key":"t_bytes32","label":"mapping(bytes32 => struct AccessControl.RoleData)","numberOfBytes":"32","value":"t_struct(RoleData)22_storage"},"t_mapping(t_bytes32,t_struct(TetrahedronVote)749_storage)":{"encoding":"mapping","key":"t_bytes32","label":"mapping(bytes32 => struct GovernanceDAO.TetrahedronVote)","numberOfBytes":"32","value":"t_struct(TetrahedronVote)749_storage"},"t_mapping(t_uint256,t_mapping(t_bytes32,t_struct(TetrahedronVote)749_storage))":{"encoding":"mapping","key":"t_uint256","label":"mapping(uint256 => mapping(bytes32 => struct GovernanceDAO.TetrahedronVote))","numberOfBytes":"32","value":"t_mapping(t_bytes32,t_struct(TetrahedronVote)749_storage)"},"t_mapping(t_uint256,t_struct(Proposal)722_storage)":{"encoding":"mapping","key":"t_uint256","label":"mapping(uint256 => struct GovernanceDAO.Proposal)","numberOfBytes":"32","value":"t_struct(Proposal)722_storage"},"t_string_storage":{"encoding":"bytes","label":"string","numberOfBytes":"32"},"t_struct(Proposal)722_storage":{"encoding":"inplace","label":"struct GovernanceDAO.Proposal","members":[{"astId":682,"contract":"contracts/GovernanceDAO.sol:GovernanceDAO","label":"id","offset":0,"slot":"0","type":"t_uint256"},{"astId":684,"contract":"contracts/GovernanceDAO.sol:GovernanceDAO","label":"proposer","offset":0,"slot":"1","type":"t_address"},{"astId":687,"contract":"contracts/GovernanceDAO.sol:GovernanceDAO","label":"proposalType","offset":20,"slot":"1","type":"t_enum(ProposalType)668"},{"astId":689,"contract":"contracts/GovernanceDAO.sol:GovernanceDAO","label":"title","offset":0,"slot":"2","type":"t_string_storage"},{"astId":691,"contract":"contracts/GovernanceDAO.sol:GovernanceDAO","label":"description","offset":0,"slot":"3","type":"t_string_storage"},{"astId":693,"contract":"contracts/GovernanceDAO.sol:GovernanceDAO","label":"calldata_","offset":0,"slot":"4","type":"t_bytes_storage"},{"astId":695,"contract":"contracts/GovernanceDAO.sol:GovernanceDAO","label":"createdAt","offset":0,"slot":"5","type":"t_uint256"},{"astId":697,"contract":"contracts/GovernanceDAO.sol:GovernanceDAO","label":"votingEnds","offset":0,"slot":"6","type":"t_uint256"},{"astId":699,"contract":"contracts/GovernanceDAO.sol:GovernanceDAO","label":"executionTime","offset":0,"slot":"7","type":"t_uint256"},{"astId":701,"contract":"contracts/GovernanceDAO.sol:GovernanceDAO","label":"forVotes","offset":0,"slot":"8","type":"t_uint256"},{"astId":703,"contract":"contracts/GovernanceDAO.sol:GovernanceDAO","label":"againstVotes","offset":0,"slot":"9","type":"t_uint256"},{"astId":705,"contract":"contracts/GovernanceDAO.sol:GovernanceDAO","label":"abstainVotes","offset":0,"slot":"10","type":"t_uint256"},{"astId":707,"contract":"contracts/GovernanceDAO.sol:GovernanceDAO","label":"totalVotingPower","offset":0,"slot":"11","type":"t_uint256"},{"astId":710,"contract":"contracts/GovernanceDAO.sol:GovernanceDAO","label":"status","offset":0,"slot":"12","type":"t_enum(ProposalStatus)676"},{"astId":712,"contract":"contracts/GovernanceDAO.sol:GovernanceDAO","label":"guardianVetoed","offset":1,"slot":"12","type":"t_bool"},{"astId":716,"contract":"contracts/GovernanceDAO.sol:GovernanceDAO","label":"hasVoted","offset":0,"slot":"13","type":"t_mapping(t_address,t_bool)"},{"astId":721,"contract":"contracts/GovernanceDAO.sol:GovernanceDAO","label":"votes","offset":0,"slot":"14","type":"t_mapping(t_address,t_enum(VoteType)680)"}],"numberOfBytes":"480"},"t_struct(RoleData)22_storage":{"encoding":"inplace","label":"struct AccessControl.RoleData","members":[{"astId":19,"contract":"contracts/GovernanceDAO.sol:GovernanceDAO","label":"hasRole","offset":0,"slot":"0","type":"t_mapping(t_address,t_bool)"},{"astId":21,"contract":"contracts/GovernanceDAO.sol:GovernanceDAO","label":"adminRole","offset":0,"slot":"1","type":"t_bytes32"}],"numberOfBytes":"64"},"t_struct(TetrahedronVote)749_storage":{"encoding":"inplace","label":"struct GovernanceDAO.TetrahedronVote","members":[{"astId":737,"contract":"contracts/GovernanceDAO.sol:GovernanceDAO","label":"vertex1","offset":0,"slot":"0","type":"t_address"},{"astId":739,"contract":"contracts/GovernanceDAO.sol:GovernanceDAO","label":"vertex2","offset":0,"slot":"1","type":"t_address"},{"astId":741,"contract":"contracts/GovernanceDAO.sol:GovernanceDAO","label":"vertex3","offset":0,"slot":"2","type":"t_address"},{"astId":743,"contract":"contracts/GovernanceDAO.sol:GovernanceDAO","label":"vertex4","offset":0,"slot":"3","type":"t_address"},{"astId":745,"contract":"contracts/GovernanceDAO.sol:GovernanceDAO","label":"isComplete","offset":20,"slot":"3","type":"t_bool"},{"astId":748,"contract":"contracts/GovernanceDAO.sol:GovernanceDAO","label":"consensusVote","offset":21,"slot":"3","type":"t_enum(VoteType)680"}],"numberOfBytes":"128"},"t_struct(VoterProfile)735_storage":{"encoding":"inplace","label":"struct GovernanceDAO.VoterProfile","members":[{"astId":724,"contract":"contracts/GovernanceDAO.sol:GovernanceDAO","label":"reputation","offset":0,"slot":"0","type":"t_uint256"},{"astId":726,"contract":"contracts/GovernanceDAO.sol:GovernanceDAO","label":"tetrahedronCount","offset":0,"slot":"1","type":"t_uint256"},{"astId":728,"contract":"contracts/GovernanceDAO.sol:GovernanceDAO","label":"proposalsCreated","offset":0,"slot":"2","type":"t_uint256"},{"astId":730,"contract":"contracts/GovernanceDAO.sol:GovernanceDAO","label":"votesCase","offset":0,"slot":"3","type":"t_uint256"},{"astId":732,"contract":"contracts/GovernanceDAO.sol:GovernanceDAO","label":"lastActivityTimestamp","offset":0,"slot":"4","type":"t_uint256"},{"astId":734,"contract":"contracts/GovernanceDAO.sol:GovernanceDAO","label":"isActive","offset":0,"slot":"5","type":"t_bool"}],"numberOfBytes":"192"},"t_uint256":{"encoding":"inplace","label":"uint256","numberOfBytes":"32"}}}}}}