{"contracts/MemorialFundDAO.sol":{"MemorialFundDAO":{"abi":[{"inputs":[],"stateMutability":"nonpayable","type":"constructor"},{"inputs":[],"name":"AccessControlBadConfirmation","type":"error"},{"inputs":[{"internalType":"address","name":"account","type":"address"},{"internalType":"bytes32","name":"neededRole","type":"bytes32"}],"name":"AccessControlUnauthorizedAccount","type":"error"},{"inputs":[],"name":"EnforcedPause","type":"error"},{"inputs":[],"name":"ExpectedPause","type":"error"},{"inputs":[],"name":"ReentrancyGuardReentrantCall","type":"error"},{"anonymous":false,"inputs":[{"indexed":true,"internalType":"uint256","name":"lossId","type":"uint256"},{"indexed":true,"internalType":"address","name":"contributor","type":"address"},{"indexed":false,"internalType":"uint256","name":"amount","type":"uint256"},{"indexed":false,"internalType":"bool","name":"recurring","type":"bool"}],"name":"ContributionReceived","type":"event"},{"anonymous":false,"inputs":[{"indexed":true,"internalType":"uint256","name":"lossId","type":"uint256"},{"indexed":true,"internalType":"address","name":"flaggedBy","type":"address"}],"name":"EmergencyFlagged","type":"event"},{"anonymous":false,"inputs":[{"indexed":true,"internalType":"uint256","name":"lossId","type":"uint256"},{"indexed":true,"internalType":"address","name":"recipient","type":"address"},{"indexed":false,"internalType":"uint256","name":"amount","type":"uint256"},{"indexed":false,"internalType":"uint256","name":"platformFee","type":"uint256"}],"name":"FundsDistributed","type":"event"},{"anonymous":false,"inputs":[{"indexed":true,"internalType":"uint256","name":"lossId","type":"uint256"},{"indexed":true,"internalType":"address","name":"triad","type":"address"},{"indexed":false,"internalType":"enum MemorialFundDAO.LossType","name":"lossType","type":"uint8"},{"indexed":false,"internalType":"uint256","name":"targetAmount","type":"uint256"},{"indexed":false,"internalType":"bool","name":"emergency","type":"bool"}],"name":"LossCreated","type":"event"},{"anonymous":false,"inputs":[{"indexed":true,"internalType":"uint256","name":"lossId","type":"uint256"},{"indexed":true,"internalType":"address","name":"verifier","type":"address"},{"indexed":false,"internalType":"enum MemorialFundDAO.VerificationStatus","name":"status","type":"uint8"}],"name":"LossVerified","type":"event"},{"anonymous":false,"inputs":[{"indexed":true,"internalType":"address","name":"member","type":"address"},{"indexed":false,"internalType":"uint256","name":"timestamp","type":"uint256"}],"name":"MemberJoined","type":"event"},{"anonymous":false,"inputs":[{"indexed":false,"internalType":"address","name":"account","type":"address"}],"name":"Paused","type":"event"},{"anonymous":false,"inputs":[{"indexed":true,"internalType":"address","name":"member","type":"address"},{"indexed":false,"internalType":"uint256","name":"score","type":"uint256"}],"name":"ReciprocityUpdated","type":"event"},{"anonymous":false,"inputs":[{"indexed":true,"internalType":"bytes32","name":"role","type":"bytes32"},{"indexed":true,"internalType":"bytes32","name":"previousAdminRole","type":"bytes32"},{"indexed":true,"internalType":"bytes32","name":"newAdminRole","type":"bytes32"}],"name":"RoleAdminChanged","type":"event"},{"anonymous":false,"inputs":[{"indexed":true,"internalType":"bytes32","name":"role","type":"bytes32"},{"indexed":true,"internalType":"address","name":"account","type":"address"},{"indexed":true,"internalType":"address","name":"sender","type":"address"}],"name":"RoleGranted","type":"event"},{"anonymous":false,"inputs":[{"indexed":true,"internalType":"bytes32","name":"role","type":"bytes32"},{"indexed":true,"internalType":"address","name":"account","type":"address"},{"indexed":true,"internalType":"address","name":"sender","type":"address"}],"name":"RoleRevoked","type":"event"},{"anonymous":false,"inputs":[{"indexed":false,"internalType":"address","name":"account","type":"address"}],"name":"Unpaused","type":"event"},{"inputs":[],"name":"AUTO_APPROVE_THRESHOLD","outputs":[{"internalType":"uint256","name":"","type":"uint256"}],"stateMutability":"view","type":"function"},{"inputs":[],"name":"DAO_ROLE","outputs":[{"internalType":"bytes32","name":"","type":"bytes32"}],"stateMutability":"view","type":"function"},{"inputs":[],"name":"DEFAULT_ADMIN_ROLE","outputs":[{"internalType":"bytes32","name":"","type":"bytes32"}],"stateMutability":"view","type":"function"},{"inputs":[],"name":"EMERGENCY_FAST_TRACK","outputs":[{"internalType":"uint256","name":"","type":"uint256"}],"stateMutability":"view","type":"function"},{"inputs":[],"name":"GUARDIAN_ROLE","outputs":[{"internalType":"bytes32","name":"","type":"bytes32"}],"stateMutability":"view","type":"function"},{"inputs":[],"name":"MAX_LOSS_DURATION","outputs":[{"internalType":"uint256","name":"","type":"uint256"}],"stateMutability":"view","type":"function"},{"inputs":[],"name":"MIN_VESTING_PERIOD","outputs":[{"internalType":"uint256","name":"","type":"uint256"}],"stateMutability":"view","type":"function"},{"inputs":[],"name":"PLATFORM_FEE_BPS","outputs":[{"internalType":"uint256","name":"","type":"uint256"}],"stateMutability":"view","type":"function"},{"inputs":[],"name":"activeLossCount","outputs":[{"internalType":"uint256","name":"","type":"uint256"}],"stateMutability":"view","type":"function"},{"inputs":[{"internalType":"uint256","name":"_lossId","type":"uint256"}],"name":"contribute","outputs":[],"stateMutability":"payable","type":"function"},{"inputs":[{"internalType":"uint256","name":"","type":"uint256"},{"internalType":"address","name":"","type":"address"}],"name":"contributions","outputs":[{"internalType":"address","name":"contributor","type":"address"},{"internalType":"uint256","name":"amount","type":"uint256"},{"internalType":"uint256","name":"timestamp","type":"uint256"},{"internalType":"bool","name":"recurring","type":"bool"},{"internalType":"uint256","name":"recurringEndDate","type":"uint256"}],"stateMutability":"view","type":"function"},{"inputs":[{"internalType":"address payable","name":"_triad","type":"address"},{"internalType":"enum MemorialFundDAO.LossType","name":"_lossType","type":"uint8"},{"internalType":"uint256","name":"_targetAmount","type":"uint256"},{"internalType":"string","name":"_metadataURI","type":"string"},{"internalType":"bool","name":"_emergency","type":"bool"}],"name":"createLoss","outputs":[{"internalType":"uint256","name":"","type":"uint256"}],"stateMutability":"nonpayable","type":"function"},{"inputs":[{"internalType":"uint256","name":"_lossId","type":"uint256"}],"name":"distributeFunds","outputs":[],"stateMutability":"nonpayable","type":"function"},{"inputs":[{"internalType":"uint256","name":"_lossId","type":"uint256"}],"name":"flagEmergency","outputs":[],"stateMutability":"nonpayable","type":"function"},{"inputs":[],"name":"getGlobalStats","outputs":[{"internalType":"uint256","name":"totalLosses","type":"uint256"},{"internalType":"uint256","name":"activeLosses","type":"uint256"},{"internalType":"uint256","name":"totalCollected","type":"uint256"},{"internalType":"uint256","name":"totalDistributed","type":"uint256"},{"internalType":"uint256","name":"successRate","type":"uint256"}],"stateMutability":"view","type":"function"},{"inputs":[{"internalType":"uint256","name":"_lossId","type":"uint256"}],"name":"getLoss","outputs":[{"components":[{"internalType":"uint256","name":"id","type":"uint256"},{"internalType":"address payable","name":"triad","type":"address"},{"internalType":"enum MemorialFundDAO.LossType","name":"lossType","type":"uint8"},{"internalType":"enum MemorialFundDAO.LossStatus","name":"status","type":"uint8"},{"internalType":"enum MemorialFundDAO.VerificationStatus","name":"verificationStatus","type":"uint8"},{"internalType":"uint256","name":"targetAmount","type":"uint256"},{"internalType":"uint256","name":"collectedAmount","type":"uint256"},{"internalType":"uint256","name":"distributedAmount","type":"uint256"},{"internalType":"uint256","name":"createdAt","type":"uint256"},{"internalType":"uint256","name":"expiresAt","type":"uint256"},{"internalType":"uint256","name":"verifiedAt","type":"uint256"},{"internalType":"string","name":"metadataURI","type":"string"},{"internalType":"address[]","name":"contributors","type":"address[]"},{"internalType":"bool","name":"emergencyFlagged","type":"bool"}],"internalType":"struct MemorialFundDAO.Loss","name":"","type":"tuple"}],"stateMutability":"view","type":"function"},{"inputs":[{"internalType":"address","name":"_member","type":"address"}],"name":"getMemberContributions","outputs":[{"internalType":"uint256[]","name":"","type":"uint256[]"}],"stateMutability":"view","type":"function"},{"inputs":[{"internalType":"address","name":"_member","type":"address"}],"name":"getMemberLosses","outputs":[{"internalType":"uint256[]","name":"","type":"uint256[]"}],"stateMutability":"view","type":"function"},{"inputs":[{"internalType":"address","name":"_member","type":"address"}],"name":"getReciprocityScore","outputs":[{"internalType":"uint256","name":"","type":"uint256"}],"stateMutability":"view","type":"function"},{"inputs":[{"internalType":"bytes32","name":"role","type":"bytes32"}],"name":"getRoleAdmin","outputs":[{"internalType":"bytes32","name":"","type":"bytes32"}],"stateMutability":"view","type":"function"},{"inputs":[{"internalType":"bytes32","name":"role","type":"bytes32"},{"internalType":"address","name":"account","type":"address"}],"name":"grantRole","outputs":[],"stateMutability":"nonpayable","type":"function"},{"inputs":[{"internalType":"bytes32","name":"role","type":"bytes32"},{"internalType":"address","name":"account","type":"address"}],"name":"hasRole","outputs":[{"internalType":"bool","name":"","type":"bool"}],"stateMutability":"view","type":"function"},{"inputs":[{"internalType":"uint256","name":"","type":"uint256"},{"internalType":"address","name":"","type":"address"}],"name":"hasVoted","outputs":[{"internalType":"bool","name":"","type":"bool"}],"stateMutability":"view","type":"function"},{"inputs":[{"internalType":"uint256","name":"","type":"uint256"},{"internalType":"uint256","name":"","type":"uint256"}],"name":"lossContributions","outputs":[{"internalType":"uint256","name":"","type":"uint256"}],"stateMutability":"view","type":"function"},{"inputs":[],"name":"lossCounter","outputs":[{"internalType":"uint256","name":"","type":"uint256"}],"stateMutability":"view","type":"function"},{"inputs":[{"internalType":"uint256","name":"","type":"uint256"}],"name":"losses","outputs":[{"internalType":"uint256","name":"id","type":"uint256"},{"internalType":"address payable","name":"triad","type":"address"},{"internalType":"enum MemorialFundDAO.LossType","name":"lossType","type":"uint8"},{"internalType":"enum MemorialFundDAO.LossStatus","name":"status","type":"uint8"},{"internalType":"enum MemorialFundDAO.VerificationStatus","name":"verificationStatus","type":"uint8"},{"internalType":"uint256","name":"targetAmount","type":"uint256"},{"internalType":"uint256","name":"collectedAmount","type":"uint256"},{"internalType":"uint256","name":"distributedAmount","type":"uint256"},{"internalType":"uint256","name":"createdAt","type":"uint256"},{"internalType":"uint256","name":"expiresAt","type":"uint256"},{"internalType":"uint256","name":"verifiedAt","type":"uint256"},{"internalType":"string","name":"metadataURI","type":"string"},{"internalType":"bool","name":"emergencyFlagged","type":"bool"}],"stateMutability":"view","type":"function"},{"inputs":[{"internalType":"address","name":"","type":"address"},{"internalType":"uint256","name":"","type":"uint256"}],"name":"memberContributions","outputs":[{"internalType":"uint256","name":"","type":"uint256"}],"stateMutability":"view","type":"function"},{"inputs":[{"internalType":"address","name":"","type":"address"},{"internalType":"uint256","name":"","type":"uint256"}],"name":"memberLosses","outputs":[{"internalType":"uint256","name":"","type":"uint256"}],"stateMutability":"view","type":"function"},{"inputs":[{"internalType":"address","name":"","type":"address"}],"name":"members","outputs":[{"internalType":"address","name":"wallet","type":"address"},{"internalType":"uint256","name":"totalContributed","type":"uint256"},{"internalType":"uint256","name":"totalReceived","type":"uint256"},{"internalType":"uint256","name":"joinedAt","type":"uint256"},{"internalType":"uint256","name":"reciprocityScore","type":"uint256"},{"internalType":"uint256","name":"reputationScore","type":"uint256"},{"internalType":"bool","name":"isActive","type":"bool"},{"internalType":"bool","name":"inGoodStanding","type":"bool"}],"stateMutability":"view","type":"function"},{"inputs":[],"name":"pause","outputs":[],"stateMutability":"nonpayable","type":"function"},{"inputs":[],"name":"paused","outputs":[{"internalType":"bool","name":"","type":"bool"}],"stateMutability":"view","type":"function"},{"inputs":[{"internalType":"bytes32","name":"role","type":"bytes32"},{"internalType":"address","name":"callerConfirmation","type":"address"}],"name":"renounceRole","outputs":[],"stateMutability":"nonpayable","type":"function"},{"inputs":[{"internalType":"bytes32","name":"role","type":"bytes32"},{"internalType":"address","name":"account","type":"address"}],"name":"revokeRole","outputs":[],"stateMutability":"nonpayable","type":"function"},{"inputs":[{"internalType":"bytes4","name":"interfaceId","type":"bytes4"}],"name":"supportsInterface","outputs":[{"internalType":"bool","name":"","type":"bool"}],"stateMutability":"view","type":"function"},{"inputs":[],"name":"totalFundsCollected","outputs":[{"internalType":"uint256","name":"","type":"uint256"}],"stateMutability":"view","type":"function"},{"inputs":[],"name":"totalFundsDistributed","outputs":[{"internalType":"uint256","name":"","type":"uint256"}],"stateMutability":"view","type":"function"},{"inputs":[],"name":"unpause","outputs":[],"stateMutability":"nonpayable","type":"function"},{"inputs":[{"internalType":"uint256","name":"_lossId","type":"uint256"},{"internalType":"bool","name":"_approved","type":"bool"}],"name":"verifyLoss","outputs":[],"stateMutability":"nonpayable","type":"function"},{"inputs":[{"internalType":"uint256","name":"","type":"uint256"}],"name":"votesAgainst","outputs":[{"internalType":"uint256","name":"","type":"uint256"}],"stateMutability":"view","type":"function"},{"inputs":[{"internalType":"uint256","name":"","type":"uint256"}],"name":"votesFor","outputs":[{"internalType":"uint256","name":"","type":"uint256"}],"stateMutability":"view","type":"function"},{"inputs":[],"name":"withdrawPlatformFees","outputs":[],"stateMutability":"nonpayable","type":"function"},{"stateMutability":"payable","type":"receive"}],"evm":{"bytecode":{"linkReferences":{},"object":"608060405234620000435760016000556200001a3362000048565b506200002633620000c9565b5062000032336200016c565b5060405161259c90816200020b8239f35b600080fd5b6001600160a01b031660008181527fa6eef7e35abe7026729641147f7915573c7e97b47efa546f5f6e3230263bcb49602052604081205490919060ff16620000c55781805260016020526040822081835260205260408220600160ff198254161790553391600080516020620027a78339815191528180a4600190565b5090565b6001600160a01b031660008181527fe8fad4b49f5ba25b2c682cfec2ac50a7a40bbd1e12ab51733ec3e9c2f6f1c5db60205260408120549091907f55435dd261a4b9b3364963f7738a7a662ad9c84396d64be3365284bb7f0a50419060ff16620001675780835260016020526040832082845260205260408320600160ff19825416179055600080516020620027a7833981519152339380a4600190565b505090565b6001600160a01b031660008181527f84433e072bc3ac3c18226f9f21b50875aa98e54f9cd054a671364d170e03666160205260408120549091907f3b5d4cc60d3ec3516ee8ae083bd60934f6eb2a6c54b1229985c41bfb092b26039060ff16620001675780835260016020526040832082845260205260408320600160ff19825416179055600080516020620027a7833981519152339380a460019056fe608080604052600436101561001d575b50361561001b57600080fd5b005b60003560e01c90816301ffc9a714611e9c575080630294fa3b14611e7157806303b41d7e14611e3857806308ae4b0c14611da757806319bee47414611d8957806323b4a99814611d5d578063248a9ca314611d2e57806324ea54f414611cf35780632f2ff15d14611cb45780632fbbd1eb14611c3c57806336568abe14611bf55780633d891f5914611b7a5780633f4ba83a14611b105780634385963214611ac35780634b46887014611a9f5780634c203fcd14611a17578063539aa77f146119fb5780635c975abb146119d85780636b4169c3146119695780637d3024941461168a578063803faffb1461166c5780638456cb591461161257806391d14854146115c557806399bb5215146114cd578063a0c206c514610da3578063a217fddf14610d87578063a3e7544114610d3d578063a480f3ff14610d1f578063a8db456e14610ca0578063b582efa914610c82578063b7f3b59714610c56578063c1cbbca714610874578063c85fcbe814610856578063cde7720c14610839578063d0b7830b14610760578063d547741f14610721578063e931bed8146106c9578063e9c265181461068e578063ecf040081461054f578063f58a6d60146105315763f726f715146101ed573861000f565b3461052c5760208060031936011261052c5760043580151580610520575b61021490612373565b61021c612355565b6102246123b5565b806000526007825260406000206001810180549060ff8260a81c1661024881611f84565b6001811490811561050c575b50156104d3576003830154916004840192835494858211156104965760ff8360b01c16600481101561048057600203610447578060ff600a88930154166103d3575b506102a0916123d8565b9260c8840284810460c814851517156103bd576127106102cc9104946102c686826123d8565b96612304565b905560ff60a81b1916600360a81b1781556004546102eb908490612304565b60045560065480156103bd576000190160065560018060a01b039081815416600052600886526002604060002001610324858254612304565b905561033282825416612515565b600080808087868654165af1610346612405565b501561038657917fbf69083e799a399c42e9ab19a3fc8b662ec522df69bb2d998588cbcf199c7dfb93916040935416958351928352820152a36001600055005b60405162461bcd60e51b815260048101879052600f60248201526e151c985b9cd9995c8819985a5b1959608a1b6044820152606490fd5b634e487b7160e01b600052601160045260246000fd5b600591500154610e1081018091116103bd5742106103f2578438610296565b60405162461bcd60e51b815260048101889052602760248201527f456d657267656e637920666173742d747261636b20706572696f64206e6f7420604482015266195b185c1cd95960ca1b6064820152608490fd5b60405162461bcd60e51b8152600481018990526011602482015270131bdcdcc81b9bdd081d995c9a599a5959607a1b6044820152606490fd5b634e487b7160e01b600052602160045260246000fd5b60405162461bcd60e51b81526004810189905260156024820152744e6f7468696e6720746f206469737472696275746560581b6044820152606490fd5b60405162461bcd60e51b815260048101869052601160248201527043616e6e6f74206469737472696275746560781b6044820152606490fd5b6002915061051981611f84565b1438610254565b5060035481111561020b565b600080fd5b3461052c57600036600319011261052c576020600554604051908152f35b3461052c57604036600319011261052c57600435602435801515810361052c5761057761218b565b81151580610682575b61058990612373565b81600052600760205260406000206001810190815460ff8160b01c1660048110156104805760010361063d5760ff9315610626575081544260079092019190915561ffff60a81b191661020160a81b1781556006546105e790612311565b6006555b5460b01c16906105fe6040518093611f8e565b7fc91dee0149a505b9d0f5dc99868f1776b067c22face0f95e90a74e02872cf11360203393a3005b61ffff60a81b191661030560a81b178255506105eb565b60405162461bcd60e51b815260206004820152601860248201527f4e6f742070656e64696e6720766572696669636174696f6e00000000000000006044820152606490fd5b50600354821115610580565b3461052c57600036600319011261052c5760206040517f3b5d4cc60d3ec3516ee8ae083bd60934f6eb2a6c54b1229985c41bfb092b26038152f35b3461052c57604036600319011261052c576106e2611eef565b6001600160a01b03166000908152600b602052604090208054602435919082101561052c5760209161071391611f1b565b90546040519160031b1c8152f35b3461052c57604036600319011261052c5761001b600435610740611f05565b9080600052600160205261075b6001604060002001546121e7565b61228d565b3461052c57600036600319011261052c57610779612133565b6107816123b5565b4760045480821160001461083057610798916123d8565b80156107f557600080808093335af16107af612405565b50156107bc576001600055005b60405162461bcd60e51b815260206004820152601160248201527015da5d1a191c985dd85b0819985a5b1959607a1b6044820152606490fd5b60405162461bcd60e51b81526020600482015260136024820152724e6f206665657320746f20776974686472617760681b6044820152606490fd5b50506000610798565b3461052c57600036600319011261052c576020604051610e108152f35b3461052c57600036600319011261052c5760206040516276a7008152f35b60208060031936011261052c576004359081151580610c4a575b61089790612373565b81600052600781526001918260ff816040600020015460a81c166108ba81611f84565b03610c13578060005260078252600660406000200154421015610bdf576108df612355565b6108e76123b5565b3415610ba8579081839260005260078252604060002091600981526040600020336000528152836040600020015415610b4d575b816000526009815260406000203360005281526040600020916bffffffffffffffffffffffff60a01b9233848254161790558060005260098252604060002033600052825284604060002001610972348254612304565b9055806000526009825260406000203360005282524260026040600020015560038401926109a1348554612304565b84556109af34600554612304565b600555336000526008835260ff6006604060002001541615610a66575b503360005260088252846040600020016109e7348254612304565b905533600052600c82526109ff816040600020612320565b610a0833612515565b6000604051923484528301527fe3a3c4f3cdaa1ed257de7ec52114e6f93de7e08963cb632caa2587432c94a44260403393a35460028201541115610a4d575b50600055005b01805460ff60a81b1916600160a91b1790558082610a47565b82610b066006604051610a7881612032565b338152838101600081526040820160008152606083014281526080840191600083528d60a08601946064865260c087019a828c52600860e089019b848d52336000525260406000209760018060a01b039051169088541617875551908601555160028501555160038401555160048301555160058201550192511515839060ff801983541691151516179055565b51151561ff0082549160081b169061ff0019161790556040514281527f7f3b9effe05cfb4f31f854004de03199fd03fe56bf38a48b2aa9a9f4402d6e23833392a2866109cc565b6009830180549450600160401b851015610b925784610b7191878097018155611f1b565b81546001600160a01b0360039290921b91821b19163390911b17905561091b565b634e487b7160e01b600052604160045260246000fd5b60405162461bcd60e51b815260048101839052600f60248201526e4d7573742073656e642066756e647360881b6044820152606490fd5b60405162461bcd60e51b815260048101839052600c60248201526b131bdcdcc8195e1c1a5c995960a21b6044820152606490fd5b60405162461bcd60e51b815260048101839052600f60248201526e4c6f7373206e6f742061637469766560881b6044820152606490fd5b5060035482111561088e565b3461052c57602036600319011261052c57600435600052600e6020526020604060002054604051908152f35b3461052c57600036600319011261052c576020600654604051908152f35b3461052c57602036600319011261052c57600435610cbc61218b565b80151580610d13575b610cce90612373565b806000526007602052600a604060002001600160ff1982541617905533907fd5527ac2295f918eb5c9a6121c8e0f29bef54c4b25de1f98331d541ffec71407600080a3005b50600354811115610cc5565b3461052c57600036600319011261052c576020600354604051908152f35b3461052c57604036600319011261052c57610d56611eef565b6001600160a01b03166000908152600c602052604090208054602435919082101561052c5760209161071391611f1b565b3461052c57600036600319011261052c57602060405160008152f35b3461052c5760a036600319011261052c576004356001600160a01b038116810361052c576006602435101561052c576064359067ffffffffffffffff821161052c573660238301121561052c578160040135610dfe81612117565b92610e0c604051948561204f565b818452366024838301011161052c5781600092602460209301838701378401015260843515156084350361052c5733600052600860205260ff60066040600020015416156114945733600052600860205260ff60066040600020015460081c1615611458573360005260086020526003604060002001546276a70081018091116103bd57421061141357610e9e612355565b6001600160a01b038116156113d6576044351561139c5760018060a01b038116600052600b6020526040600020906040518083602082955493848152019060005260206000209260005b818110611383575050610efd9250038361204f565b60005b82518110156110e35760208160051b840101516000526007602052604060002060405190610f2d82612015565b8054825260018101546001600160a01b038116602084015260a081901c60ff16610f5681611f84565b604084015260ff8160a81c16610f6b81611f84565b6060840152600460ff8260b01c1610156104805760b01c60ff166080830152600281015460a0830152600381015460c0830152600481015460e0830152600581015461010083015260068101546101208301526007810154610140830152610fd560088201612071565b610160830152600981016040519081602082549182815201916000526020600020906000905b8082106110c1575050509181611017600a9360ff95038261204f565b61018085015201541615156101a0820152683635c9adc5dea0000060a0820151101590816110a4575b506110535761104e90612311565b610f00565b60405162461bcd60e51b8152602060048201526024808201527f52617465206c696d69743a2031206d616a6f72207265717565737420706572206044820152633cb2b0b960e11b6064820152608490fd5b610100915001516301e1338081018091116103bd57421085611040565b82546001600160a01b0316845260209093019260019283019290910190610ffb565b50826110f0600354612311565b918260035582600052600760205260406000209283556001830154611116602435611f84565b6001600160a81b0319166001600160a01b0382161760243560a01b60ff60a01b161760018401556044356002840155426005840181905562ed4e0081019081106103bd57600684015581519267ffffffffffffffff8411610b925761117e6008820154611fdb565b93601f851161133c575b6020945084601f82116001146112d057819293946000926112c5575b50508160011b916000199060031b1c19161760088201555b6111d7608435600a83019060ff801983541691151516179055565b683635c9adc5dea000006044351080156112bc575b156112a25760018101805461ffff60a81b191661020160a81b1790554260079091015560065461121b90612311565b6006555b6001600160a01b0381166000908152600b83526040902060035461124291612320565b60035490817f3e72682ca35c0fc274bd79b3cce2934f296f83c47a89340b35dc62322403a6b7606060405193611279602435611f84565b602435855260443587860152608435151560408601526001600160a01b031693a3604051908152f35b600101805461ffff60a81b1916600160b01b17905561121f565b506084356111ec565b0151905085806111a4565b60088301600052856000209060005b601f19841681106113255750600193949583601f1981161061130c575b505050811b0160088201556111bc565b015160001960f88460031b161c191690558580806112fc565b90918760018192858a0151815501930191016112df565b600882016000526020600020601f820160051c81016020831061137c575b601f870160051c82018110611370575050611188565b6000815560010161135a565b508061135a565b8454835260019485019487945060209093019201610ee8565b60405162461bcd60e51b81526020600482015260126024820152710546172676574206d757374206265203e20360741b6044820152606490fd5b60405162461bcd60e51b8152602060048201526015602482015274496e76616c6964207472696164206164647265737360581b6044820152606490fd5b60405162461bcd60e51b815260206004820152601b60248201527f56657374696e6720706572696f64206e6f7420636f6d706c65746500000000006044820152606490fd5b60405162461bcd60e51b81526020600482015260146024820152734e6f7420696e20676f6f64207374616e64696e6760601b6044820152606490fd5b60405162461bcd60e51b81526020600482015260116024820152702737ba1030b1ba34bb329036b2b6b132b960791b6044820152606490fd5b3461052c57602036600319011261052c5760043560005260076020526040806000208054906115b860018201549160ff8360a01c169260ff8160a81c16906002830154600384015460048501549060058601549261158560068801549560078901549760ff600a61154060088d01612071565b9b0154169b8e519e8f9e8f90815260018060a01b038516602082015261156583611f84565b015261157081611f84565b60608d015260ff60808d019160b01c16611f8e565b60a08a015260c089015260e08801526101008701526101208601526101408501526101a080610160860152840190611f9b565b9015156101808301520390f35b3461052c57604036600319011261052c576115de611f05565b600435600052600160205260406000209060018060a01b0316600052602052602060ff604060002054166040519015158152f35b3461052c57600036600319011261052c5761162b612133565b611633612355565b600160ff1960025416176002557f62e78cea01bee320cd4e420270b5ea74000d11b0c9f74754ebdbfc544b05a2586020604051338152a1005b3461052c57600036600319011261052c57602060405162ed4e008152f35b3461052c57602036600319011261052c5760043560006101a06040516116af81612015565b8281528260208201528260408201528260608201528260808201528260a08201528260c08201528260e08201528261010082015282610120820152826101408201526060610160820152606061018082015201528015158061195d575b61171590612373565b600052600760205260406000206040519061172f82612015565b8054825260018101546001600160a01b038116602084015260a081901c60ff1661175881611f84565b604084015260ff8160a81c1661176d81611f84565b6060840152600460ff8260b01c1610156104805760b01c60ff166080830152600281015460a0830152600381015460c0830152600481015460e08301526005810154610100830152600681015461012083015260078101546101408301526117d760088201612071565b6101608301526040518060098301906020825491828152019160005260206000209060005b81811061193e578660ff600a8888611816818a038261204f565b61018085015201541615156101a08201526040805160208082528351818301528301516001600160a01b0316818301529082015161185381611f84565b6060820152606082015161186681611f84565b608082015261187d608083015160a0830190611f8e565b60a082015160c082015260c082015160e082015260e08201516101008201526101008201516101208201526101208201516101408201526101408201516101608201526101608201516118df6101c091826101808501526101e0840190611f9b565b9061018084015191601f19848203016101a08501526020808451928381520193019060005b81811061191f575050506101a0839401511515908301520390f35b82516001600160a01b0316855260209485019490920191600101611904565b82546001600160a01b03168452602090930192600192830192016117fc565b5060035481111561170c565b3461052c57600036600319011261052c576003546006546005546004549092919082156119cd576064810293818504606414821517156103bd576119af8160a0966123e5565b925b6040519485526020850152604084015260608301526080820152f35b60a0936000926119b1565b3461052c57600036600319011261052c57602060ff600254166040519015158152f35b3461052c57600036600319011261052c57602060405160c88152f35b3461052c5760208060031936011261052c576001600160a01b03611a39611eef565b16600052600c8152604060002090604051908181845491828152019360005281600020916000905b828210611a8857611a8485611a788189038261204f565b60405191829182611f49565b0390f35b835486529485019460019384019390910190611a61565b3461052c57600036600319011261052c576020604051683635c9adc5dea000008152f35b3461052c57604036600319011261052c57611adc611f05565b600435600052600d60205260406000209060018060a01b0316600052602052602060ff604060002054166040519015158152f35b3461052c57600036600319011261052c57611b29612133565b60025460ff811615611b685760ff19166002557f5db9ee0a495bf2e6ff9c91a7834c1ba4fdd244a5e8aa4e537bd38aeae4b073aa6020604051338152a1005b604051638dfc202b60e01b8152600490fd5b3461052c57604036600319011261052c5760a0611b95611f05565b60043560005260096020526040600020600180841b03809216600052602052604060002090815416906001810154906002810154600460ff6003840154169201549260405194855260208501526040840152151560608301526080820152f35b3461052c57604036600319011261052c57611c0e611f05565b336001600160a01b03821603611c2a5761001b9060043561228d565b60405163334bd91960e11b8152600490fd5b3461052c5760208060031936011261052c576001600160a01b03611c5e611eef565b16600052600b8152604060002090604051908181845491828152019360005281600020916000905b828210611c9d57611a8485611a788189038261204f565b835486529485019460019384019390910190611c86565b3461052c57604036600319011261052c5761001b600435611cd3611f05565b90806000526001602052611cee6001604060002001546121e7565b61220d565b3461052c57600036600319011261052c5760206040517f55435dd261a4b9b3364963f7738a7a662ad9c84396d64be3365284bb7f0a50418152f35b3461052c57602036600319011261052c5760043560005260016020526020600160406000200154604051908152f35b3461052c57602036600319011261052c57600435600052600f6020526020604060002054604051908152f35b3461052c57600036600319011261052c576020600454604051908152f35b3461052c57602036600319011261052c576101006001600160a01b0380611dcc611eef565b16600052600860205260ff60406000209182541691600181015490600281015460038201546004830154916006600585015494015494604051978852602088015260408701526060860152608085015260a0840152818116151560c084015260081c16151560e0820152f35b3461052c57604036600319011261052c57602435600435600052600a6020526040600020805482101561052c5760209161071391611f1b565b3461052c57602036600319011261052c576020611e94611e8f611eef565b612435565b604051908152f35b3461052c57602036600319011261052c576004359063ffffffff60e01b821680920361052c57602091637965db0b60e01b8114908115611ede575b5015158152f35b6301ffc9a760e01b14905083611ed7565b600435906001600160a01b038216820361052c57565b602435906001600160a01b038216820361052c57565b8054821015611f335760005260206000200190600090565b634e487b7160e01b600052603260045260246000fd5b6020908160408183019282815285518094520193019160005b828110611f70575050505090565b835185529381019392810192600101611f62565b6006111561048057565b9060048210156104805752565b919082519283825260005b848110611fc7575050826000602080949584010152601f8019910116010190565b602081830181015184830182015201611fa6565b90600182811c9216801561200b575b6020831014611ff557565b634e487b7160e01b600052602260045260246000fd5b91607f1691611fea565b6101c0810190811067ffffffffffffffff821117610b9257604052565b610100810190811067ffffffffffffffff821117610b9257604052565b90601f8019910116810190811067ffffffffffffffff821117610b9257604052565b906040519182600082549261208584611fdb565b9081845260019485811690816000146120f457506001146120b1575b50506120af9250038361204f565b565b9093915060005260209081600020936000915b8183106120dc5750506120af935082010138806120a1565b855488840185015294850194879450918301916120c4565b9150506120af94506020925060ff191682840152151560051b82010138806120a1565b67ffffffffffffffff8111610b9257601f01601f191660200190565b3360009081527fa6eef7e35abe7026729641147f7915573c7e97b47efa546f5f6e3230263bcb49602052604081205460ff161561216d5750565b6044906040519063e2517d3f60e01b82523360048301526024820152fd5b3360009081527fe8fad4b49f5ba25b2c682cfec2ac50a7a40bbd1e12ab51733ec3e9c2f6f1c5db60205260409020547f55435dd261a4b9b3364963f7738a7a662ad9c84396d64be3365284bb7f0a50419060ff161561216d5750565b80600052600160205260406000203360005260205260ff604060002054161561216d5750565b906000918083526001602052604083209160018060a01b03169182845260205260ff604084205416156000146122885780835260016020526040832082845260205260408320600160ff198254161790557f2f8788117e7eff1d82e926ec794901d17c78024a50270940304540a733656f0d339380a4600190565b505090565b906000918083526001602052604083209160018060a01b03169182845260205260ff604084205416600014612288578083526001602052604083208284526020526040832060ff1981541690557ff6391f5c32d9c69d2a47ea670b442974b53935d1edc7fd64eb21e047a839171b339380a4600190565b919082018092116103bd57565b60001981146103bd5760010190565b8054600160401b811015610b925761233d91600182018155611f1b565b819291549060031b91821b91600019901b1916179055565b60ff6002541661236157565b60405163d93c066560e01b8152600490fd5b1561237a57565b60405162461bcd60e51b8152602060048201526013602482015272131bdcdcc8191bd95cc81b9bdd08195e1a5cdd606a1b6044820152606490fd5b6002600054146123c6576002600055565b604051633ee5aeb560e01b8152600490fd5b919082039182116103bd57565b81156123ef570490565b634e487b7160e01b600052601260045260246000fd5b3d15612430573d9061241682612117565b91612424604051938461204f565b82523d6000602084013e565b606090565b6001600160a01b0390811660009081526008602052604080822090519093919261245e82612032565b8454168152600184015493602082019185835260e060ff60066002850154948560408601526003810154606086015260048101546080860152600581015460a08601520154818116151560c085015260081c16151591015280156124ff576124c891929394612304565b90516064810290808204606414901517156124eb576124e89293506123e5565b90565b634e487b7160e01b84526011600452602484fd5b50909215905061250f5750606490565b60ff1690565b7f14f51a27a51605d079f5a233d10786b96a4f13e78bebd8f3891724619e0561cc602061254183612435565b9260018060a01b031692836000526008825280600460406000200155604051908152a256fea2646970667358221220cdbbcd52b82cfcafd934d14d582c39a8609650779936a796134b5be9109809c664736f6c634300081400332f8788117e7eff1d82e926ec794901d17c78024a50270940304540a733656f0d","opcodes":"PUSH1 0x80 PUSH1 0x40 MSTORE CALLVALUE PUSH3 0x43 JUMPI PUSH1 0x1 PUSH1 0x0 SSTORE PUSH3 0x1A CALLER PUSH3 0x48 JUMP JUMPDEST POP PUSH3 0x26 CALLER PUSH3 0xC9 JUMP JUMPDEST POP PUSH3 0x32 CALLER PUSH3 0x16C JUMP JUMPDEST POP PUSH1 0x40 MLOAD PUSH2 0x259C SWAP1 DUP2 PUSH3 0x20B DUP3 CODECOPY RETURN JUMPDEST PUSH1 0x0 DUP1 REVERT JUMPDEST PUSH1 0x1 PUSH1 0x1 PUSH1 0xA0 SHL SUB AND PUSH1 0x0 DUP2 DUP2 MSTORE PUSH32 0xA6EEF7E35ABE7026729641147F7915573C7E97B47EFA546F5F6E3230263BCB49 PUSH1 0x20 MSTORE PUSH1 0x40 DUP2 KECCAK256 SLOAD SWAP1 SWAP2 SWAP1 PUSH1 0xFF AND PUSH3 0xC5 JUMPI DUP2 DUP1 MSTORE PUSH1 0x1 PUSH1 0x20 MSTORE PUSH1 0x40 DUP3 KECCAK256 DUP2 DUP4 MSTORE PUSH1 0x20 MSTORE PUSH1 0x40 DUP3 KECCAK256 PUSH1 0x1 PUSH1 0xFF NOT DUP3 SLOAD AND OR SWAP1 SSTORE CALLER SWAP2 PUSH1 0x0 DUP1 MLOAD PUSH1 0x20 PUSH3 0x27A7 DUP4 CODECOPY DUP2 MLOAD SWAP2 MSTORE DUP2 DUP1 LOG4 PUSH1 0x1 SWAP1 JUMP JUMPDEST POP SWAP1 JUMP JUMPDEST PUSH1 0x1 PUSH1 0x1 PUSH1 0xA0 SHL SUB AND PUSH1 0x0 DUP2 DUP2 MSTORE PUSH32 0xE8FAD4B49F5BA25B2C682CFEC2AC50A7A40BBD1E12AB51733EC3E9C2F6F1C5DB PUSH1 0x20 MSTORE PUSH1 0x40 DUP2 KECCAK256 SLOAD SWAP1 SWAP2 SWAP1 PUSH32 0x55435DD261A4B9B3364963F7738A7A662AD9C84396D64BE3365284BB7F0A5041 SWAP1 PUSH1 0xFF AND PUSH3 0x167 JUMPI DUP1 DUP4 MSTORE PUSH1 0x1 PUSH1 0x20 MSTORE PUSH1 0x40 DUP4 KECCAK256 DUP3 DUP5 MSTORE PUSH1 0x20 MSTORE PUSH1 0x40 DUP4 KECCAK256 PUSH1 0x1 PUSH1 0xFF NOT DUP3 SLOAD AND OR SWAP1 SSTORE PUSH1 0x0 DUP1 MLOAD PUSH1 0x20 PUSH3 0x27A7 DUP4 CODECOPY DUP2 MLOAD SWAP2 MSTORE CALLER SWAP4 DUP1 LOG4 PUSH1 0x1 SWAP1 JUMP JUMPDEST POP POP SWAP1 JUMP JUMPDEST PUSH1 0x1 PUSH1 0x1 PUSH1 0xA0 SHL SUB AND PUSH1 0x0 DUP2 DUP2 MSTORE PUSH32 0x84433E072BC3AC3C18226F9F21B50875AA98E54F9CD054A671364D170E036661 PUSH1 0x20 MSTORE PUSH1 0x40 DUP2 KECCAK256 SLOAD SWAP1 SWAP2 SWAP1 PUSH32 0x3B5D4CC60D3EC3516EE8AE083BD60934F6EB2A6C54B1229985C41BFB092B2603 SWAP1 PUSH1 0xFF AND PUSH3 0x167 JUMPI DUP1 DUP4 MSTORE PUSH1 0x1 PUSH1 0x20 MSTORE PUSH1 0x40 DUP4 KECCAK256 DUP3 DUP5 MSTORE PUSH1 0x20 MSTORE PUSH1 0x40 DUP4 KECCAK256 PUSH1 0x1 PUSH1 0xFF NOT DUP3 SLOAD AND OR SWAP1 SSTORE PUSH1 0x0 DUP1 MLOAD PUSH1 0x20 PUSH3 0x27A7 DUP4 CODECOPY DUP2 MLOAD SWAP2 MSTORE CALLER SWAP4 DUP1 LOG4 PUSH1 0x1 SWAP1 JUMP INVALID PUSH1 0x80 DUP1 PUSH1 0x40 MSTORE PUSH1 0x4 CALLDATASIZE LT ISZERO PUSH2 0x1D JUMPI JUMPDEST POP CALLDATASIZE ISZERO PUSH2 0x1B JUMPI PUSH1 0x0 DUP1 REVERT JUMPDEST STOP JUMPDEST PUSH1 0x0 CALLDATALOAD PUSH1 0xE0 SHR SWAP1 DUP2 PUSH4 0x1FFC9A7 EQ PUSH2 0x1E9C JUMPI POP DUP1 PUSH4 0x294FA3B EQ PUSH2 0x1E71 JUMPI DUP1 PUSH4 0x3B41D7E EQ PUSH2 0x1E38 JUMPI DUP1 PUSH4 0x8AE4B0C EQ PUSH2 0x1DA7 JUMPI DUP1 PUSH4 0x19BEE474 EQ PUSH2 0x1D89 JUMPI DUP1 PUSH4 0x23B4A998 EQ PUSH2 0x1D5D JUMPI DUP1 PUSH4 0x248A9CA3 EQ PUSH2 0x1D2E JUMPI DUP1 PUSH4 0x24EA54F4 EQ PUSH2 0x1CF3 JUMPI DUP1 PUSH4 0x2F2FF15D EQ PUSH2 0x1CB4 JUMPI DUP1 PUSH4 0x2FBBD1EB EQ PUSH2 0x1C3C JUMPI DUP1 PUSH4 0x36568ABE EQ PUSH2 0x1BF5 JUMPI DUP1 PUSH4 0x3D891F59 EQ PUSH2 0x1B7A JUMPI DUP1 PUSH4 0x3F4BA83A EQ PUSH2 0x1B10 JUMPI DUP1 PUSH4 0x43859632 EQ PUSH2 0x1AC3 JUMPI DUP1 PUSH4 0x4B468870 EQ PUSH2 0x1A9F JUMPI DUP1 PUSH4 0x4C203FCD EQ PUSH2 0x1A17 JUMPI DUP1 PUSH4 0x539AA77F EQ PUSH2 0x19FB JUMPI DUP1 PUSH4 0x5C975ABB EQ PUSH2 0x19D8 JUMPI DUP1 PUSH4 0x6B4169C3 EQ PUSH2 0x1969 JUMPI DUP1 PUSH4 0x7D302494 EQ PUSH2 0x168A JUMPI DUP1 PUSH4 0x803FAFFB EQ PUSH2 0x166C JUMPI DUP1 PUSH4 0x8456CB59 EQ PUSH2 0x1612 JUMPI DUP1 PUSH4 0x91D14854 EQ PUSH2 0x15C5 JUMPI DUP1 PUSH4 0x99BB5215 EQ PUSH2 0x14CD JUMPI DUP1 PUSH4 0xA0C206C5 EQ PUSH2 0xDA3 JUMPI DUP1 PUSH4 0xA217FDDF EQ PUSH2 0xD87 JUMPI DUP1 PUSH4 0xA3E75441 EQ PUSH2 0xD3D JUMPI DUP1 PUSH4 0xA480F3FF EQ PUSH2 0xD1F JUMPI DUP1 PUSH4 0xA8DB456E EQ PUSH2 0xCA0 JUMPI DUP1 PUSH4 0xB582EFA9 EQ PUSH2 0xC82 JUMPI DUP1 PUSH4 0xB7F3B597 EQ PUSH2 0xC56 JUMPI DUP1 PUSH4 0xC1CBBCA7 EQ PUSH2 0x874 JUMPI DUP1 PUSH4 0xC85FCBE8 EQ PUSH2 0x856 JUMPI DUP1 PUSH4 0xCDE7720C EQ PUSH2 0x839 JUMPI DUP1 PUSH4 0xD0B7830B EQ PUSH2 0x760 JUMPI DUP1 PUSH4 0xD547741F EQ PUSH2 0x721 JUMPI DUP1 PUSH4 0xE931BED8 EQ PUSH2 0x6C9 JUMPI DUP1 PUSH4 0xE9C26518 EQ PUSH2 0x68E JUMPI DUP1 PUSH4 0xECF04008 EQ PUSH2 0x54F JUMPI DUP1 PUSH4 0xF58A6D60 EQ PUSH2 0x531 JUMPI PUSH4 0xF726F715 EQ PUSH2 0x1ED JUMPI CODESIZE PUSH2 0xF JUMP JUMPDEST CALLVALUE PUSH2 0x52C JUMPI PUSH1 0x20 DUP1 PUSH1 0x3 NOT CALLDATASIZE ADD SLT PUSH2 0x52C JUMPI PUSH1 0x4 CALLDATALOAD DUP1 ISZERO ISZERO DUP1 PUSH2 0x520 JUMPI JUMPDEST PUSH2 0x214 SWAP1 PUSH2 0x2373 JUMP JUMPDEST PUSH2 0x21C PUSH2 0x2355 JUMP JUMPDEST PUSH2 0x224 PUSH2 0x23B5 JUMP JUMPDEST DUP1 PUSH1 0x0 MSTORE PUSH1 0x7 DUP3 MSTORE PUSH1 0x40 PUSH1 0x0 KECCAK256 PUSH1 0x1 DUP2 ADD DUP1 SLOAD SWAP1 PUSH1 0xFF DUP3 PUSH1 0xA8 SHR AND PUSH2 0x248 DUP2 PUSH2 0x1F84 JUMP JUMPDEST PUSH1 0x1 DUP2 EQ SWAP1 DUP2 ISZERO PUSH2 0x50C JUMPI JUMPDEST POP ISZERO PUSH2 0x4D3 JUMPI PUSH1 0x3 DUP4 ADD SLOAD SWAP2 PUSH1 0x4 DUP5 ADD SWAP3 DUP4 SLOAD SWAP5 DUP6 DUP3 GT ISZERO PUSH2 0x496 JUMPI PUSH1 0xFF DUP4 PUSH1 0xB0 SHR AND PUSH1 0x4 DUP2 LT ISZERO PUSH2 0x480 JUMPI PUSH1 0x2 SUB PUSH2 0x447 JUMPI DUP1 PUSH1 0xFF PUSH1 0xA DUP9 SWAP4 ADD SLOAD AND PUSH2 0x3D3 JUMPI JUMPDEST POP PUSH2 0x2A0 SWAP2 PUSH2 0x23D8 JUMP JUMPDEST SWAP3 PUSH1 0xC8 DUP5 MUL DUP5 DUP2 DIV PUSH1 0xC8 EQ DUP6 ISZERO OR ISZERO PUSH2 0x3BD JUMPI PUSH2 0x2710 PUSH2 0x2CC SWAP2 DIV SWAP5 PUSH2 0x2C6 DUP7 DUP3 PUSH2 0x23D8 JUMP JUMPDEST SWAP7 PUSH2 0x2304 JUMP JUMPDEST SWAP1 SSTORE PUSH1 0xFF PUSH1 0xA8 SHL NOT AND PUSH1 0x3 PUSH1 0xA8 SHL OR DUP2 SSTORE PUSH1 0x4 SLOAD PUSH2 0x2EB SWAP1 DUP5 SWAP1 PUSH2 0x2304 JUMP JUMPDEST PUSH1 0x4 SSTORE PUSH1 0x6 SLOAD DUP1 ISZERO PUSH2 0x3BD JUMPI PUSH1 0x0 NOT ADD PUSH1 0x6 SSTORE PUSH1 0x1 DUP1 PUSH1 0xA0 SHL SUB SWAP1 DUP2 DUP2 SLOAD AND PUSH1 0x0 MSTORE PUSH1 0x8 DUP7 MSTORE PUSH1 0x2 PUSH1 0x40 PUSH1 0x0 KECCAK256 ADD PUSH2 0x324 DUP6 DUP3 SLOAD PUSH2 0x2304 JUMP JUMPDEST SWAP1 SSTORE PUSH2 0x332 DUP3 DUP3 SLOAD AND PUSH2 0x2515 JUMP JUMPDEST PUSH1 0x0 DUP1 DUP1 DUP1 DUP8 DUP7 DUP7 SLOAD AND GAS CALL PUSH2 0x346 PUSH2 0x2405 JUMP JUMPDEST POP ISZERO PUSH2 0x386 JUMPI SWAP2 PUSH32 0xBF69083E799A399C42E9AB19A3FC8B662EC522DF69BB2D998588CBCF199C7DFB SWAP4 SWAP2 PUSH1 0x40 SWAP4 SLOAD AND SWAP6 DUP4 MLOAD SWAP3 DUP4 MSTORE DUP3 ADD MSTORE LOG3 PUSH1 0x1 PUSH1 0x0 SSTORE STOP JUMPDEST PUSH1 0x40 MLOAD PUSH3 0x461BCD PUSH1 0xE5 SHL DUP2 MSTORE PUSH1 0x4 DUP2 ADD DUP8 SWAP1 MSTORE PUSH1 0xF PUSH1 0x24 DUP3 ADD MSTORE PUSH15 0x151C985B9CD9995C8819985A5B1959 PUSH1 0x8A SHL PUSH1 0x44 DUP3 ADD MSTORE PUSH1 0x64 SWAP1 REVERT JUMPDEST PUSH4 0x4E487B71 PUSH1 0xE0 SHL PUSH1 0x0 MSTORE PUSH1 0x11 PUSH1 0x4 MSTORE PUSH1 0x24 PUSH1 0x0 REVERT JUMPDEST PUSH1 0x5 SWAP2 POP ADD SLOAD PUSH2 0xE10 DUP2 ADD DUP1 SWAP2 GT PUSH2 0x3BD JUMPI TIMESTAMP LT PUSH2 0x3F2 JUMPI DUP5 CODESIZE PUSH2 0x296 JUMP JUMPDEST PUSH1 0x40 MLOAD PUSH3 0x461BCD PUSH1 0xE5 SHL DUP2 MSTORE PUSH1 0x4 DUP2 ADD DUP9 SWAP1 MSTORE PUSH1 0x27 PUSH1 0x24 DUP3 ADD MSTORE PUSH32 0x456D657267656E637920666173742D747261636B20706572696F64206E6F7420 PUSH1 0x44 DUP3 ADD MSTORE PUSH7 0x195B185C1CD959 PUSH1 0xCA SHL PUSH1 0x64 DUP3 ADD MSTORE PUSH1 0x84 SWAP1 REVERT JUMPDEST PUSH1 0x40 MLOAD PUSH3 0x461BCD PUSH1 0xE5 SHL DUP2 MSTORE PUSH1 0x4 DUP2 ADD DUP10 SWAP1 MSTORE PUSH1 0x11 PUSH1 0x24 DUP3 ADD MSTORE PUSH17 0x131BDCDCC81B9BDD081D995C9A599A5959 PUSH1 0x7A SHL PUSH1 0x44 DUP3 ADD MSTORE PUSH1 0x64 SWAP1 REVERT JUMPDEST PUSH4 0x4E487B71 PUSH1 0xE0 SHL PUSH1 0x0 MSTORE PUSH1 0x21 PUSH1 0x4 MSTORE PUSH1 0x24 PUSH1 0x0 REVERT JUMPDEST PUSH1 0x40 MLOAD PUSH3 0x461BCD PUSH1 0xE5 SHL DUP2 MSTORE PUSH1 0x4 DUP2 ADD DUP10 SWAP1 MSTORE PUSH1 0x15 PUSH1 0x24 DUP3 ADD MSTORE PUSH21 0x4E6F7468696E6720746F2064697374726962757465 PUSH1 0x58 SHL PUSH1 0x44 DUP3 ADD MSTORE PUSH1 0x64 SWAP1 REVERT JUMPDEST PUSH1 0x40 MLOAD PUSH3 0x461BCD PUSH1 0xE5 SHL DUP2 MSTORE PUSH1 0x4 DUP2 ADD DUP7 SWAP1 MSTORE PUSH1 0x11 PUSH1 0x24 DUP3 ADD MSTORE PUSH17 0x43616E6E6F742064697374726962757465 PUSH1 0x78 SHL PUSH1 0x44 DUP3 ADD MSTORE PUSH1 0x64 SWAP1 REVERT JUMPDEST PUSH1 0x2 SWAP2 POP PUSH2 0x519 DUP2 PUSH2 0x1F84 JUMP JUMPDEST EQ CODESIZE PUSH2 0x254 JUMP JUMPDEST POP PUSH1 0x3 SLOAD DUP2 GT ISZERO PUSH2 0x20B JUMP JUMPDEST PUSH1 0x0 DUP1 REVERT JUMPDEST CALLVALUE PUSH2 0x52C JUMPI PUSH1 0x0 CALLDATASIZE PUSH1 0x3 NOT ADD SLT PUSH2 0x52C JUMPI PUSH1 0x20 PUSH1 0x5 SLOAD PUSH1 0x40 MLOAD SWAP1 DUP2 MSTORE RETURN JUMPDEST CALLVALUE PUSH2 0x52C JUMPI PUSH1 0x40 CALLDATASIZE PUSH1 0x3 NOT ADD SLT PUSH2 0x52C JUMPI PUSH1 0x4 CALLDATALOAD PUSH1 0x24 CALLDATALOAD DUP1 ISZERO ISZERO DUP2 SUB PUSH2 0x52C JUMPI PUSH2 0x577 PUSH2 0x218B JUMP JUMPDEST DUP2 ISZERO ISZERO DUP1 PUSH2 0x682 JUMPI JUMPDEST PUSH2 0x589 SWAP1 PUSH2 0x2373 JUMP JUMPDEST DUP2 PUSH1 0x0 MSTORE PUSH1 0x7 PUSH1 0x20 MSTORE PUSH1 0x40 PUSH1 0x0 KECCAK256 PUSH1 0x1 DUP2 ADD SWAP1 DUP2 SLOAD PUSH1 0xFF DUP2 PUSH1 0xB0 SHR AND PUSH1 0x4 DUP2 LT ISZERO PUSH2 0x480 JUMPI PUSH1 0x1 SUB PUSH2 0x63D JUMPI PUSH1 0xFF SWAP4 ISZERO PUSH2 0x626 JUMPI POP DUP2 SLOAD TIMESTAMP PUSH1 0x7 SWAP1 SWAP3 ADD SWAP2 SWAP1 SWAP2 SSTORE PUSH2 0xFFFF PUSH1 0xA8 SHL NOT AND PUSH2 0x201 PUSH1 0xA8 SHL OR DUP2 SSTORE PUSH1 0x6 SLOAD PUSH2 0x5E7 SWAP1 PUSH2 0x2311 JUMP JUMPDEST PUSH1 0x6 SSTORE JUMPDEST SLOAD PUSH1 0xB0 SHR AND SWAP1 PUSH2 0x5FE PUSH1 0x40 MLOAD DUP1 SWAP4 PUSH2 0x1F8E JUMP JUMPDEST PUSH32 0xC91DEE0149A505B9D0F5DC99868F1776B067C22FACE0F95E90A74E02872CF113 PUSH1 0x20 CALLER SWAP4 LOG3 STOP JUMPDEST PUSH2 0xFFFF PUSH1 0xA8 SHL NOT AND PUSH2 0x305 PUSH1 0xA8 SHL OR DUP3 SSTORE POP PUSH2 0x5EB JUMP JUMPDEST PUSH1 0x40 MLOAD PUSH3 0x461BCD PUSH1 0xE5 SHL DUP2 MSTORE PUSH1 0x20 PUSH1 0x4 DUP3 ADD MSTORE PUSH1 0x18 PUSH1 0x24 DUP3 ADD MSTORE PUSH32 0x4E6F742070656E64696E6720766572696669636174696F6E0000000000000000 PUSH1 0x44 DUP3 ADD MSTORE PUSH1 0x64 SWAP1 REVERT JUMPDEST POP PUSH1 0x3 SLOAD DUP3 GT ISZERO PUSH2 0x580 JUMP JUMPDEST CALLVALUE PUSH2 0x52C JUMPI PUSH1 0x0 CALLDATASIZE PUSH1 0x3 NOT ADD SLT PUSH2 0x52C JUMPI PUSH1 0x20 PUSH1 0x40 MLOAD PUSH32 0x3B5D4CC60D3EC3516EE8AE083BD60934F6EB2A6C54B1229985C41BFB092B2603 DUP2 MSTORE RETURN JUMPDEST CALLVALUE PUSH2 0x52C JUMPI PUSH1 0x40 CALLDATASIZE PUSH1 0x3 NOT ADD SLT PUSH2 0x52C JUMPI PUSH2 0x6E2 PUSH2 0x1EEF JUMP JUMPDEST PUSH1 0x1 PUSH1 0x1 PUSH1 0xA0 SHL SUB AND PUSH1 0x0 SWAP1 DUP2 MSTORE PUSH1 0xB PUSH1 0x20 MSTORE PUSH1 0x40 SWAP1 KECCAK256 DUP1 SLOAD PUSH1 0x24 CALLDATALOAD SWAP2 SWAP1 DUP3 LT ISZERO PUSH2 0x52C JUMPI PUSH1 0x20 SWAP2 PUSH2 0x713 SWAP2 PUSH2 0x1F1B JUMP JUMPDEST SWAP1 SLOAD PUSH1 0x40 MLOAD SWAP2 PUSH1 0x3 SHL SHR DUP2 MSTORE RETURN JUMPDEST CALLVALUE PUSH2 0x52C JUMPI PUSH1 0x40 CALLDATASIZE PUSH1 0x3 NOT ADD SLT PUSH2 0x52C JUMPI PUSH2 0x1B PUSH1 0x4 CALLDATALOAD PUSH2 0x740 PUSH2 0x1F05 JUMP JUMPDEST SWAP1 DUP1 PUSH1 0x0 MSTORE PUSH1 0x1 PUSH1 0x20 MSTORE PUSH2 0x75B PUSH1 0x1 PUSH1 0x40 PUSH1 0x0 KECCAK256 ADD SLOAD PUSH2 0x21E7 JUMP JUMPDEST PUSH2 0x228D JUMP JUMPDEST CALLVALUE PUSH2 0x52C JUMPI PUSH1 0x0 CALLDATASIZE PUSH1 0x3 NOT ADD SLT PUSH2 0x52C JUMPI PUSH2 0x779 PUSH2 0x2133 JUMP JUMPDEST PUSH2 0x781 PUSH2 0x23B5 JUMP JUMPDEST SELFBALANCE PUSH1 0x4 SLOAD DUP1 DUP3 GT PUSH1 0x0 EQ PUSH2 0x830 JUMPI PUSH2 0x798 SWAP2 PUSH2 0x23D8 JUMP JUMPDEST DUP1 ISZERO PUSH2 0x7F5 JUMPI PUSH1 0x0 DUP1 DUP1 DUP1 SWAP4 CALLER GAS CALL PUSH2 0x7AF PUSH2 0x2405 JUMP JUMPDEST POP ISZERO PUSH2 0x7BC JUMPI PUSH1 0x1 PUSH1 0x0 SSTORE STOP JUMPDEST PUSH1 0x40 MLOAD PUSH3 0x461BCD PUSH1 0xE5 SHL DUP2 MSTORE PUSH1 0x20 PUSH1 0x4 DUP3 ADD MSTORE PUSH1 0x11 PUSH1 0x24 DUP3 ADD MSTORE PUSH17 0x15DA5D1A191C985DD85B0819985A5B1959 PUSH1 0x7A SHL PUSH1 0x44 DUP3 ADD MSTORE PUSH1 0x64 SWAP1 REVERT JUMPDEST PUSH1 0x40 MLOAD PUSH3 0x461BCD PUSH1 0xE5 SHL DUP2 MSTORE PUSH1 0x20 PUSH1 0x4 DUP3 ADD MSTORE PUSH1 0x13 PUSH1 0x24 DUP3 ADD MSTORE PUSH19 0x4E6F206665657320746F207769746864726177 PUSH1 0x68 SHL PUSH1 0x44 DUP3 ADD MSTORE PUSH1 0x64 SWAP1 REVERT JUMPDEST POP POP PUSH1 0x0 PUSH2 0x798 JUMP JUMPDEST CALLVALUE PUSH2 0x52C JUMPI PUSH1 0x0 CALLDATASIZE PUSH1 0x3 NOT ADD SLT PUSH2 0x52C JUMPI PUSH1 0x20 PUSH1 0x40 MLOAD PUSH2 0xE10 DUP2 MSTORE RETURN JUMPDEST CALLVALUE PUSH2 0x52C JUMPI PUSH1 0x0 CALLDATASIZE PUSH1 0x3 NOT ADD SLT PUSH2 0x52C JUMPI PUSH1 0x20 PUSH1 0x40 MLOAD PUSH3 0x76A700 DUP2 MSTORE RETURN JUMPDEST PUSH1 0x20 DUP1 PUSH1 0x3 NOT CALLDATASIZE ADD SLT PUSH2 0x52C JUMPI PUSH1 0x4 CALLDATALOAD SWAP1 DUP2 ISZERO ISZERO DUP1 PUSH2 0xC4A JUMPI JUMPDEST PUSH2 0x897 SWAP1 PUSH2 0x2373 JUMP JUMPDEST DUP2 PUSH1 0x0 MSTORE PUSH1 0x7 DUP2 MSTORE PUSH1 0x1 SWAP2 DUP3 PUSH1 0xFF DUP2 PUSH1 0x40 PUSH1 0x0 KECCAK256 ADD SLOAD PUSH1 0xA8 SHR AND PUSH2 0x8BA DUP2 PUSH2 0x1F84 JUMP JUMPDEST SUB PUSH2 0xC13 JUMPI DUP1 PUSH1 0x0 MSTORE PUSH1 0x7 DUP3 MSTORE PUSH1 0x6 PUSH1 0x40 PUSH1 0x0 KECCAK256 ADD SLOAD TIMESTAMP LT ISZERO PUSH2 0xBDF JUMPI PUSH2 0x8DF PUSH2 0x2355 JUMP JUMPDEST PUSH2 0x8E7 PUSH2 0x23B5 JUMP JUMPDEST CALLVALUE ISZERO PUSH2 0xBA8 JUMPI SWAP1 DUP2 DUP4 SWAP3 PUSH1 0x0 MSTORE PUSH1 0x7 DUP3 MSTORE PUSH1 0x40 PUSH1 0x0 KECCAK256 SWAP2 PUSH1 0x9 DUP2 MSTORE PUSH1 0x40 PUSH1 0x0 KECCAK256 CALLER PUSH1 0x0 MSTORE DUP2 MSTORE DUP4 PUSH1 0x40 PUSH1 0x0 KECCAK256 ADD SLOAD ISZERO PUSH2 0xB4D JUMPI JUMPDEST DUP2 PUSH1 0x0 MSTORE PUSH1 0x9 DUP2 MSTORE PUSH1 0x40 PUSH1 0x0 KECCAK256 CALLER PUSH1 0x0 MSTORE DUP2 MSTORE PUSH1 0x40 PUSH1 0x0 KECCAK256 SWAP2 PUSH12 0xFFFFFFFFFFFFFFFFFFFFFFFF PUSH1 0xA0 SHL SWAP3 CALLER DUP5 DUP3 SLOAD AND OR SWAP1 SSTORE DUP1 PUSH1 0x0 MSTORE PUSH1 0x9 DUP3 MSTORE PUSH1 0x40 PUSH1 0x0 KECCAK256 CALLER PUSH1 0x0 MSTORE DUP3 MSTORE DUP5 PUSH1 0x40 PUSH1 0x0 KECCAK256 ADD PUSH2 0x972 CALLVALUE DUP3 SLOAD PUSH2 0x2304 JUMP JUMPDEST SWAP1 SSTORE DUP1 PUSH1 0x0 MSTORE PUSH1 0x9 DUP3 MSTORE PUSH1 0x40 PUSH1 0x0 KECCAK256 CALLER PUSH1 0x0 MSTORE DUP3 MSTORE TIMESTAMP PUSH1 0x2 PUSH1 0x40 PUSH1 0x0 KECCAK256 ADD SSTORE PUSH1 0x3 DUP5 ADD SWAP3 PUSH2 0x9A1 CALLVALUE DUP6 SLOAD PUSH2 0x2304 JUMP JUMPDEST DUP5 SSTORE PUSH2 0x9AF CALLVALUE PUSH1 0x5 SLOAD PUSH2 0x2304 JUMP JUMPDEST PUSH1 0x5 SSTORE CALLER PUSH1 0x0 MSTORE PUSH1 0x8 DUP4 MSTORE PUSH1 0xFF PUSH1 0x6 PUSH1 0x40 PUSH1 0x0 KECCAK256 ADD SLOAD AND ISZERO PUSH2 0xA66 JUMPI JUMPDEST POP CALLER PUSH1 0x0 MSTORE PUSH1 0x8 DUP3 MSTORE DUP5 PUSH1 0x40 PUSH1 0x0 KECCAK256 ADD PUSH2 0x9E7 CALLVALUE DUP3 SLOAD PUSH2 0x2304 JUMP JUMPDEST SWAP1 SSTORE CALLER PUSH1 0x0 MSTORE PUSH1 0xC DUP3 MSTORE PUSH2 0x9FF DUP2 PUSH1 0x40 PUSH1 0x0 KECCAK256 PUSH2 0x2320 JUMP JUMPDEST PUSH2 0xA08 CALLER PUSH2 0x2515 JUMP JUMPDEST PUSH1 0x0 PUSH1 0x40 MLOAD SWAP3 CALLVALUE DUP5 MSTORE DUP4 ADD MSTORE PUSH32 0xE3A3C4F3CDAA1ED257DE7EC52114E6F93DE7E08963CB632CAA2587432C94A442 PUSH1 0x40 CALLER SWAP4 LOG3 SLOAD PUSH1 0x2 DUP3 ADD SLOAD GT ISZERO PUSH2 0xA4D JUMPI JUMPDEST POP PUSH1 0x0 SSTORE STOP JUMPDEST ADD DUP1 SLOAD PUSH1 0xFF PUSH1 0xA8 SHL NOT AND PUSH1 0x1 PUSH1 0xA9 SHL OR SWAP1 SSTORE DUP1 DUP3 PUSH2 0xA47 JUMP JUMPDEST DUP3 PUSH2 0xB06 PUSH1 0x6 PUSH1 0x40 MLOAD PUSH2 0xA78 DUP2 PUSH2 0x2032 JUMP JUMPDEST CALLER DUP2 MSTORE DUP4 DUP2 ADD PUSH1 0x0 DUP2 MSTORE PUSH1 0x40 DUP3 ADD PUSH1 0x0 DUP2 MSTORE PUSH1 0x60 DUP4 ADD TIMESTAMP DUP2 MSTORE PUSH1 0x80 DUP5 ADD SWAP2 PUSH1 0x0 DUP4 MSTORE DUP14 PUSH1 0xA0 DUP7 ADD SWAP5 PUSH1 0x64 DUP7 MSTORE PUSH1 0xC0 DUP8 ADD SWAP11 DUP3 DUP13 MSTORE PUSH1 0x8 PUSH1 0xE0 DUP10 ADD SWAP12 DUP5 DUP14 MSTORE CALLER PUSH1 0x0 MSTORE MSTORE PUSH1 0x40 PUSH1 0x0 KECCAK256 SWAP8 PUSH1 0x1 DUP1 PUSH1 0xA0 SHL SUB SWAP1 MLOAD AND SWAP1 DUP9 SLOAD AND OR DUP8 SSTORE MLOAD SWAP1 DUP7 ADD SSTORE MLOAD PUSH1 0x2 DUP6 ADD SSTORE MLOAD PUSH1 0x3 DUP5 ADD SSTORE MLOAD PUSH1 0x4 DUP4 ADD SSTORE MLOAD PUSH1 0x5 DUP3 ADD SSTORE ADD SWAP3 MLOAD ISZERO ISZERO DUP4 SWAP1 PUSH1 0xFF DUP1 NOT DUP4 SLOAD AND SWAP2 ISZERO ISZERO AND OR SWAP1 SSTORE JUMP JUMPDEST MLOAD ISZERO ISZERO PUSH2 0xFF00 DUP3 SLOAD SWAP2 PUSH1 0x8 SHL AND SWAP1 PUSH2 0xFF00 NOT AND OR SWAP1 SSTORE PUSH1 0x40 MLOAD TIMESTAMP DUP2 MSTORE PUSH32 0x7F3B9EFFE05CFB4F31F854004DE03199FD03FE56BF38A48B2AA9A9F4402D6E23 DUP4 CALLER SWAP3 LOG2 DUP7 PUSH2 0x9CC JUMP JUMPDEST PUSH1 0x9 DUP4 ADD DUP1 SLOAD SWAP5 POP PUSH1 0x1 PUSH1 0x40 SHL DUP6 LT ISZERO PUSH2 0xB92 JUMPI DUP5 PUSH2 0xB71 SWAP2 DUP8 DUP1 SWAP8 ADD DUP2 SSTORE PUSH2 0x1F1B JUMP JUMPDEST DUP2 SLOAD PUSH1 0x1 PUSH1 0x1 PUSH1 0xA0 SHL SUB PUSH1 0x3 SWAP3 SWAP1 SWAP3 SHL SWAP2 DUP3 SHL NOT AND CALLER SWAP1 SWAP2 SHL OR SWAP1 SSTORE PUSH2 0x91B JUMP JUMPDEST PUSH4 0x4E487B71 PUSH1 0xE0 SHL PUSH1 0x0 MSTORE PUSH1 0x41 PUSH1 0x4 MSTORE PUSH1 0x24 PUSH1 0x0 REVERT JUMPDEST PUSH1 0x40 MLOAD PUSH3 0x461BCD PUSH1 0xE5 SHL DUP2 MSTORE PUSH1 0x4 DUP2 ADD DUP4 SWAP1 MSTORE PUSH1 0xF PUSH1 0x24 DUP3 ADD MSTORE PUSH15 0x4D7573742073656E642066756E6473 PUSH1 0x88 SHL PUSH1 0x44 DUP3 ADD MSTORE PUSH1 0x64 SWAP1 REVERT JUMPDEST PUSH1 0x40 MLOAD PUSH3 0x461BCD PUSH1 0xE5 SHL DUP2 MSTORE PUSH1 0x4 DUP2 ADD DUP4 SWAP1 MSTORE PUSH1 0xC PUSH1 0x24 DUP3 ADD MSTORE PUSH12 0x131BDCDCC8195E1C1A5C9959 PUSH1 0xA2 SHL PUSH1 0x44 DUP3 ADD MSTORE PUSH1 0x64 SWAP1 REVERT JUMPDEST PUSH1 0x40 MLOAD PUSH3 0x461BCD PUSH1 0xE5 SHL DUP2 MSTORE PUSH1 0x4 DUP2 ADD DUP4 SWAP1 MSTORE PUSH1 0xF PUSH1 0x24 DUP3 ADD MSTORE PUSH15 0x4C6F7373206E6F7420616374697665 PUSH1 0x88 SHL PUSH1 0x44 DUP3 ADD MSTORE PUSH1 0x64 SWAP1 REVERT JUMPDEST POP PUSH1 0x3 SLOAD DUP3 GT ISZERO PUSH2 0x88E JUMP JUMPDEST CALLVALUE PUSH2 0x52C JUMPI PUSH1 0x20 CALLDATASIZE PUSH1 0x3 NOT ADD SLT PUSH2 0x52C JUMPI PUSH1 0x4 CALLDATALOAD PUSH1 0x0 MSTORE PUSH1 0xE PUSH1 0x20 MSTORE PUSH1 0x20 PUSH1 0x40 PUSH1 0x0 KECCAK256 SLOAD PUSH1 0x40 MLOAD SWAP1 DUP2 MSTORE RETURN JUMPDEST CALLVALUE PUSH2 0x52C JUMPI PUSH1 0x0 CALLDATASIZE PUSH1 0x3 NOT ADD SLT PUSH2 0x52C JUMPI PUSH1 0x20 PUSH1 0x6 SLOAD PUSH1 0x40 MLOAD SWAP1 DUP2 MSTORE RETURN JUMPDEST CALLVALUE PUSH2 0x52C JUMPI PUSH1 0x20 CALLDATASIZE PUSH1 0x3 NOT ADD SLT PUSH2 0x52C JUMPI PUSH1 0x4 CALLDATALOAD PUSH2 0xCBC PUSH2 0x218B JUMP JUMPDEST DUP1 ISZERO ISZERO DUP1 PUSH2 0xD13 JUMPI JUMPDEST PUSH2 0xCCE SWAP1 PUSH2 0x2373 JUMP JUMPDEST DUP1 PUSH1 0x0 MSTORE PUSH1 0x7 PUSH1 0x20 MSTORE PUSH1 0xA PUSH1 0x40 PUSH1 0x0 KECCAK256 ADD PUSH1 0x1 PUSH1 0xFF NOT DUP3 SLOAD AND OR SWAP1 SSTORE CALLER SWAP1 PUSH32 0xD5527AC2295F918EB5C9A6121C8E0F29BEF54C4B25DE1F98331D541FFEC71407 PUSH1 0x0 DUP1 LOG3 STOP JUMPDEST POP PUSH1 0x3 SLOAD DUP2 GT ISZERO PUSH2 0xCC5 JUMP JUMPDEST CALLVALUE PUSH2 0x52C JUMPI PUSH1 0x0 CALLDATASIZE PUSH1 0x3 NOT ADD SLT PUSH2 0x52C JUMPI PUSH1 0x20 PUSH1 0x3 SLOAD PUSH1 0x40 MLOAD SWAP1 DUP2 MSTORE RETURN JUMPDEST CALLVALUE PUSH2 0x52C JUMPI PUSH1 0x40 CALLDATASIZE PUSH1 0x3 NOT ADD SLT PUSH2 0x52C JUMPI PUSH2 0xD56 PUSH2 0x1EEF JUMP JUMPDEST PUSH1 0x1 PUSH1 0x1 PUSH1 0xA0 SHL SUB AND PUSH1 0x0 SWAP1 DUP2 MSTORE PUSH1 0xC PUSH1 0x20 MSTORE PUSH1 0x40 SWAP1 KECCAK256 DUP1 SLOAD PUSH1 0x24 CALLDATALOAD SWAP2 SWAP1 DUP3 LT ISZERO PUSH2 0x52C JUMPI PUSH1 0x20 SWAP2 PUSH2 0x713 SWAP2 PUSH2 0x1F1B JUMP JUMPDEST CALLVALUE PUSH2 0x52C JUMPI PUSH1 0x0 CALLDATASIZE PUSH1 0x3 NOT ADD SLT PUSH2 0x52C JUMPI PUSH1 0x20 PUSH1 0x40 MLOAD PUSH1 0x0 DUP2 MSTORE RETURN JUMPDEST CALLVALUE PUSH2 0x52C JUMPI PUSH1 0xA0 CALLDATASIZE PUSH1 0x3 NOT ADD SLT PUSH2 0x52C JUMPI PUSH1 0x4 CALLDATALOAD PUSH1 0x1 PUSH1 0x1 PUSH1 0xA0 SHL SUB DUP2 AND DUP2 SUB PUSH2 0x52C JUMPI PUSH1 0x6 PUSH1 0x24 CALLDATALOAD LT ISZERO PUSH2 0x52C JUMPI PUSH1 0x64 CALLDATALOAD SWAP1 PUSH8 0xFFFFFFFFFFFFFFFF DUP3 GT PUSH2 0x52C JUMPI CALLDATASIZE PUSH1 0x23 DUP4 ADD SLT ISZERO PUSH2 0x52C JUMPI DUP2 PUSH1 0x4 ADD CALLDATALOAD PUSH2 0xDFE DUP2 PUSH2 0x2117 JUMP JUMPDEST SWAP3 PUSH2 0xE0C PUSH1 0x40 MLOAD SWAP5 DUP6 PUSH2 0x204F JUMP JUMPDEST DUP2 DUP5 MSTORE CALLDATASIZE PUSH1 0x24 DUP4 DUP4 ADD ADD GT PUSH2 0x52C JUMPI DUP2 PUSH1 0x0 SWAP3 PUSH1 0x24 PUSH1 0x20 SWAP4 ADD DUP4 DUP8 ADD CALLDATACOPY DUP5 ADD ADD MSTORE PUSH1 0x84 CALLDATALOAD ISZERO ISZERO PUSH1 0x84 CALLDATALOAD SUB PUSH2 0x52C JUMPI CALLER PUSH1 0x0 MSTORE PUSH1 0x8 PUSH1 0x20 MSTORE PUSH1 0xFF PUSH1 0x6 PUSH1 0x40 PUSH1 0x0 KECCAK256 ADD SLOAD AND ISZERO PUSH2 0x1494 JUMPI CALLER PUSH1 0x0 MSTORE PUSH1 0x8 PUSH1 0x20 MSTORE PUSH1 0xFF PUSH1 0x6 PUSH1 0x40 PUSH1 0x0 KECCAK256 ADD SLOAD PUSH1 0x8 SHR AND ISZERO PUSH2 0x1458 JUMPI CALLER PUSH1 0x0 MSTORE PUSH1 0x8 PUSH1 0x20 MSTORE PUSH1 0x3 PUSH1 0x40 PUSH1 0x0 KECCAK256 ADD SLOAD PUSH3 0x76A700 DUP2 ADD DUP1 SWAP2 GT PUSH2 0x3BD JUMPI TIMESTAMP LT PUSH2 0x1413 JUMPI PUSH2 0xE9E PUSH2 0x2355 JUMP JUMPDEST PUSH1 0x1 PUSH1 0x1 PUSH1 0xA0 SHL SUB DUP2 AND ISZERO PUSH2 0x13D6 JUMPI PUSH1 0x44 CALLDATALOAD ISZERO PUSH2 0x139C JUMPI PUSH1 0x1 DUP1 PUSH1 0xA0 SHL SUB DUP2 AND PUSH1 0x0 MSTORE PUSH1 0xB PUSH1 0x20 MSTORE PUSH1 0x40 PUSH1 0x0 KECCAK256 SWAP1 PUSH1 0x40 MLOAD DUP1 DUP4 PUSH1 0x20 DUP3 SWAP6 SLOAD SWAP4 DUP5 DUP2 MSTORE ADD SWAP1 PUSH1 0x0 MSTORE PUSH1 0x20 PUSH1 0x0 KECCAK256 SWAP3 PUSH1 0x0 JUMPDEST DUP2 DUP2 LT PUSH2 0x1383 JUMPI POP POP PUSH2 0xEFD SWAP3 POP SUB DUP4 PUSH2 0x204F JUMP JUMPDEST PUSH1 0x0 JUMPDEST DUP3 MLOAD DUP2 LT ISZERO PUSH2 0x10E3 JUMPI PUSH1 0x20 DUP2 PUSH1 0x5 SHL DUP5 ADD ADD MLOAD PUSH1 0x0 MSTORE PUSH1 0x7 PUSH1 0x20 MSTORE PUSH1 0x40 PUSH1 0x0 KECCAK256 PUSH1 0x40 MLOAD SWAP1 PUSH2 0xF2D DUP3 PUSH2 0x2015 JUMP JUMPDEST DUP1 SLOAD DUP3 MSTORE PUSH1 0x1 DUP2 ADD SLOAD PUSH1 0x1 PUSH1 0x1 PUSH1 0xA0 SHL SUB DUP2 AND PUSH1 0x20 DUP5 ADD MSTORE PUSH1 0xA0 DUP2 SWAP1 SHR PUSH1 0xFF AND PUSH2 0xF56 DUP2 PUSH2 0x1F84 JUMP JUMPDEST PUSH1 0x40 DUP5 ADD MSTORE PUSH1 0xFF DUP2 PUSH1 0xA8 SHR AND PUSH2 0xF6B DUP2 PUSH2 0x1F84 JUMP JUMPDEST PUSH1 0x60 DUP5 ADD MSTORE PUSH1 0x4 PUSH1 0xFF DUP3 PUSH1 0xB0 SHR AND LT ISZERO PUSH2 0x480 JUMPI PUSH1 0xB0 SHR PUSH1 0xFF AND PUSH1 0x80 DUP4 ADD MSTORE PUSH1 0x2 DUP2 ADD SLOAD PUSH1 0xA0 DUP4 ADD MSTORE PUSH1 0x3 DUP2 ADD SLOAD PUSH1 0xC0 DUP4 ADD MSTORE PUSH1 0x4 DUP2 ADD SLOAD PUSH1 0xE0 DUP4 ADD MSTORE PUSH1 0x5 DUP2 ADD SLOAD PUSH2 0x100 DUP4 ADD MSTORE PUSH1 0x6 DUP2 ADD SLOAD PUSH2 0x120 DUP4 ADD MSTORE PUSH1 0x7 DUP2 ADD SLOAD PUSH2 0x140 DUP4 ADD MSTORE PUSH2 0xFD5 PUSH1 0x8 DUP3 ADD PUSH2 0x2071 JUMP JUMPDEST PUSH2 0x160 DUP4 ADD MSTORE PUSH1 0x9 DUP2 ADD PUSH1 0x40 MLOAD SWAP1 DUP2 PUSH1 0x20 DUP3 SLOAD SWAP2 DUP3 DUP2 MSTORE ADD SWAP2 PUSH1 0x0 MSTORE PUSH1 0x20 PUSH1 0x0 KECCAK256 SWAP1 PUSH1 0x0 SWAP1 JUMPDEST DUP1 DUP3 LT PUSH2 0x10C1 JUMPI POP POP POP SWAP2 DUP2 PUSH2 0x1017 PUSH1 0xA SWAP4 PUSH1 0xFF SWAP6 SUB DUP3 PUSH2 0x204F JUMP JUMPDEST PUSH2 0x180 DUP6 ADD MSTORE ADD SLOAD AND ISZERO ISZERO PUSH2 0x1A0 DUP3 ADD MSTORE PUSH9 0x3635C9ADC5DEA00000 PUSH1 0xA0 DUP3 ADD MLOAD LT ISZERO SWAP1 DUP2 PUSH2 0x10A4 JUMPI JUMPDEST POP PUSH2 0x1053 JUMPI PUSH2 0x104E SWAP1 PUSH2 0x2311 JUMP JUMPDEST PUSH2 0xF00 JUMP JUMPDEST PUSH1 0x40 MLOAD PUSH3 0x461BCD PUSH1 0xE5 SHL DUP2 MSTORE PUSH1 0x20 PUSH1 0x4 DUP3 ADD MSTORE PUSH1 0x24 DUP1 DUP3 ADD MSTORE PUSH32 0x52617465206C696D69743A2031206D616A6F7220726571756573742070657220 PUSH1 0x44 DUP3 ADD MSTORE PUSH4 0x3CB2B0B9 PUSH1 0xE1 SHL PUSH1 0x64 DUP3 ADD MSTORE PUSH1 0x84 SWAP1 REVERT JUMPDEST PUSH2 0x100 SWAP2 POP ADD MLOAD PUSH4 0x1E13380 DUP2 ADD DUP1 SWAP2 GT PUSH2 0x3BD JUMPI TIMESTAMP LT DUP6 PUSH2 0x1040 JUMP JUMPDEST DUP3 SLOAD PUSH1 0x1 PUSH1 0x1 PUSH1 0xA0 SHL SUB AND DUP5 MSTORE PUSH1 0x20 SWAP1 SWAP4 ADD SWAP3 PUSH1 0x1 SWAP3 DUP4 ADD SWAP3 SWAP1 SWAP2 ADD SWAP1 PUSH2 0xFFB JUMP JUMPDEST POP DUP3 PUSH2 0x10F0 PUSH1 0x3 SLOAD PUSH2 0x2311 JUMP JUMPDEST SWAP2 DUP3 PUSH1 0x3 SSTORE DUP3 PUSH1 0x0 MSTORE PUSH1 0x7 PUSH1 0x20 MSTORE PUSH1 0x40 PUSH1 0x0 KECCAK256 SWAP3 DUP4 SSTORE PUSH1 0x1 DUP4 ADD SLOAD PUSH2 0x1116 PUSH1 0x24 CALLDATALOAD PUSH2 0x1F84 JUMP JUMPDEST PUSH1 0x1 PUSH1 0x1 PUSH1 0xA8 SHL SUB NOT AND PUSH1 0x1 PUSH1 0x1 PUSH1 0xA0 SHL SUB DUP3 AND OR PUSH1 0x24 CALLDATALOAD PUSH1 0xA0 SHL PUSH1 0xFF PUSH1 0xA0 SHL AND OR PUSH1 0x1 DUP5 ADD SSTORE PUSH1 0x44 CALLDATALOAD PUSH1 0x2 DUP5 ADD SSTORE TIMESTAMP PUSH1 0x5 DUP5 ADD DUP2 SWAP1 SSTORE PUSH3 0xED4E00 DUP2 ADD SWAP1 DUP2 LT PUSH2 0x3BD JUMPI PUSH1 0x6 DUP5 ADD SSTORE DUP2 MLOAD SWAP3 PUSH8 0xFFFFFFFFFFFFFFFF DUP5 GT PUSH2 0xB92 JUMPI PUSH2 0x117E PUSH1 0x8 DUP3 ADD SLOAD PUSH2 0x1FDB JUMP JUMPDEST SWAP4 PUSH1 0x1F DUP6 GT PUSH2 0x133C JUMPI JUMPDEST PUSH1 0x20 SWAP5 POP DUP5 PUSH1 0x1F DUP3 GT PUSH1 0x1 EQ PUSH2 0x12D0 JUMPI DUP2 SWAP3 SWAP4 SWAP5 PUSH1 0x0 SWAP3 PUSH2 0x12C5 JUMPI JUMPDEST POP POP DUP2 PUSH1 0x1 SHL SWAP2 PUSH1 0x0 NOT SWAP1 PUSH1 0x3 SHL SHR NOT AND OR PUSH1 0x8 DUP3 ADD SSTORE JUMPDEST PUSH2 0x11D7 PUSH1 0x84 CALLDATALOAD PUSH1 0xA DUP4 ADD SWAP1 PUSH1 0xFF DUP1 NOT DUP4 SLOAD AND SWAP2 ISZERO ISZERO AND OR SWAP1 SSTORE JUMP JUMPDEST PUSH9 0x3635C9ADC5DEA00000 PUSH1 0x44 CALLDATALOAD LT DUP1 ISZERO PUSH2 0x12BC JUMPI JUMPDEST ISZERO PUSH2 0x12A2 JUMPI PUSH1 0x1 DUP2 ADD DUP1 SLOAD PUSH2 0xFFFF PUSH1 0xA8 SHL NOT AND PUSH2 0x201 PUSH1 0xA8 SHL OR SWAP1 SSTORE TIMESTAMP PUSH1 0x7 SWAP1 SWAP2 ADD SSTORE PUSH1 0x6 SLOAD PUSH2 0x121B SWAP1 PUSH2 0x2311 JUMP JUMPDEST PUSH1 0x6 SSTORE JUMPDEST PUSH1 0x1 PUSH1 0x1 PUSH1 0xA0 SHL SUB DUP2 AND PUSH1 0x0 SWAP1 DUP2 MSTORE PUSH1 0xB DUP4 MSTORE PUSH1 0x40 SWAP1 KECCAK256 PUSH1 0x3 SLOAD PUSH2 0x1242 SWAP2 PUSH2 0x2320 JUMP JUMPDEST PUSH1 0x3 SLOAD SWAP1 DUP2 PUSH32 0x3E72682CA35C0FC274BD79B3CCE2934F296F83C47A89340B35DC62322403A6B7 PUSH1 0x60 PUSH1 0x40 MLOAD SWAP4 PUSH2 0x1279 PUSH1 0x24 CALLDATALOAD PUSH2 0x1F84 JUMP JUMPDEST PUSH1 0x24 CALLDATALOAD DUP6 MSTORE PUSH1 0x44 CALLDATALOAD DUP8 DUP7 ADD MSTORE PUSH1 0x84 CALLDATALOAD ISZERO ISZERO PUSH1 0x40 DUP7 ADD MSTORE PUSH1 0x1 PUSH1 0x1 PUSH1 0xA0 SHL SUB AND SWAP4 LOG3 PUSH1 0x40 MLOAD SWAP1 DUP2 MSTORE RETURN JUMPDEST PUSH1 0x1 ADD DUP1 SLOAD PUSH2 0xFFFF PUSH1 0xA8 SHL NOT AND PUSH1 0x1 PUSH1 0xB0 SHL OR SWAP1 SSTORE PUSH2 0x121F JUMP JUMPDEST POP PUSH1 0x84 CALLDATALOAD PUSH2 0x11EC JUMP JUMPDEST ADD MLOAD SWAP1 POP DUP6 DUP1 PUSH2 0x11A4 JUMP JUMPDEST PUSH1 0x8 DUP4 ADD PUSH1 0x0 MSTORE DUP6 PUSH1 0x0 KECCAK256 SWAP1 PUSH1 0x0 JUMPDEST PUSH1 0x1F NOT DUP5 AND DUP2 LT PUSH2 0x1325 JUMPI POP PUSH1 0x1 SWAP4 SWAP5 SWAP6 DUP4 PUSH1 0x1F NOT DUP2 AND LT PUSH2 0x130C JUMPI JUMPDEST POP POP POP DUP2 SHL ADD PUSH1 0x8 DUP3 ADD SSTORE PUSH2 0x11BC JUMP JUMPDEST ADD MLOAD PUSH1 0x0 NOT PUSH1 0xF8 DUP5 PUSH1 0x3 SHL AND SHR NOT AND SWAP1 SSTORE DUP6 DUP1 DUP1 PUSH2 0x12FC JUMP JUMPDEST SWAP1 SWAP2 DUP8 PUSH1 0x1 DUP2 SWAP3 DUP6 DUP11 ADD MLOAD DUP2 SSTORE ADD SWAP4 ADD SWAP2 ADD PUSH2 0x12DF JUMP JUMPDEST PUSH1 0x8 DUP3 ADD PUSH1 0x0 MSTORE PUSH1 0x20 PUSH1 0x0 KECCAK256 PUSH1 0x1F DUP3 ADD PUSH1 0x5 SHR DUP2 ADD PUSH1 0x20 DUP4 LT PUSH2 0x137C JUMPI JUMPDEST PUSH1 0x1F DUP8 ADD PUSH1 0x5 SHR DUP3 ADD DUP2 LT PUSH2 0x1370 JUMPI POP POP PUSH2 0x1188 JUMP JUMPDEST PUSH1 0x0 DUP2 SSTORE PUSH1 0x1 ADD PUSH2 0x135A JUMP JUMPDEST POP DUP1 PUSH2 0x135A JUMP JUMPDEST DUP5 SLOAD DUP4 MSTORE PUSH1 0x1 SWAP5 DUP6 ADD SWAP5 DUP8 SWAP5 POP PUSH1 0x20 SWAP1 SWAP4 ADD SWAP3 ADD PUSH2 0xEE8 JUMP JUMPDEST PUSH1 0x40 MLOAD PUSH3 0x461BCD PUSH1 0xE5 SHL DUP2 MSTORE PUSH1 0x20 PUSH1 0x4 DUP3 ADD MSTORE PUSH1 0x12 PUSH1 0x24 DUP3 ADD MSTORE PUSH18 0x546172676574206D757374206265203E203 PUSH1 0x74 SHL PUSH1 0x44 DUP3 ADD MSTORE PUSH1 0x64 SWAP1 REVERT JUMPDEST PUSH1 0x40 MLOAD PUSH3 0x461BCD PUSH1 0xE5 SHL DUP2 MSTORE PUSH1 0x20 PUSH1 0x4 DUP3 ADD MSTORE PUSH1 0x15 PUSH1 0x24 DUP3 ADD MSTORE PUSH21 0x496E76616C69642074726961642061646472657373 PUSH1 0x58 SHL PUSH1 0x44 DUP3 ADD MSTORE PUSH1 0x64 SWAP1 REVERT JUMPDEST PUSH1 0x40 MLOAD PUSH3 0x461BCD PUSH1 0xE5 SHL DUP2 MSTORE PUSH1 0x20 PUSH1 0x4 DUP3 ADD MSTORE PUSH1 0x1B PUSH1 0x24 DUP3 ADD MSTORE PUSH32 0x56657374696E6720706572696F64206E6F7420636F6D706C6574650000000000 PUSH1 0x44 DUP3 ADD MSTORE PUSH1 0x64 SWAP1 REVERT JUMPDEST PUSH1 0x40 MLOAD PUSH3 0x461BCD PUSH1 0xE5 SHL DUP2 MSTORE PUSH1 0x20 PUSH1 0x4 DUP3 ADD MSTORE PUSH1 0x14 PUSH1 0x24 DUP3 ADD MSTORE PUSH20 0x4E6F7420696E20676F6F64207374616E64696E67 PUSH1 0x60 SHL PUSH1 0x44 DUP3 ADD MSTORE PUSH1 0x64 SWAP1 REVERT JUMPDEST PUSH1 0x40 MLOAD PUSH3 0x461BCD PUSH1 0xE5 SHL DUP2 MSTORE PUSH1 0x20 PUSH1 0x4 DUP3 ADD MSTORE PUSH1 0x11 PUSH1 0x24 DUP3 ADD MSTORE PUSH17 0x2737BA1030B1BA34BB329036B2B6B132B9 PUSH1 0x79 SHL PUSH1 0x44 DUP3 ADD MSTORE PUSH1 0x64 SWAP1 REVERT JUMPDEST CALLVALUE PUSH2 0x52C JUMPI PUSH1 0x20 CALLDATASIZE PUSH1 0x3 NOT ADD SLT PUSH2 0x52C JUMPI PUSH1 0x4 CALLDATALOAD PUSH1 0x0 MSTORE PUSH1 0x7 PUSH1 0x20 MSTORE PUSH1 0x40 DUP1 PUSH1 0x0 KECCAK256 DUP1 SLOAD SWAP1 PUSH2 0x15B8 PUSH1 0x1 DUP3 ADD SLOAD SWAP2 PUSH1 0xFF DUP4 PUSH1 0xA0 SHR AND SWAP3 PUSH1 0xFF DUP2 PUSH1 0xA8 SHR AND SWAP1 PUSH1 0x2 DUP4 ADD SLOAD PUSH1 0x3 DUP5 ADD SLOAD PUSH1 0x4 DUP6 ADD SLOAD SWAP1 PUSH1 0x5 DUP7 ADD SLOAD SWAP3 PUSH2 0x1585 PUSH1 0x6 DUP9 ADD SLOAD SWAP6 PUSH1 0x7 DUP10 ADD SLOAD SWAP8 PUSH1 0xFF PUSH1 0xA PUSH2 0x1540 PUSH1 0x8 DUP14 ADD PUSH2 0x2071 JUMP JUMPDEST SWAP12 ADD SLOAD AND SWAP12 DUP15 MLOAD SWAP15 DUP16 SWAP15 DUP16 SWAP1 DUP2 MSTORE PUSH1 0x1 DUP1 PUSH1 0xA0 SHL SUB DUP6 AND PUSH1 0x20 DUP3 ADD MSTORE PUSH2 0x1565 DUP4 PUSH2 0x1F84 JUMP JUMPDEST ADD MSTORE PUSH2 0x1570 DUP2 PUSH2 0x1F84 JUMP JUMPDEST PUSH1 0x60 DUP14 ADD MSTORE PUSH1 0xFF PUSH1 0x80 DUP14 ADD SWAP2 PUSH1 0xB0 SHR AND PUSH2 0x1F8E JUMP JUMPDEST PUSH1 0xA0 DUP11 ADD MSTORE PUSH1 0xC0 DUP10 ADD MSTORE PUSH1 0xE0 DUP9 ADD MSTORE PUSH2 0x100 DUP8 ADD MSTORE PUSH2 0x120 DUP7 ADD MSTORE PUSH2 0x140 DUP6 ADD MSTORE PUSH2 0x1A0 DUP1 PUSH2 0x160 DUP7 ADD MSTORE DUP5 ADD SWAP1 PUSH2 0x1F9B JUMP JUMPDEST SWAP1 ISZERO ISZERO PUSH2 0x180 DUP4 ADD MSTORE SUB SWAP1 RETURN JUMPDEST CALLVALUE PUSH2 0x52C JUMPI PUSH1 0x40 CALLDATASIZE PUSH1 0x3 NOT ADD SLT PUSH2 0x52C JUMPI PUSH2 0x15DE PUSH2 0x1F05 JUMP JUMPDEST PUSH1 0x4 CALLDATALOAD PUSH1 0x0 MSTORE PUSH1 0x1 PUSH1 0x20 MSTORE PUSH1 0x40 PUSH1 0x0 KECCAK256 SWAP1 PUSH1 0x1 DUP1 PUSH1 0xA0 SHL SUB AND PUSH1 0x0 MSTORE PUSH1 0x20 MSTORE PUSH1 0x20 PUSH1 0xFF PUSH1 0x40 PUSH1 0x0 KECCAK256 SLOAD AND PUSH1 0x40 MLOAD SWAP1 ISZERO ISZERO DUP2 MSTORE RETURN JUMPDEST CALLVALUE PUSH2 0x52C JUMPI PUSH1 0x0 CALLDATASIZE PUSH1 0x3 NOT ADD SLT PUSH2 0x52C JUMPI PUSH2 0x162B PUSH2 0x2133 JUMP JUMPDEST PUSH2 0x1633 PUSH2 0x2355 JUMP JUMPDEST PUSH1 0x1 PUSH1 0xFF NOT PUSH1 0x2 SLOAD AND OR PUSH1 0x2 SSTORE PUSH32 0x62E78CEA01BEE320CD4E420270B5EA74000D11B0C9F74754EBDBFC544B05A258 PUSH1 0x20 PUSH1 0x40 MLOAD CALLER DUP2 MSTORE LOG1 STOP JUMPDEST CALLVALUE PUSH2 0x52C JUMPI PUSH1 0x0 CALLDATASIZE PUSH1 0x3 NOT ADD SLT PUSH2 0x52C JUMPI PUSH1 0x20 PUSH1 0x40 MLOAD PUSH3 0xED4E00 DUP2 MSTORE RETURN JUMPDEST CALLVALUE PUSH2 0x52C JUMPI PUSH1 0x20 CALLDATASIZE PUSH1 0x3 NOT ADD SLT PUSH2 0x52C JUMPI PUSH1 0x4 CALLDATALOAD PUSH1 0x0 PUSH2 0x1A0 PUSH1 0x40 MLOAD PUSH2 0x16AF DUP2 PUSH2 0x2015 JUMP JUMPDEST DUP3 DUP2 MSTORE DUP3 PUSH1 0x20 DUP3 ADD MSTORE DUP3 PUSH1 0x40 DUP3 ADD MSTORE DUP3 PUSH1 0x60 DUP3 ADD MSTORE DUP3 PUSH1 0x80 DUP3 ADD MSTORE DUP3 PUSH1 0xA0 DUP3 ADD MSTORE DUP3 PUSH1 0xC0 DUP3 ADD MSTORE DUP3 PUSH1 0xE0 DUP3 ADD MSTORE DUP3 PUSH2 0x100 DUP3 ADD MSTORE DUP3 PUSH2 0x120 DUP3 ADD MSTORE DUP3 PUSH2 0x140 DUP3 ADD MSTORE PUSH1 0x60 PUSH2 0x160 DUP3 ADD MSTORE PUSH1 0x60 PUSH2 0x180 DUP3 ADD MSTORE ADD MSTORE DUP1 ISZERO ISZERO DUP1 PUSH2 0x195D JUMPI JUMPDEST PUSH2 0x1715 SWAP1 PUSH2 0x2373 JUMP JUMPDEST PUSH1 0x0 MSTORE PUSH1 0x7 PUSH1 0x20 MSTORE PUSH1 0x40 PUSH1 0x0 KECCAK256 PUSH1 0x40 MLOAD SWAP1 PUSH2 0x172F DUP3 PUSH2 0x2015 JUMP JUMPDEST DUP1 SLOAD DUP3 MSTORE PUSH1 0x1 DUP2 ADD SLOAD PUSH1 0x1 PUSH1 0x1 PUSH1 0xA0 SHL SUB DUP2 AND PUSH1 0x20 DUP5 ADD MSTORE PUSH1 0xA0 DUP2 SWAP1 SHR PUSH1 0xFF AND PUSH2 0x1758 DUP2 PUSH2 0x1F84 JUMP JUMPDEST PUSH1 0x40 DUP5 ADD MSTORE PUSH1 0xFF DUP2 PUSH1 0xA8 SHR AND PUSH2 0x176D DUP2 PUSH2 0x1F84 JUMP JUMPDEST PUSH1 0x60 DUP5 ADD MSTORE PUSH1 0x4 PUSH1 0xFF DUP3 PUSH1 0xB0 SHR AND LT ISZERO PUSH2 0x480 JUMPI PUSH1 0xB0 SHR PUSH1 0xFF AND PUSH1 0x80 DUP4 ADD MSTORE PUSH1 0x2 DUP2 ADD SLOAD PUSH1 0xA0 DUP4 ADD MSTORE PUSH1 0x3 DUP2 ADD SLOAD PUSH1 0xC0 DUP4 ADD MSTORE PUSH1 0x4 DUP2 ADD SLOAD PUSH1 0xE0 DUP4 ADD MSTORE PUSH1 0x5 DUP2 ADD SLOAD PUSH2 0x100 DUP4 ADD MSTORE PUSH1 0x6 DUP2 ADD SLOAD PUSH2 0x120 DUP4 ADD MSTORE PUSH1 0x7 DUP2 ADD SLOAD PUSH2 0x140 DUP4 ADD MSTORE PUSH2 0x17D7 PUSH1 0x8 DUP3 ADD PUSH2 0x2071 JUMP JUMPDEST PUSH2 0x160 DUP4 ADD MSTORE PUSH1 0x40 MLOAD DUP1 PUSH1 0x9 DUP4 ADD SWAP1 PUSH1 0x20 DUP3 SLOAD SWAP2 DUP3 DUP2 MSTORE ADD SWAP2 PUSH1 0x0 MSTORE PUSH1 0x20 PUSH1 0x0 KECCAK256 SWAP1 PUSH1 0x0 JUMPDEST DUP2 DUP2 LT PUSH2 0x193E JUMPI DUP7 PUSH1 0xFF PUSH1 0xA DUP9 DUP9 PUSH2 0x1816 DUP2 DUP11 SUB DUP3 PUSH2 0x204F JUMP JUMPDEST PUSH2 0x180 DUP6 ADD MSTORE ADD SLOAD AND ISZERO ISZERO PUSH2 0x1A0 DUP3 ADD MSTORE PUSH1 0x40 DUP1 MLOAD PUSH1 0x20 DUP1 DUP3 MSTORE DUP4 MLOAD DUP2 DUP4 ADD MSTORE DUP4 ADD MLOAD PUSH1 0x1 PUSH1 0x1 PUSH1 0xA0 SHL SUB AND DUP2 DUP4 ADD MSTORE SWAP1 DUP3 ADD MLOAD PUSH2 0x1853 DUP2 PUSH2 0x1F84 JUMP JUMPDEST PUSH1 0x60 DUP3 ADD MSTORE PUSH1 0x60 DUP3 ADD MLOAD PUSH2 0x1866 DUP2 PUSH2 0x1F84 JUMP JUMPDEST PUSH1 0x80 DUP3 ADD MSTORE PUSH2 0x187D PUSH1 0x80 DUP4 ADD MLOAD PUSH1 0xA0 DUP4 ADD SWAP1 PUSH2 0x1F8E JUMP JUMPDEST PUSH1 0xA0 DUP3 ADD MLOAD PUSH1 0xC0 DUP3 ADD MSTORE PUSH1 0xC0 DUP3 ADD MLOAD PUSH1 0xE0 DUP3 ADD MSTORE PUSH1 0xE0 DUP3 ADD MLOAD PUSH2 0x100 DUP3 ADD MSTORE PUSH2 0x100 DUP3 ADD MLOAD PUSH2 0x120 DUP3 ADD MSTORE PUSH2 0x120 DUP3 ADD MLOAD PUSH2 0x140 DUP3 ADD MSTORE PUSH2 0x140 DUP3 ADD MLOAD PUSH2 0x160 DUP3 ADD MSTORE PUSH2 0x160 DUP3 ADD MLOAD PUSH2 0x18DF PUSH2 0x1C0 SWAP2 DUP3 PUSH2 0x180 DUP6 ADD MSTORE PUSH2 0x1E0 DUP5 ADD SWAP1 PUSH2 0x1F9B JUMP JUMPDEST SWAP1 PUSH2 0x180 DUP5 ADD MLOAD SWAP2 PUSH1 0x1F NOT DUP5 DUP3 SUB ADD PUSH2 0x1A0 DUP6 ADD MSTORE PUSH1 0x20 DUP1 DUP5 MLOAD SWAP3 DUP4 DUP2 MSTORE ADD SWAP4 ADD SWAP1 PUSH1 0x0 JUMPDEST DUP2 DUP2 LT PUSH2 0x191F JUMPI POP POP POP PUSH2 0x1A0 DUP4 SWAP5 ADD MLOAD ISZERO ISZERO SWAP1 DUP4 ADD MSTORE SUB SWAP1 RETURN JUMPDEST DUP3 MLOAD PUSH1 0x1 PUSH1 0x1 PUSH1 0xA0 SHL SUB AND DUP6 MSTORE PUSH1 0x20 SWAP5 DUP6 ADD SWAP5 SWAP1 SWAP3 ADD SWAP2 PUSH1 0x1 ADD PUSH2 0x1904 JUMP JUMPDEST DUP3 SLOAD PUSH1 0x1 PUSH1 0x1 PUSH1 0xA0 SHL SUB AND DUP5 MSTORE PUSH1 0x20 SWAP1 SWAP4 ADD SWAP3 PUSH1 0x1 SWAP3 DUP4 ADD SWAP3 ADD PUSH2 0x17FC JUMP JUMPDEST POP PUSH1 0x3 SLOAD DUP2 GT ISZERO PUSH2 0x170C JUMP JUMPDEST CALLVALUE PUSH2 0x52C JUMPI PUSH1 0x0 CALLDATASIZE PUSH1 0x3 NOT ADD SLT PUSH2 0x52C JUMPI PUSH1 0x3 SLOAD PUSH1 0x6 SLOAD PUSH1 0x5 SLOAD PUSH1 0x4 SLOAD SWAP1 SWAP3 SWAP2 SWAP1 DUP3 ISZERO PUSH2 0x19CD JUMPI PUSH1 0x64 DUP2 MUL SWAP4 DUP2 DUP6 DIV PUSH1 0x64 EQ DUP3 ISZERO OR ISZERO PUSH2 0x3BD JUMPI PUSH2 0x19AF DUP2 PUSH1 0xA0 SWAP7 PUSH2 0x23E5 JUMP JUMPDEST SWAP3 JUMPDEST PUSH1 0x40 MLOAD SWAP5 DUP6 MSTORE PUSH1 0x20 DUP6 ADD MSTORE PUSH1 0x40 DUP5 ADD MSTORE PUSH1 0x60 DUP4 ADD MSTORE PUSH1 0x80 DUP3 ADD MSTORE RETURN JUMPDEST PUSH1 0xA0 SWAP4 PUSH1 0x0 SWAP3 PUSH2 0x19B1 JUMP JUMPDEST CALLVALUE PUSH2 0x52C JUMPI PUSH1 0x0 CALLDATASIZE PUSH1 0x3 NOT ADD SLT PUSH2 0x52C JUMPI PUSH1 0x20 PUSH1 0xFF PUSH1 0x2 SLOAD AND PUSH1 0x40 MLOAD SWAP1 ISZERO ISZERO DUP2 MSTORE RETURN JUMPDEST CALLVALUE PUSH2 0x52C JUMPI PUSH1 0x0 CALLDATASIZE PUSH1 0x3 NOT ADD SLT PUSH2 0x52C JUMPI PUSH1 0x20 PUSH1 0x40 MLOAD PUSH1 0xC8 DUP2 MSTORE RETURN JUMPDEST CALLVALUE PUSH2 0x52C JUMPI PUSH1 0x20 DUP1 PUSH1 0x3 NOT CALLDATASIZE ADD SLT PUSH2 0x52C JUMPI PUSH1 0x1 PUSH1 0x1 PUSH1 0xA0 SHL SUB PUSH2 0x1A39 PUSH2 0x1EEF JUMP JUMPDEST AND PUSH1 0x0 MSTORE PUSH1 0xC DUP2 MSTORE PUSH1 0x40 PUSH1 0x0 KECCAK256 SWAP1 PUSH1 0x40 MLOAD SWAP1 DUP2 DUP2 DUP5 SLOAD SWAP2 DUP3 DUP2 MSTORE ADD SWAP4 PUSH1 0x0 MSTORE DUP2 PUSH1 0x0 KECCAK256 SWAP2 PUSH1 0x0 SWAP1 JUMPDEST DUP3 DUP3 LT PUSH2 0x1A88 JUMPI PUSH2 0x1A84 DUP6 PUSH2 0x1A78 DUP2 DUP10 SUB DUP3 PUSH2 0x204F JUMP JUMPDEST PUSH1 0x40 MLOAD SWAP2 DUP3 SWAP2 DUP3 PUSH2 0x1F49 JUMP JUMPDEST SUB SWAP1 RETURN JUMPDEST DUP4 SLOAD DUP7 MSTORE SWAP5 DUP6 ADD SWAP5 PUSH1 0x1 SWAP4 DUP5 ADD SWAP4 SWAP1 SWAP2 ADD SWAP1 PUSH2 0x1A61 JUMP JUMPDEST CALLVALUE PUSH2 0x52C JUMPI PUSH1 0x0 CALLDATASIZE PUSH1 0x3 NOT ADD SLT PUSH2 0x52C JUMPI PUSH1 0x20 PUSH1 0x40 MLOAD PUSH9 0x3635C9ADC5DEA00000 DUP2 MSTORE RETURN JUMPDEST CALLVALUE PUSH2 0x52C JUMPI PUSH1 0x40 CALLDATASIZE PUSH1 0x3 NOT ADD SLT PUSH2 0x52C JUMPI PUSH2 0x1ADC PUSH2 0x1F05 JUMP JUMPDEST PUSH1 0x4 CALLDATALOAD PUSH1 0x0 MSTORE PUSH1 0xD PUSH1 0x20 MSTORE PUSH1 0x40 PUSH1 0x0 KECCAK256 SWAP1 PUSH1 0x1 DUP1 PUSH1 0xA0 SHL SUB AND PUSH1 0x0 MSTORE PUSH1 0x20 MSTORE PUSH1 0x20 PUSH1 0xFF PUSH1 0x40 PUSH1 0x0 KECCAK256 SLOAD AND PUSH1 0x40 MLOAD SWAP1 ISZERO ISZERO DUP2 MSTORE RETURN JUMPDEST CALLVALUE PUSH2 0x52C JUMPI PUSH1 0x0 CALLDATASIZE PUSH1 0x3 NOT ADD SLT PUSH2 0x52C JUMPI PUSH2 0x1B29 PUSH2 0x2133 JUMP JUMPDEST PUSH1 0x2 SLOAD PUSH1 0xFF DUP2 AND ISZERO PUSH2 0x1B68 JUMPI PUSH1 0xFF NOT AND PUSH1 0x2 SSTORE PUSH32 0x5DB9EE0A495BF2E6FF9C91A7834C1BA4FDD244A5E8AA4E537BD38AEAE4B073AA PUSH1 0x20 PUSH1 0x40 MLOAD CALLER DUP2 MSTORE LOG1 STOP JUMPDEST PUSH1 0x40 MLOAD PUSH4 0x8DFC202B PUSH1 0xE0 SHL DUP2 MSTORE PUSH1 0x4 SWAP1 REVERT JUMPDEST CALLVALUE PUSH2 0x52C JUMPI PUSH1 0x40 CALLDATASIZE PUSH1 0x3 NOT ADD SLT PUSH2 0x52C JUMPI PUSH1 0xA0 PUSH2 0x1B95 PUSH2 0x1F05 JUMP JUMPDEST PUSH1 0x4 CALLDATALOAD PUSH1 0x0 MSTORE PUSH1 0x9 PUSH1 0x20 MSTORE PUSH1 0x40 PUSH1 0x0 KECCAK256 PUSH1 0x1 DUP1 DUP5 SHL SUB DUP1 SWAP3 AND PUSH1 0x0 MSTORE PUSH1 0x20 MSTORE PUSH1 0x40 PUSH1 0x0 KECCAK256 SWAP1 DUP2 SLOAD AND SWAP1 PUSH1 0x1 DUP2 ADD SLOAD SWAP1 PUSH1 0x2 DUP2 ADD SLOAD PUSH1 0x4 PUSH1 0xFF PUSH1 0x3 DUP5 ADD SLOAD AND SWAP3 ADD SLOAD SWAP3 PUSH1 0x40 MLOAD SWAP5 DUP6 MSTORE PUSH1 0x20 DUP6 ADD MSTORE PUSH1 0x40 DUP5 ADD MSTORE ISZERO ISZERO PUSH1 0x60 DUP4 ADD MSTORE PUSH1 0x80 DUP3 ADD MSTORE RETURN JUMPDEST CALLVALUE PUSH2 0x52C JUMPI PUSH1 0x40 CALLDATASIZE PUSH1 0x3 NOT ADD SLT PUSH2 0x52C JUMPI PUSH2 0x1C0E PUSH2 0x1F05 JUMP JUMPDEST CALLER PUSH1 0x1 PUSH1 0x1 PUSH1 0xA0 SHL SUB DUP3 AND SUB PUSH2 0x1C2A JUMPI PUSH2 0x1B SWAP1 PUSH1 0x4 CALLDATALOAD PUSH2 0x228D JUMP JUMPDEST PUSH1 0x40 MLOAD PUSH4 0x334BD919 PUSH1 0xE1 SHL DUP2 MSTORE PUSH1 0x4 SWAP1 REVERT JUMPDEST CALLVALUE PUSH2 0x52C JUMPI PUSH1 0x20 DUP1 PUSH1 0x3 NOT CALLDATASIZE ADD SLT PUSH2 0x52C JUMPI PUSH1 0x1 PUSH1 0x1 PUSH1 0xA0 SHL SUB PUSH2 0x1C5E PUSH2 0x1EEF JUMP JUMPDEST AND PUSH1 0x0 MSTORE PUSH1 0xB DUP2 MSTORE PUSH1 0x40 PUSH1 0x0 KECCAK256 SWAP1 PUSH1 0x40 MLOAD SWAP1 DUP2 DUP2 DUP5 SLOAD SWAP2 DUP3 DUP2 MSTORE ADD SWAP4 PUSH1 0x0 MSTORE DUP2 PUSH1 0x0 KECCAK256 SWAP2 PUSH1 0x0 SWAP1 JUMPDEST DUP3 DUP3 LT PUSH2 0x1C9D JUMPI PUSH2 0x1A84 DUP6 PUSH2 0x1A78 DUP2 DUP10 SUB DUP3 PUSH2 0x204F JUMP JUMPDEST DUP4 SLOAD DUP7 MSTORE SWAP5 DUP6 ADD SWAP5 PUSH1 0x1 SWAP4 DUP5 ADD SWAP4 SWAP1 SWAP2 ADD SWAP1 PUSH2 0x1C86 JUMP JUMPDEST CALLVALUE PUSH2 0x52C JUMPI PUSH1 0x40 CALLDATASIZE PUSH1 0x3 NOT ADD SLT PUSH2 0x52C JUMPI PUSH2 0x1B PUSH1 0x4 CALLDATALOAD PUSH2 0x1CD3 PUSH2 0x1F05 JUMP JUMPDEST SWAP1 DUP1 PUSH1 0x0 MSTORE PUSH1 0x1 PUSH1 0x20 MSTORE PUSH2 0x1CEE PUSH1 0x1 PUSH1 0x40 PUSH1 0x0 KECCAK256 ADD SLOAD PUSH2 0x21E7 JUMP JUMPDEST PUSH2 0x220D JUMP JUMPDEST CALLVALUE PUSH2 0x52C JUMPI PUSH1 0x0 CALLDATASIZE PUSH1 0x3 NOT ADD SLT PUSH2 0x52C JUMPI PUSH1 0x20 PUSH1 0x40 MLOAD PUSH32 0x55435DD261A4B9B3364963F7738A7A662AD9C84396D64BE3365284BB7F0A5041 DUP2 MSTORE RETURN JUMPDEST CALLVALUE PUSH2 0x52C JUMPI PUSH1 0x20 CALLDATASIZE PUSH1 0x3 NOT ADD SLT PUSH2 0x52C JUMPI PUSH1 0x4 CALLDATALOAD PUSH1 0x0 MSTORE PUSH1 0x1 PUSH1 0x20 MSTORE PUSH1 0x20 PUSH1 0x1 PUSH1 0x40 PUSH1 0x0 KECCAK256 ADD SLOAD PUSH1 0x40 MLOAD SWAP1 DUP2 MSTORE RETURN JUMPDEST CALLVALUE PUSH2 0x52C JUMPI PUSH1 0x20 CALLDATASIZE PUSH1 0x3 NOT ADD SLT PUSH2 0x52C JUMPI PUSH1 0x4 CALLDATALOAD PUSH1 0x0 MSTORE PUSH1 0xF PUSH1 0x20 MSTORE PUSH1 0x20 PUSH1 0x40 PUSH1 0x0 KECCAK256 SLOAD PUSH1 0x40 MLOAD SWAP1 DUP2 MSTORE RETURN JUMPDEST CALLVALUE PUSH2 0x52C JUMPI PUSH1 0x0 CALLDATASIZE PUSH1 0x3 NOT ADD SLT PUSH2 0x52C JUMPI PUSH1 0x20 PUSH1 0x4 SLOAD PUSH1 0x40 MLOAD SWAP1 DUP2 MSTORE RETURN JUMPDEST CALLVALUE PUSH2 0x52C JUMPI PUSH1 0x20 CALLDATASIZE PUSH1 0x3 NOT ADD SLT PUSH2 0x52C JUMPI PUSH2 0x100 PUSH1 0x1 PUSH1 0x1 PUSH1 0xA0 SHL SUB DUP1 PUSH2 0x1DCC PUSH2 0x1EEF JUMP JUMPDEST AND PUSH1 0x0 MSTORE PUSH1 0x8 PUSH1 0x20 MSTORE PUSH1 0xFF PUSH1 0x40 PUSH1 0x0 KECCAK256 SWAP2 DUP3 SLOAD AND SWAP2 PUSH1 0x1 DUP2 ADD SLOAD SWAP1 PUSH1 0x2 DUP2 ADD SLOAD PUSH1 0x3 DUP3 ADD SLOAD PUSH1 0x4 DUP4 ADD SLOAD SWAP2 PUSH1 0x6 PUSH1 0x5 DUP6 ADD SLOAD SWAP5 ADD SLOAD SWAP5 PUSH1 0x40 MLOAD SWAP8 DUP9 MSTORE PUSH1 0x20 DUP9 ADD MSTORE PUSH1 0x40 DUP8 ADD MSTORE PUSH1 0x60 DUP7 ADD MSTORE PUSH1 0x80 DUP6 ADD MSTORE PUSH1 0xA0 DUP5 ADD MSTORE DUP2 DUP2 AND ISZERO ISZERO PUSH1 0xC0 DUP5 ADD MSTORE PUSH1 0x8 SHR AND ISZERO ISZERO PUSH1 0xE0 DUP3 ADD MSTORE RETURN JUMPDEST CALLVALUE PUSH2 0x52C JUMPI PUSH1 0x40 CALLDATASIZE PUSH1 0x3 NOT ADD SLT PUSH2 0x52C JUMPI PUSH1 0x24 CALLDATALOAD PUSH1 0x4 CALLDATALOAD PUSH1 0x0 MSTORE PUSH1 0xA PUSH1 0x20 MSTORE PUSH1 0x40 PUSH1 0x0 KECCAK256 DUP1 SLOAD DUP3 LT ISZERO PUSH2 0x52C JUMPI PUSH1 0x20 SWAP2 PUSH2 0x713 SWAP2 PUSH2 0x1F1B JUMP JUMPDEST CALLVALUE PUSH2 0x52C JUMPI PUSH1 0x20 CALLDATASIZE PUSH1 0x3 NOT ADD SLT PUSH2 0x52C JUMPI PUSH1 0x20 PUSH2 0x1E94 PUSH2 0x1E8F PUSH2 0x1EEF JUMP JUMPDEST PUSH2 0x2435 JUMP JUMPDEST PUSH1 0x40 MLOAD SWAP1 DUP2 MSTORE RETURN JUMPDEST CALLVALUE PUSH2 0x52C JUMPI PUSH1 0x20 CALLDATASIZE PUSH1 0x3 NOT ADD SLT PUSH2 0x52C JUMPI PUSH1 0x4 CALLDATALOAD SWAP1 PUSH4 0xFFFFFFFF PUSH1 0xE0 SHL DUP3 AND DUP1 SWAP3 SUB PUSH2 0x52C JUMPI PUSH1 0x20 SWAP2 PUSH4 0x7965DB0B PUSH1 0xE0 SHL DUP2 EQ SWAP1 DUP2 ISZERO PUSH2 0x1EDE JUMPI JUMPDEST POP ISZERO ISZERO DUP2 MSTORE RETURN JUMPDEST PUSH4 0x1FFC9A7 PUSH1 0xE0 SHL EQ SWAP1 POP DUP4 PUSH2 0x1ED7 JUMP JUMPDEST PUSH1 0x4 CALLDATALOAD SWAP1 PUSH1 0x1 PUSH1 0x1 PUSH1 0xA0 SHL SUB DUP3 AND DUP3 SUB PUSH2 0x52C JUMPI JUMP JUMPDEST PUSH1 0x24 CALLDATALOAD SWAP1 PUSH1 0x1 PUSH1 0x1 PUSH1 0xA0 SHL SUB DUP3 AND DUP3 SUB PUSH2 0x52C JUMPI JUMP JUMPDEST DUP1 SLOAD DUP3 LT ISZERO PUSH2 0x1F33 JUMPI PUSH1 0x0 MSTORE PUSH1 0x20 PUSH1 0x0 KECCAK256 ADD SWAP1 PUSH1 0x0 SWAP1 JUMP JUMPDEST PUSH4 0x4E487B71 PUSH1 0xE0 SHL PUSH1 0x0 MSTORE PUSH1 0x32 PUSH1 0x4 MSTORE PUSH1 0x24 PUSH1 0x0 REVERT JUMPDEST PUSH1 0x20 SWAP1 DUP2 PUSH1 0x40 DUP2 DUP4 ADD SWAP3 DUP3 DUP2 MSTORE DUP6 MLOAD DUP1 SWAP5 MSTORE ADD SWAP4 ADD SWAP2 PUSH1 0x0 JUMPDEST DUP3 DUP2 LT PUSH2 0x1F70 JUMPI POP POP POP POP SWAP1 JUMP JUMPDEST DUP4 MLOAD DUP6 MSTORE SWAP4 DUP2 ADD SWAP4 SWAP3 DUP2 ADD SWAP3 PUSH1 0x1 ADD PUSH2 0x1F62 JUMP JUMPDEST PUSH1 0x6 GT ISZERO PUSH2 0x480 JUMPI JUMP JUMPDEST SWAP1 PUSH1 0x4 DUP3 LT ISZERO PUSH2 0x480 JUMPI MSTORE JUMP JUMPDEST SWAP2 SWAP1 DUP3 MLOAD SWAP3 DUP4 DUP3 MSTORE PUSH1 0x0 JUMPDEST DUP5 DUP2 LT PUSH2 0x1FC7 JUMPI POP POP DUP3 PUSH1 0x0 PUSH1 0x20 DUP1 SWAP5 SWAP6 DUP5 ADD ADD MSTORE PUSH1 0x1F DUP1 NOT SWAP2 ADD AND ADD ADD SWAP1 JUMP JUMPDEST PUSH1 0x20 DUP2 DUP4 ADD DUP2 ADD MLOAD DUP5 DUP4 ADD DUP3 ADD MSTORE ADD PUSH2 0x1FA6 JUMP JUMPDEST SWAP1 PUSH1 0x1 DUP3 DUP2 SHR SWAP3 AND DUP1 ISZERO PUSH2 0x200B JUMPI JUMPDEST PUSH1 0x20 DUP4 LT EQ PUSH2 0x1FF5 JUMPI JUMP JUMPDEST PUSH4 0x4E487B71 PUSH1 0xE0 SHL PUSH1 0x0 MSTORE PUSH1 0x22 PUSH1 0x4 MSTORE PUSH1 0x24 PUSH1 0x0 REVERT JUMPDEST SWAP2 PUSH1 0x7F AND SWAP2 PUSH2 0x1FEA JUMP JUMPDEST PUSH2 0x1C0 DUP2 ADD SWAP1 DUP2 LT PUSH8 0xFFFFFFFFFFFFFFFF DUP3 GT OR PUSH2 0xB92 JUMPI PUSH1 0x40 MSTORE JUMP JUMPDEST PUSH2 0x100 DUP2 ADD SWAP1 DUP2 LT PUSH8 0xFFFFFFFFFFFFFFFF DUP3 GT OR PUSH2 0xB92 JUMPI PUSH1 0x40 MSTORE JUMP JUMPDEST SWAP1 PUSH1 0x1F DUP1 NOT SWAP2 ADD AND DUP2 ADD SWAP1 DUP2 LT PUSH8 0xFFFFFFFFFFFFFFFF DUP3 GT OR PUSH2 0xB92 JUMPI PUSH1 0x40 MSTORE JUMP JUMPDEST SWAP1 PUSH1 0x40 MLOAD SWAP2 DUP3 PUSH1 0x0 DUP3 SLOAD SWAP3 PUSH2 0x2085 DUP5 PUSH2 0x1FDB JUMP JUMPDEST SWAP1 DUP2 DUP5 MSTORE PUSH1 0x1 SWAP5 DUP6 DUP2 AND SWAP1 DUP2 PUSH1 0x0 EQ PUSH2 0x20F4 JUMPI POP PUSH1 0x1 EQ PUSH2 0x20B1 JUMPI JUMPDEST POP POP PUSH2 0x20AF SWAP3 POP SUB DUP4 PUSH2 0x204F JUMP JUMPDEST JUMP JUMPDEST SWAP1 SWAP4 SWAP2 POP PUSH1 0x0 MSTORE PUSH1 0x20 SWAP1 DUP2 PUSH1 0x0 KECCAK256 SWAP4 PUSH1 0x0 SWAP2 JUMPDEST DUP2 DUP4 LT PUSH2 0x20DC JUMPI POP POP PUSH2 0x20AF SWAP4 POP DUP3 ADD ADD CODESIZE DUP1 PUSH2 0x20A1 JUMP JUMPDEST DUP6 SLOAD DUP9 DUP5 ADD DUP6 ADD MSTORE SWAP5 DUP6 ADD SWAP5 DUP8 SWAP5 POP SWAP2 DUP4 ADD SWAP2 PUSH2 0x20C4 JUMP JUMPDEST SWAP2 POP POP PUSH2 0x20AF SWAP5 POP PUSH1 0x20 SWAP3 POP PUSH1 0xFF NOT AND DUP3 DUP5 ADD MSTORE ISZERO ISZERO PUSH1 0x5 SHL DUP3 ADD ADD CODESIZE DUP1 PUSH2 0x20A1 JUMP JUMPDEST PUSH8 0xFFFFFFFFFFFFFFFF DUP2 GT PUSH2 0xB92 JUMPI PUSH1 0x1F ADD PUSH1 0x1F NOT AND PUSH1 0x20 ADD SWAP1 JUMP JUMPDEST CALLER PUSH1 0x0 SWAP1 DUP2 MSTORE PUSH32 0xA6EEF7E35ABE7026729641147F7915573C7E97B47EFA546F5F6E3230263BCB49 PUSH1 0x20 MSTORE PUSH1 0x40 DUP2 KECCAK256 SLOAD PUSH1 0xFF AND ISZERO PUSH2 0x216D JUMPI POP JUMP JUMPDEST PUSH1 0x44 SWAP1 PUSH1 0x40 MLOAD SWAP1 PUSH4 0xE2517D3F PUSH1 0xE0 SHL DUP3 MSTORE CALLER PUSH1 0x4 DUP4 ADD MSTORE PUSH1 0x24 DUP3 ADD MSTORE REVERT JUMPDEST CALLER PUSH1 0x0 SWAP1 DUP2 MSTORE PUSH32 0xE8FAD4B49F5BA25B2C682CFEC2AC50A7A40BBD1E12AB51733EC3E9C2F6F1C5DB PUSH1 0x20 MSTORE PUSH1 0x40 SWAP1 KECCAK256 SLOAD PUSH32 0x55435DD261A4B9B3364963F7738A7A662AD9C84396D64BE3365284BB7F0A5041 SWAP1 PUSH1 0xFF AND ISZERO PUSH2 0x216D JUMPI POP JUMP JUMPDEST DUP1 PUSH1 0x0 MSTORE PUSH1 0x1 PUSH1 0x20 MSTORE PUSH1 0x40 PUSH1 0x0 KECCAK256 CALLER PUSH1 0x0 MSTORE PUSH1 0x20 MSTORE PUSH1 0xFF PUSH1 0x40 PUSH1 0x0 KECCAK256 SLOAD AND ISZERO PUSH2 0x216D JUMPI POP JUMP JUMPDEST SWAP1 PUSH1 0x0 SWAP2 DUP1 DUP4 MSTORE PUSH1 0x1 PUSH1 0x20 MSTORE PUSH1 0x40 DUP4 KECCAK256 SWAP2 PUSH1 0x1 DUP1 PUSH1 0xA0 SHL SUB AND SWAP2 DUP3 DUP5 MSTORE PUSH1 0x20 MSTORE PUSH1 0xFF PUSH1 0x40 DUP5 KECCAK256 SLOAD AND ISZERO PUSH1 0x0 EQ PUSH2 0x2288 JUMPI DUP1 DUP4 MSTORE PUSH1 0x1 PUSH1 0x20 MSTORE PUSH1 0x40 DUP4 KECCAK256 DUP3 DUP5 MSTORE PUSH1 0x20 MSTORE PUSH1 0x40 DUP4 KECCAK256 PUSH1 0x1 PUSH1 0xFF NOT DUP3 SLOAD AND OR SWAP1 SSTORE PUSH32 0x2F8788117E7EFF1D82E926EC794901D17C78024A50270940304540A733656F0D CALLER SWAP4 DUP1 LOG4 PUSH1 0x1 SWAP1 JUMP JUMPDEST POP POP SWAP1 JUMP JUMPDEST SWAP1 PUSH1 0x0 SWAP2 DUP1 DUP4 MSTORE PUSH1 0x1 PUSH1 0x20 MSTORE PUSH1 0x40 DUP4 KECCAK256 SWAP2 PUSH1 0x1 DUP1 PUSH1 0xA0 SHL SUB AND SWAP2 DUP3 DUP5 MSTORE PUSH1 0x20 MSTORE PUSH1 0xFF PUSH1 0x40 DUP5 KECCAK256 SLOAD AND PUSH1 0x0 EQ PUSH2 0x2288 JUMPI DUP1 DUP4 MSTORE PUSH1 0x1 PUSH1 0x20 MSTORE PUSH1 0x40 DUP4 KECCAK256 DUP3 DUP5 MSTORE PUSH1 0x20 MSTORE PUSH1 0x40 DUP4 KECCAK256 PUSH1 0xFF NOT DUP2 SLOAD AND SWAP1 SSTORE PUSH32 0xF6391F5C32D9C69D2A47EA670B442974B53935D1EDC7FD64EB21E047A839171B CALLER SWAP4 DUP1 LOG4 PUSH1 0x1 SWAP1 JUMP JUMPDEST SWAP2 SWAP1 DUP3 ADD DUP1 SWAP3 GT PUSH2 0x3BD JUMPI JUMP JUMPDEST PUSH1 0x0 NOT DUP2 EQ PUSH2 0x3BD JUMPI PUSH1 0x1 ADD SWAP1 JUMP JUMPDEST DUP1 SLOAD PUSH1 0x1 PUSH1 0x40 SHL DUP2 LT ISZERO PUSH2 0xB92 JUMPI PUSH2 0x233D SWAP2 PUSH1 0x1 DUP3 ADD DUP2 SSTORE PUSH2 0x1F1B JUMP JUMPDEST DUP2 SWAP3 SWAP2 SLOAD SWAP1 PUSH1 0x3 SHL SWAP2 DUP3 SHL SWAP2 PUSH1 0x0 NOT SWAP1 SHL NOT AND OR SWAP1 SSTORE JUMP JUMPDEST PUSH1 0xFF PUSH1 0x2 SLOAD AND PUSH2 0x2361 JUMPI JUMP JUMPDEST PUSH1 0x40 MLOAD PUSH4 0xD93C0665 PUSH1 0xE0 SHL DUP2 MSTORE PUSH1 0x4 SWAP1 REVERT JUMPDEST ISZERO PUSH2 0x237A JUMPI JUMP JUMPDEST PUSH1 0x40 MLOAD PUSH3 0x461BCD PUSH1 0xE5 SHL DUP2 MSTORE PUSH1 0x20 PUSH1 0x4 DUP3 ADD MSTORE PUSH1 0x13 PUSH1 0x24 DUP3 ADD MSTORE PUSH19 0x131BDCDCC8191BD95CC81B9BDD08195E1A5CDD PUSH1 0x6A SHL PUSH1 0x44 DUP3 ADD MSTORE PUSH1 0x64 SWAP1 REVERT JUMPDEST PUSH1 0x2 PUSH1 0x0 SLOAD EQ PUSH2 0x23C6 JUMPI PUSH1 0x2 PUSH1 0x0 SSTORE JUMP JUMPDEST PUSH1 0x40 MLOAD PUSH4 0x3EE5AEB5 PUSH1 0xE0 SHL DUP2 MSTORE PUSH1 0x4 SWAP1 REVERT JUMPDEST SWAP2 SWAP1 DUP3 SUB SWAP2 DUP3 GT PUSH2 0x3BD JUMPI JUMP JUMPDEST DUP2 ISZERO PUSH2 0x23EF JUMPI DIV SWAP1 JUMP JUMPDEST PUSH4 0x4E487B71 PUSH1 0xE0 SHL PUSH1 0x0 MSTORE PUSH1 0x12 PUSH1 0x4 MSTORE PUSH1 0x24 PUSH1 0x0 REVERT JUMPDEST RETURNDATASIZE ISZERO PUSH2 0x2430 JUMPI RETURNDATASIZE SWAP1 PUSH2 0x2416 DUP3 PUSH2 0x2117 JUMP JUMPDEST SWAP2 PUSH2 0x2424 PUSH1 0x40 MLOAD SWAP4 DUP5 PUSH2 0x204F JUMP JUMPDEST DUP3 MSTORE RETURNDATASIZE PUSH1 0x0 PUSH1 0x20 DUP5 ADD RETURNDATACOPY JUMP JUMPDEST PUSH1 0x60 SWAP1 JUMP JUMPDEST PUSH1 0x1 PUSH1 0x1 PUSH1 0xA0 SHL SUB SWAP1 DUP2 AND PUSH1 0x0 SWAP1 DUP2 MSTORE PUSH1 0x8 PUSH1 0x20 MSTORE PUSH1 0x40 DUP1 DUP3 KECCAK256 SWAP1 MLOAD SWAP1 SWAP4 SWAP2 SWAP3 PUSH2 0x245E DUP3 PUSH2 0x2032 JUMP JUMPDEST DUP5 SLOAD AND DUP2 MSTORE PUSH1 0x1 DUP5 ADD SLOAD SWAP4 PUSH1 0x20 DUP3 ADD SWAP2 DUP6 DUP4 MSTORE PUSH1 0xE0 PUSH1 0xFF PUSH1 0x6 PUSH1 0x2 DUP6 ADD SLOAD SWAP5 DUP6 PUSH1 0x40 DUP7 ADD MSTORE PUSH1 0x3 DUP2 ADD SLOAD PUSH1 0x60 DUP7 ADD MSTORE PUSH1 0x4 DUP2 ADD SLOAD PUSH1 0x80 DUP7 ADD MSTORE PUSH1 0x5 DUP2 ADD SLOAD PUSH1 0xA0 DUP7 ADD MSTORE ADD SLOAD DUP2 DUP2 AND ISZERO ISZERO PUSH1 0xC0 DUP6 ADD MSTORE PUSH1 0x8 SHR AND ISZERO ISZERO SWAP2 ADD MSTORE DUP1 ISZERO PUSH2 0x24FF JUMPI PUSH2 0x24C8 SWAP2 SWAP3 SWAP4 SWAP5 PUSH2 0x2304 JUMP JUMPDEST SWAP1 MLOAD PUSH1 0x64 DUP2 MUL SWAP1 DUP1 DUP3 DIV PUSH1 0x64 EQ SWAP1 ISZERO OR ISZERO PUSH2 0x24EB JUMPI PUSH2 0x24E8 SWAP3 SWAP4 POP PUSH2 0x23E5 JUMP JUMPDEST SWAP1 JUMP JUMPDEST PUSH4 0x4E487B71 PUSH1 0xE0 SHL DUP5 MSTORE PUSH1 0x11 PUSH1 0x4 MSTORE PUSH1 0x24 DUP5 REVERT JUMPDEST POP SWAP1 SWAP3 ISZERO SWAP1 POP PUSH2 0x250F JUMPI POP PUSH1 0x64 SWAP1 JUMP JUMPDEST PUSH1 0xFF AND SWAP1 JUMP JUMPDEST PUSH32 0x14F51A27A51605D079F5A233D10786B96A4F13E78BEBD8F3891724619E0561CC PUSH1 0x20 PUSH2 0x2541 DUP4 PUSH2 0x2435 JUMP JUMPDEST SWAP3 PUSH1 0x1 DUP1 PUSH1 0xA0 SHL SUB AND SWAP3 DUP4 PUSH1 0x0 MSTORE PUSH1 0x8 DUP3 MSTORE DUP1 PUSH1 0x4 PUSH1 0x40 PUSH1 0x0 KECCAK256 ADD SSTORE PUSH1 0x40 MLOAD SWAP1 DUP2 MSTORE LOG2 JUMP INVALID LOG2 PUSH5 0x6970667358 0x22 SLT KECCAK256 0xCD 0xBB 0xCD MSTORE 0xB8 0x2C 0xFC 0xAF 0xD9 CALLVALUE 0xD1 0x4D PC 0x2C CODECOPY 0xA8 PUSH1 0x96 POP PUSH24 0x9936A796134B5BE9109809C664736F6C634300081400332F DUP8 DUP9 GT PUSH31 0x7EFF1D82E926EC794901D17C78024A50270940304540A733656F0D00000000 "},"methodIdentifiers":{"AUTO_APPROVE_THRESHOLD()":"4b468870","DAO_ROLE()":"e9c26518","DEFAULT_ADMIN_ROLE()":"a217fddf","EMERGENCY_FAST_TRACK()":"cde7720c","GUARDIAN_ROLE()":"24ea54f4","MAX_LOSS_DURATION()":"803faffb","MIN_VESTING_PERIOD()":"c85fcbe8","PLATFORM_FEE_BPS()":"539aa77f","activeLossCount()":"b582efa9","contribute(uint256)":"c1cbbca7","contributions(uint256,address)":"3d891f59","createLoss(address,uint8,uint256,string,bool)":"a0c206c5","distributeFunds(uint256)":"f726f715","flagEmergency(uint256)":"a8db456e","getGlobalStats()":"6b4169c3","getLoss(uint256)":"7d302494","getMemberContributions(address)":"4c203fcd","getMemberLosses(address)":"2fbbd1eb","getReciprocityScore(address)":"0294fa3b","getRoleAdmin(bytes32)":"248a9ca3","grantRole(bytes32,address)":"2f2ff15d","hasRole(bytes32,address)":"91d14854","hasVoted(uint256,address)":"43859632","lossContributions(uint256,uint256)":"03b41d7e","lossCounter()":"a480f3ff","losses(uint256)":"99bb5215","memberContributions(address,uint256)":"a3e75441","memberLosses(address,uint256)":"e931bed8","members(address)":"08ae4b0c","pause()":"8456cb59","paused()":"5c975abb","renounceRole(bytes32,address)":"36568abe","revokeRole(bytes32,address)":"d547741f","supportsInterface(bytes4)":"01ffc9a7","totalFundsCollected()":"f58a6d60","totalFundsDistributed()":"19bee474","unpause()":"3f4ba83a","verifyLoss(uint256,bool)":"ecf04008","votesAgainst(uint256)":"23b4a998","votesFor(uint256)":"b7f3b597","withdrawPlatformFees()":"d0b7830b"}},"storageLayout":{"storage":[{"astId":528,"contract":"contracts/MemorialFundDAO.sol:MemorialFundDAO","label":"_status","offset":0,"slot":"0","type":"t_uint256"},{"astId":27,"contract":"contracts/MemorialFundDAO.sol:MemorialFundDAO","label":"_roles","offset":0,"slot":"1","type":"t_mapping(t_bytes32,t_struct(RoleData)22_storage)"},{"astId":418,"contract":"contracts/MemorialFundDAO.sol:MemorialFundDAO","label":"_paused","offset":0,"slot":"2","type":"t_bool"},{"astId":2337,"contract":"contracts/MemorialFundDAO.sol:MemorialFundDAO","label":"lossCounter","offset":0,"slot":"3","type":"t_uint256"},{"astId":2339,"contract":"contracts/MemorialFundDAO.sol:MemorialFundDAO","label":"totalFundsDistributed","offset":0,"slot":"4","type":"t_uint256"},{"astId":2341,"contract":"contracts/MemorialFundDAO.sol:MemorialFundDAO","label":"totalFundsCollected","offset":0,"slot":"5","type":"t_uint256"},{"astId":2343,"contract":"contracts/MemorialFundDAO.sol:MemorialFundDAO","label":"activeLossCount","offset":0,"slot":"6","type":"t_uint256"},{"astId":2348,"contract":"contracts/MemorialFundDAO.sol:MemorialFundDAO","label":"losses","offset":0,"slot":"7","type":"t_mapping(t_uint256,t_struct(Loss)2307_storage)"},{"astId":2353,"contract":"contracts/MemorialFundDAO.sol:MemorialFundDAO","label":"members","offset":0,"slot":"8","type":"t_mapping(t_address,t_struct(Member)2324_storage)"},{"astId":2360,"contract":"contracts/MemorialFundDAO.sol:MemorialFundDAO","label":"contributions","offset":0,"slot":"9","type":"t_mapping(t_uint256,t_mapping(t_address,t_struct(Contribution)2335_storage))"},{"astId":2365,"contract":"contracts/MemorialFundDAO.sol:MemorialFundDAO","label":"lossContributions","offset":0,"slot":"10","type":"t_mapping(t_uint256,t_array(t_uint256)dyn_storage)"},{"astId":2370,"contract":"contracts/MemorialFundDAO.sol:MemorialFundDAO","label":"memberLosses","offset":0,"slot":"11","type":"t_mapping(t_address,t_array(t_uint256)dyn_storage)"},{"astId":2375,"contract":"contracts/MemorialFundDAO.sol:MemorialFundDAO","label":"memberContributions","offset":0,"slot":"12","type":"t_mapping(t_address,t_array(t_uint256)dyn_storage)"},{"astId":2381,"contract":"contracts/MemorialFundDAO.sol:MemorialFundDAO","label":"hasVoted","offset":0,"slot":"13","type":"t_mapping(t_uint256,t_mapping(t_address,t_bool))"},{"astId":2385,"contract":"contracts/MemorialFundDAO.sol:MemorialFundDAO","label":"votesFor","offset":0,"slot":"14","type":"t_mapping(t_uint256,t_uint256)"},{"astId":2389,"contract":"contracts/MemorialFundDAO.sol:MemorialFundDAO","label":"votesAgainst","offset":0,"slot":"15","type":"t_mapping(t_uint256,t_uint256)"}],"types":{"t_address":{"encoding":"inplace","label":"address","numberOfBytes":"20"},"t_address_payable":{"encoding":"inplace","label":"address payable","numberOfBytes":"20"},"t_array(t_address)dyn_storage":{"base":"t_address","encoding":"dynamic_array","label":"address[]","numberOfBytes":"32"},"t_array(t_uint256)dyn_storage":{"base":"t_uint256","encoding":"dynamic_array","label":"uint256[]","numberOfBytes":"32"},"t_bool":{"encoding":"inplace","label":"bool","numberOfBytes":"1"},"t_bytes32":{"encoding":"inplace","label":"bytes32","numberOfBytes":"32"},"t_enum(LossStatus)2269":{"encoding":"inplace","label":"enum MemorialFundDAO.LossStatus","numberOfBytes":"1"},"t_enum(LossType)2262":{"encoding":"inplace","label":"enum MemorialFundDAO.LossType","numberOfBytes":"1"},"t_enum(VerificationStatus)2274":{"encoding":"inplace","label":"enum MemorialFundDAO.VerificationStatus","numberOfBytes":"1"},"t_mapping(t_address,t_array(t_uint256)dyn_storage)":{"encoding":"mapping","key":"t_address","label":"mapping(address => uint256[])","numberOfBytes":"32","value":"t_array(t_uint256)dyn_storage"},"t_mapping(t_address,t_bool)":{"encoding":"mapping","key":"t_address","label":"mapping(address => bool)","numberOfBytes":"32","value":"t_bool"},"t_mapping(t_address,t_struct(Contribution)2335_storage)":{"encoding":"mapping","key":"t_address","label":"mapping(address => struct MemorialFundDAO.Contribution)","numberOfBytes":"32","value":"t_struct(Contribution)2335_storage"},"t_mapping(t_address,t_struct(Member)2324_storage)":{"encoding":"mapping","key":"t_address","label":"mapping(address => struct MemorialFundDAO.Member)","numberOfBytes":"32","value":"t_struct(Member)2324_storage"},"t_mapping(t_bytes32,t_struct(RoleData)22_storage)":{"encoding":"mapping","key":"t_bytes32","label":"mapping(bytes32 => struct AccessControl.RoleData)","numberOfBytes":"32","value":"t_struct(RoleData)22_storage"},"t_mapping(t_uint256,t_array(t_uint256)dyn_storage)":{"encoding":"mapping","key":"t_uint256","label":"mapping(uint256 => uint256[])","numberOfBytes":"32","value":"t_array(t_uint256)dyn_storage"},"t_mapping(t_uint256,t_mapping(t_address,t_bool))":{"encoding":"mapping","key":"t_uint256","label":"mapping(uint256 => mapping(address => bool))","numberOfBytes":"32","value":"t_mapping(t_address,t_bool)"},"t_mapping(t_uint256,t_mapping(t_address,t_struct(Contribution)2335_storage))":{"encoding":"mapping","key":"t_uint256","label":"mapping(uint256 => mapping(address => struct MemorialFundDAO.Contribution))","numberOfBytes":"32","value":"t_mapping(t_address,t_struct(Contribution)2335_storage)"},"t_mapping(t_uint256,t_struct(Loss)2307_storage)":{"encoding":"mapping","key":"t_uint256","label":"mapping(uint256 => struct MemorialFundDAO.Loss)","numberOfBytes":"32","value":"t_struct(Loss)2307_storage"},"t_mapping(t_uint256,t_uint256)":{"encoding":"mapping","key":"t_uint256","label":"mapping(uint256 => uint256)","numberOfBytes":"32","value":"t_uint256"},"t_string_storage":{"encoding":"bytes","label":"string","numberOfBytes":"32"},"t_struct(Contribution)2335_storage":{"encoding":"inplace","label":"struct MemorialFundDAO.Contribution","members":[{"astId":2326,"contract":"contracts/MemorialFundDAO.sol:MemorialFundDAO","label":"contributor","offset":0,"slot":"0","type":"t_address"},{"astId":2328,"contract":"contracts/MemorialFundDAO.sol:MemorialFundDAO","label":"amount","offset":0,"slot":"1","type":"t_uint256"},{"astId":2330,"contract":"contracts/MemorialFundDAO.sol:MemorialFundDAO","label":"timestamp","offset":0,"slot":"2","type":"t_uint256"},{"astId":2332,"contract":"contracts/MemorialFundDAO.sol:MemorialFundDAO","label":"recurring","offset":0,"slot":"3","type":"t_bool"},{"astId":2334,"contract":"contracts/MemorialFundDAO.sol:MemorialFundDAO","label":"recurringEndDate","offset":0,"slot":"4","type":"t_uint256"}],"numberOfBytes":"160"},"t_struct(Loss)2307_storage":{"encoding":"inplace","label":"struct MemorialFundDAO.Loss","members":[{"astId":2276,"contract":"contracts/MemorialFundDAO.sol:MemorialFundDAO","label":"id","offset":0,"slot":"0","type":"t_uint256"},{"astId":2278,"contract":"contracts/MemorialFundDAO.sol:MemorialFundDAO","label":"triad","offset":0,"slot":"1","type":"t_address_payable"},{"astId":2281,"contract":"contracts/MemorialFundDAO.sol:MemorialFundDAO","label":"lossType","offset":20,"slot":"1","type":"t_enum(LossType)2262"},{"astId":2284,"contract":"contracts/MemorialFundDAO.sol:MemorialFundDAO","label":"status","offset":21,"slot":"1","type":"t_enum(LossStatus)2269"},{"astId":2287,"contract":"contracts/MemorialFundDAO.sol:MemorialFundDAO","label":"verificationStatus","offset":22,"slot":"1","type":"t_enum(VerificationStatus)2274"},{"astId":2289,"contract":"contracts/MemorialFundDAO.sol:MemorialFundDAO","label":"targetAmount","offset":0,"slot":"2","type":"t_uint256"},{"astId":2291,"contract":"contracts/MemorialFundDAO.sol:MemorialFundDAO","label":"collectedAmount","offset":0,"slot":"3","type":"t_uint256"},{"astId":2293,"contract":"contracts/MemorialFundDAO.sol:MemorialFundDAO","label":"distributedAmount","offset":0,"slot":"4","type":"t_uint256"},{"astId":2295,"contract":"contracts/MemorialFundDAO.sol:MemorialFundDAO","label":"createdAt","offset":0,"slot":"5","type":"t_uint256"},{"astId":2297,"contract":"contracts/MemorialFundDAO.sol:MemorialFundDAO","label":"expiresAt","offset":0,"slot":"6","type":"t_uint256"},{"astId":2299,"contract":"contracts/MemorialFundDAO.sol:MemorialFundDAO","label":"verifiedAt","offset":0,"slot":"7","type":"t_uint256"},{"astId":2301,"contract":"contracts/MemorialFundDAO.sol:MemorialFundDAO","label":"metadataURI","offset":0,"slot":"8","type":"t_string_storage"},{"astId":2304,"contract":"contracts/MemorialFundDAO.sol:MemorialFundDAO","label":"contributors","offset":0,"slot":"9","type":"t_array(t_address)dyn_storage"},{"astId":2306,"contract":"contracts/MemorialFundDAO.sol:MemorialFundDAO","label":"emergencyFlagged","offset":0,"slot":"10","type":"t_bool"}],"numberOfBytes":"352"},"t_struct(Member)2324_storage":{"encoding":"inplace","label":"struct MemorialFundDAO.Member","members":[{"astId":2309,"contract":"contracts/MemorialFundDAO.sol:MemorialFundDAO","label":"wallet","offset":0,"slot":"0","type":"t_address"},{"astId":2311,"contract":"contracts/MemorialFundDAO.sol:MemorialFundDAO","label":"totalContributed","offset":0,"slot":"1","type":"t_uint256"},{"astId":2313,"contract":"contracts/MemorialFundDAO.sol:MemorialFundDAO","label":"totalReceived","offset":0,"slot":"2","type":"t_uint256"},{"astId":2315,"contract":"contracts/MemorialFundDAO.sol:MemorialFundDAO","label":"joinedAt","offset":0,"slot":"3","type":"t_uint256"},{"astId":2317,"contract":"contracts/MemorialFundDAO.sol:MemorialFundDAO","label":"reciprocityScore","offset":0,"slot":"4","type":"t_uint256"},{"astId":2319,"contract":"contracts/MemorialFundDAO.sol:MemorialFundDAO","label":"reputationScore","offset":0,"slot":"5","type":"t_uint256"},{"astId":2321,"contract":"contracts/MemorialFundDAO.sol:MemorialFundDAO","label":"isActive","offset":0,"slot":"6","type":"t_bool"},{"astId":2323,"contract":"contracts/MemorialFundDAO.sol:MemorialFundDAO","label":"inGoodStanding","offset":1,"slot":"6","type":"t_bool"}],"numberOfBytes":"224"},"t_struct(RoleData)22_storage":{"encoding":"inplace","label":"struct AccessControl.RoleData","members":[{"astId":19,"contract":"contracts/MemorialFundDAO.sol:MemorialFundDAO","label":"hasRole","offset":0,"slot":"0","type":"t_mapping(t_address,t_bool)"},{"astId":21,"contract":"contracts/MemorialFundDAO.sol:MemorialFundDAO","label":"adminRole","offset":0,"slot":"1","type":"t_bytes32"}],"numberOfBytes":"64"},"t_uint256":{"encoding":"inplace","label":"uint256","numberOfBytes":"32"}}}}}}