{
  "_format": "hh-sol-artifact-1",
  "contractName": "MemorialFundDAO",
  "sourceName": "contracts/MemorialFundDAO.sol",
  "abi": [
    {
      "inputs": [],
      "stateMutability": "nonpayable",
      "type": "constructor"
    },
    {
      "inputs": [],
      "name": "AccessControlBadConfirmation",
      "type": "error"
    },
    {
      "inputs": [
        {
          "internalType": "address",
          "name": "account",
          "type": "address"
        },
        {
          "internalType": "bytes32",
          "name": "neededRole",
          "type": "bytes32"
        }
      ],
      "name": "AccessControlUnauthorizedAccount",
      "type": "error"
    },
    {
      "inputs": [],
      "name": "EnforcedPause",
      "type": "error"
    },
    {
      "inputs": [],
      "name": "ExpectedPause",
      "type": "error"
    },
    {
      "inputs": [],
      "name": "ReentrancyGuardReentrantCall",
      "type": "error"
    },
    {
      "anonymous": false,
      "inputs": [
        {
          "indexed": true,
          "internalType": "uint256",
          "name": "lossId",
          "type": "uint256"
        },
        {
          "indexed": true,
          "internalType": "address",
          "name": "contributor",
          "type": "address"
        },
        {
          "indexed": false,
          "internalType": "uint256",
          "name": "amount",
          "type": "uint256"
        },
        {
          "indexed": false,
          "internalType": "bool",
          "name": "recurring",
          "type": "bool"
        }
      ],
      "name": "ContributionReceived",
      "type": "event"
    },
    {
      "anonymous": false,
      "inputs": [
        {
          "indexed": true,
          "internalType": "uint256",
          "name": "lossId",
          "type": "uint256"
        },
        {
          "indexed": true,
          "internalType": "address",
          "name": "flaggedBy",
          "type": "address"
        }
      ],
      "name": "EmergencyFlagged",
      "type": "event"
    },
    {
      "anonymous": false,
      "inputs": [
        {
          "indexed": true,
          "internalType": "uint256",
          "name": "lossId",
          "type": "uint256"
        },
        {
          "indexed": true,
          "internalType": "address",
          "name": "recipient",
          "type": "address"
        },
        {
          "indexed": false,
          "internalType": "uint256",
          "name": "amount",
          "type": "uint256"
        },
        {
          "indexed": false,
          "internalType": "uint256",
          "name": "platformFee",
          "type": "uint256"
        }
      ],
      "name": "FundsDistributed",
      "type": "event"
    },
    {
      "anonymous": false,
      "inputs": [
        {
          "indexed": true,
          "internalType": "uint256",
          "name": "lossId",
          "type": "uint256"
        },
        {
          "indexed": true,
          "internalType": "address",
          "name": "triad",
          "type": "address"
        },
        {
          "indexed": false,
          "internalType": "enum MemorialFundDAO.LossType",
          "name": "lossType",
          "type": "uint8"
        },
        {
          "indexed": false,
          "internalType": "uint256",
          "name": "targetAmount",
          "type": "uint256"
        },
        {
          "indexed": false,
          "internalType": "bool",
          "name": "emergency",
          "type": "bool"
        }
      ],
      "name": "LossCreated",
      "type": "event"
    },
    {
      "anonymous": false,
      "inputs": [
        {
          "indexed": true,
          "internalType": "uint256",
          "name": "lossId",
          "type": "uint256"
        },
        {
          "indexed": true,
          "internalType": "address",
          "name": "verifier",
          "type": "address"
        },
        {
          "indexed": false,
          "internalType": "enum MemorialFundDAO.VerificationStatus",
          "name": "status",
          "type": "uint8"
        }
      ],
      "name": "LossVerified",
      "type": "event"
    },
    {
      "anonymous": false,
      "inputs": [
        {
          "indexed": true,
          "internalType": "address",
          "name": "member",
          "type": "address"
        },
        {
          "indexed": false,
          "internalType": "uint256",
          "name": "timestamp",
          "type": "uint256"
        }
      ],
      "name": "MemberJoined",
      "type": "event"
    },
    {
      "anonymous": false,
      "inputs": [
        {
          "indexed": false,
          "internalType": "address",
          "name": "account",
          "type": "address"
        }
      ],
      "name": "Paused",
      "type": "event"
    },
    {
      "anonymous": false,
      "inputs": [
        {
          "indexed": true,
          "internalType": "address",
          "name": "member",
          "type": "address"
        },
        {
          "indexed": false,
          "internalType": "uint256",
          "name": "score",
          "type": "uint256"
        }
      ],
      "name": "ReciprocityUpdated",
      "type": "event"
    },
    {
      "anonymous": false,
      "inputs": [
        {
          "indexed": true,
          "internalType": "bytes32",
          "name": "role",
          "type": "bytes32"
        },
        {
          "indexed": true,
          "internalType": "bytes32",
          "name": "previousAdminRole",
          "type": "bytes32"
        },
        {
          "indexed": true,
          "internalType": "bytes32",
          "name": "newAdminRole",
          "type": "bytes32"
        }
      ],
      "name": "RoleAdminChanged",
      "type": "event"
    },
    {
      "anonymous": false,
      "inputs": [
        {
          "indexed": true,
          "internalType": "bytes32",
          "name": "role",
          "type": "bytes32"
        },
        {
          "indexed": true,
          "internalType": "address",
          "name": "account",
          "type": "address"
        },
        {
          "indexed": true,
          "internalType": "address",
          "name": "sender",
          "type": "address"
        }
      ],
      "name": "RoleGranted",
      "type": "event"
    },
    {
      "anonymous": false,
      "inputs": [
        {
          "indexed": true,
          "internalType": "bytes32",
          "name": "role",
          "type": "bytes32"
        },
        {
          "indexed": true,
          "internalType": "address",
          "name": "account",
          "type": "address"
        },
        {
          "indexed": true,
          "internalType": "address",
          "name": "sender",
          "type": "address"
        }
      ],
      "name": "RoleRevoked",
      "type": "event"
    },
    {
      "anonymous": false,
      "inputs": [
        {
          "indexed": false,
          "internalType": "address",
          "name": "account",
          "type": "address"
        }
      ],
      "name": "Unpaused",
      "type": "event"
    },
    {
      "inputs": [],
      "name": "AUTO_APPROVE_THRESHOLD",
      "outputs": [
        {
          "internalType": "uint256",
          "name": "",
          "type": "uint256"
        }
      ],
      "stateMutability": "view",
      "type": "function"
    },
    {
      "inputs": [],
      "name": "DAO_ROLE",
      "outputs": [
        {
          "internalType": "bytes32",
          "name": "",
          "type": "bytes32"
        }
      ],
      "stateMutability": "view",
      "type": "function"
    },
    {
      "inputs": [],
      "name": "DEFAULT_ADMIN_ROLE",
      "outputs": [
        {
          "internalType": "bytes32",
          "name": "",
          "type": "bytes32"
        }
      ],
      "stateMutability": "view",
      "type": "function"
    },
    {
      "inputs": [],
      "name": "EMERGENCY_FAST_TRACK",
      "outputs": [
        {
          "internalType": "uint256",
          "name": "",
          "type": "uint256"
        }
      ],
      "stateMutability": "view",
      "type": "function"
    },
    {
      "inputs": [],
      "name": "GUARDIAN_ROLE",
      "outputs": [
        {
          "internalType": "bytes32",
          "name": "",
          "type": "bytes32"
        }
      ],
      "stateMutability": "view",
      "type": "function"
    },
    {
      "inputs": [],
      "name": "MAX_LOSS_DURATION",
      "outputs": [
        {
          "internalType": "uint256",
          "name": "",
          "type": "uint256"
        }
      ],
      "stateMutability": "view",
      "type": "function"
    },
    {
      "inputs": [],
      "name": "MIN_VESTING_PERIOD",
      "outputs": [
        {
          "internalType": "uint256",
          "name": "",
          "type": "uint256"
        }
      ],
      "stateMutability": "view",
      "type": "function"
    },
    {
      "inputs": [],
      "name": "PLATFORM_FEE_BPS",
      "outputs": [
        {
          "internalType": "uint256",
          "name": "",
          "type": "uint256"
        }
      ],
      "stateMutability": "view",
      "type": "function"
    },
    {
      "inputs": [],
      "name": "activeLossCount",
      "outputs": [
        {
          "internalType": "uint256",
          "name": "",
          "type": "uint256"
        }
      ],
      "stateMutability": "view",
      "type": "function"
    },
    {
      "inputs": [
        {
          "internalType": "uint256",
          "name": "_lossId",
          "type": "uint256"
        }
      ],
      "name": "contribute",
      "outputs": [],
      "stateMutability": "payable",
      "type": "function"
    },
    {
      "inputs": [
        {
          "internalType": "uint256",
          "name": "",
          "type": "uint256"
        },
        {
          "internalType": "address",
          "name": "",
          "type": "address"
        }
      ],
      "name": "contributions",
      "outputs": [
        {
          "internalType": "address",
          "name": "contributor",
          "type": "address"
        },
        {
          "internalType": "uint256",
          "name": "amount",
          "type": "uint256"
        },
        {
          "internalType": "uint256",
          "name": "timestamp",
          "type": "uint256"
        },
        {
          "internalType": "bool",
          "name": "recurring",
          "type": "bool"
        },
        {
          "internalType": "uint256",
          "name": "recurringEndDate",
          "type": "uint256"
        }
      ],
      "stateMutability": "view",
      "type": "function"
    },
    {
      "inputs": [
        {
          "internalType": "address payable",
          "name": "_triad",
          "type": "address"
        },
        {
          "internalType": "enum MemorialFundDAO.LossType",
          "name": "_lossType",
          "type": "uint8"
        },
        {
          "internalType": "uint256",
          "name": "_targetAmount",
          "type": "uint256"
        },
        {
          "internalType": "string",
          "name": "_metadataURI",
          "type": "string"
        },
        {
          "internalType": "bool",
          "name": "_emergency",
          "type": "bool"
        }
      ],
      "name": "createLoss",
      "outputs": [
        {
          "internalType": "uint256",
          "name": "",
          "type": "uint256"
        }
      ],
      "stateMutability": "nonpayable",
      "type": "function"
    },
    {
      "inputs": [
        {
          "internalType": "uint256",
          "name": "_lossId",
          "type": "uint256"
        }
      ],
      "name": "distributeFunds",
      "outputs": [],
      "stateMutability": "nonpayable",
      "type": "function"
    },
    {
      "inputs": [
        {
          "internalType": "uint256",
          "name": "_lossId",
          "type": "uint256"
        }
      ],
      "name": "flagEmergency",
      "outputs": [],
      "stateMutability": "nonpayable",
      "type": "function"
    },
    {
      "inputs": [],
      "name": "getGlobalStats",
      "outputs": [
        {
          "internalType": "uint256",
          "name": "totalLosses",
          "type": "uint256"
        },
        {
          "internalType": "uint256",
          "name": "activeLosses",
          "type": "uint256"
        },
        {
          "internalType": "uint256",
          "name": "totalCollected",
          "type": "uint256"
        },
        {
          "internalType": "uint256",
          "name": "totalDistributed",
          "type": "uint256"
        },
        {
          "internalType": "uint256",
          "name": "successRate",
          "type": "uint256"
        }
      ],
      "stateMutability": "view",
      "type": "function"
    },
    {
      "inputs": [
        {
          "internalType": "uint256",
          "name": "_lossId",
          "type": "uint256"
        }
      ],
      "name": "getLoss",
      "outputs": [
        {
          "components": [
            {
              "internalType": "uint256",
              "name": "id",
              "type": "uint256"
            },
            {
              "internalType": "address payable",
              "name": "triad",
              "type": "address"
            },
            {
              "internalType": "enum MemorialFundDAO.LossType",
              "name": "lossType",
              "type": "uint8"
            },
            {
              "internalType": "enum MemorialFundDAO.LossStatus",
              "name": "status",
              "type": "uint8"
            },
            {
              "internalType": "enum MemorialFundDAO.VerificationStatus",
              "name": "verificationStatus",
              "type": "uint8"
            },
            {
              "internalType": "uint256",
              "name": "targetAmount",
              "type": "uint256"
            },
            {
              "internalType": "uint256",
              "name": "collectedAmount",
              "type": "uint256"
            },
            {
              "internalType": "uint256",
              "name": "distributedAmount",
              "type": "uint256"
            },
            {
              "internalType": "uint256",
              "name": "createdAt",
              "type": "uint256"
            },
            {
              "internalType": "uint256",
              "name": "expiresAt",
              "type": "uint256"
            },
            {
              "internalType": "uint256",
              "name": "verifiedAt",
              "type": "uint256"
            },
            {
              "internalType": "string",
              "name": "metadataURI",
              "type": "string"
            },
            {
              "internalType": "address[]",
              "name": "contributors",
              "type": "address[]"
            },
            {
              "internalType": "bool",
              "name": "emergencyFlagged",
              "type": "bool"
            }
          ],
          "internalType": "struct MemorialFundDAO.Loss",
          "name": "",
          "type": "tuple"
        }
      ],
      "stateMutability": "view",
      "type": "function"
    },
    {
      "inputs": [
        {
          "internalType": "address",
          "name": "_member",
          "type": "address"
        }
      ],
      "name": "getMemberContributions",
      "outputs": [
        {
          "internalType": "uint256[]",
          "name": "",
          "type": "uint256[]"
        }
      ],
      "stateMutability": "view",
      "type": "function"
    },
    {
      "inputs": [
        {
          "internalType": "address",
          "name": "_member",
          "type": "address"
        }
      ],
      "name": "getMemberLosses",
      "outputs": [
        {
          "internalType": "uint256[]",
          "name": "",
          "type": "uint256[]"
        }
      ],
      "stateMutability": "view",
      "type": "function"
    },
    {
      "inputs": [
        {
          "internalType": "address",
          "name": "_member",
          "type": "address"
        }
      ],
      "name": "getReciprocityScore",
      "outputs": [
        {
          "internalType": "uint256",
          "name": "",
          "type": "uint256"
        }
      ],
      "stateMutability": "view",
      "type": "function"
    },
    {
      "inputs": [
        {
          "internalType": "bytes32",
          "name": "role",
          "type": "bytes32"
        }
      ],
      "name": "getRoleAdmin",
      "outputs": [
        {
          "internalType": "bytes32",
          "name": "",
          "type": "bytes32"
        }
      ],
      "stateMutability": "view",
      "type": "function"
    },
    {
      "inputs": [
        {
          "internalType": "bytes32",
          "name": "role",
          "type": "bytes32"
        },
        {
          "internalType": "address",
          "name": "account",
          "type": "address"
        }
      ],
      "name": "grantRole",
      "outputs": [],
      "stateMutability": "nonpayable",
      "type": "function"
    },
    {
      "inputs": [
        {
          "internalType": "bytes32",
          "name": "role",
          "type": "bytes32"
        },
        {
          "internalType": "address",
          "name": "account",
          "type": "address"
        }
      ],
      "name": "hasRole",
      "outputs": [
        {
          "internalType": "bool",
          "name": "",
          "type": "bool"
        }
      ],
      "stateMutability": "view",
      "type": "function"
    },
    {
      "inputs": [
        {
          "internalType": "uint256",
          "name": "",
          "type": "uint256"
        },
        {
          "internalType": "address",
          "name": "",
          "type": "address"
        }
      ],
      "name": "hasVoted",
      "outputs": [
        {
          "internalType": "bool",
          "name": "",
          "type": "bool"
        }
      ],
      "stateMutability": "view",
      "type": "function"
    },
    {
      "inputs": [
        {
          "internalType": "uint256",
          "name": "",
          "type": "uint256"
        },
        {
          "internalType": "uint256",
          "name": "",
          "type": "uint256"
        }
      ],
      "name": "lossContributions",
      "outputs": [
        {
          "internalType": "uint256",
          "name": "",
          "type": "uint256"
        }
      ],
      "stateMutability": "view",
      "type": "function"
    },
    {
      "inputs": [],
      "name": "lossCounter",
      "outputs": [
        {
          "internalType": "uint256",
          "name": "",
          "type": "uint256"
        }
      ],
      "stateMutability": "view",
      "type": "function"
    },
    {
      "inputs": [
        {
          "internalType": "uint256",
          "name": "",
          "type": "uint256"
        }
      ],
      "name": "losses",
      "outputs": [
        {
          "internalType": "uint256",
          "name": "id",
          "type": "uint256"
        },
        {
          "internalType": "address payable",
          "name": "triad",
          "type": "address"
        },
        {
          "internalType": "enum MemorialFundDAO.LossType",
          "name": "lossType",
          "type": "uint8"
        },
        {
          "internalType": "enum MemorialFundDAO.LossStatus",
          "name": "status",
          "type": "uint8"
        },
        {
          "internalType": "enum MemorialFundDAO.VerificationStatus",
          "name": "verificationStatus",
          "type": "uint8"
        },
        {
          "internalType": "uint256",
          "name": "targetAmount",
          "type": "uint256"
        },
        {
          "internalType": "uint256",
          "name": "collectedAmount",
          "type": "uint256"
        },
        {
          "internalType": "uint256",
          "name": "distributedAmount",
          "type": "uint256"
        },
        {
          "internalType": "uint256",
          "name": "createdAt",
          "type": "uint256"
        },
        {
          "internalType": "uint256",
          "name": "expiresAt",
          "type": "uint256"
        },
        {
          "internalType": "uint256",
          "name": "verifiedAt",
          "type": "uint256"
        },
        {
          "internalType": "string",
          "name": "metadataURI",
          "type": "string"
        },
        {
          "internalType": "bool",
          "name": "emergencyFlagged",
          "type": "bool"
        }
      ],
      "stateMutability": "view",
      "type": "function"
    },
    {
      "inputs": [
        {
          "internalType": "address",
          "name": "",
          "type": "address"
        },
        {
          "internalType": "uint256",
          "name": "",
          "type": "uint256"
        }
      ],
      "name": "memberContributions",
      "outputs": [
        {
          "internalType": "uint256",
          "name": "",
          "type": "uint256"
        }
      ],
      "stateMutability": "view",
      "type": "function"
    },
    {
      "inputs": [
        {
          "internalType": "address",
          "name": "",
          "type": "address"
        },
        {
          "internalType": "uint256",
          "name": "",
          "type": "uint256"
        }
      ],
      "name": "memberLosses",
      "outputs": [
        {
          "internalType": "uint256",
          "name": "",
          "type": "uint256"
        }
      ],
      "stateMutability": "view",
      "type": "function"
    },
    {
      "inputs": [
        {
          "internalType": "address",
          "name": "",
          "type": "address"
        }
      ],
      "name": "members",
      "outputs": [
        {
          "internalType": "address",
          "name": "wallet",
          "type": "address"
        },
        {
          "internalType": "uint256",
          "name": "totalContributed",
          "type": "uint256"
        },
        {
          "internalType": "uint256",
          "name": "totalReceived",
          "type": "uint256"
        },
        {
          "internalType": "uint256",
          "name": "joinedAt",
          "type": "uint256"
        },
        {
          "internalType": "uint256",
          "name": "reciprocityScore",
          "type": "uint256"
        },
        {
          "internalType": "uint256",
          "name": "reputationScore",
          "type": "uint256"
        },
        {
          "internalType": "bool",
          "name": "isActive",
          "type": "bool"
        },
        {
          "internalType": "bool",
          "name": "inGoodStanding",
          "type": "bool"
        }
      ],
      "stateMutability": "view",
      "type": "function"
    },
    {
      "inputs": [],
      "name": "pause",
      "outputs": [],
      "stateMutability": "nonpayable",
      "type": "function"
    },
    {
      "inputs": [],
      "name": "paused",
      "outputs": [
        {
          "internalType": "bool",
          "name": "",
          "type": "bool"
        }
      ],
      "stateMutability": "view",
      "type": "function"
    },
    {
      "inputs": [
        {
          "internalType": "bytes32",
          "name": "role",
          "type": "bytes32"
        },
        {
          "internalType": "address",
          "name": "callerConfirmation",
          "type": "address"
        }
      ],
      "name": "renounceRole",
      "outputs": [],
      "stateMutability": "nonpayable",
      "type": "function"
    },
    {
      "inputs": [
        {
          "internalType": "bytes32",
          "name": "role",
          "type": "bytes32"
        },
        {
          "internalType": "address",
          "name": "account",
          "type": "address"
        }
      ],
      "name": "revokeRole",
      "outputs": [],
      "stateMutability": "nonpayable",
      "type": "function"
    },
    {
      "inputs": [
        {
          "internalType": "bytes4",
          "name": "interfaceId",
          "type": "bytes4"
        }
      ],
      "name": "supportsInterface",
      "outputs": [
        {
          "internalType": "bool",
          "name": "",
          "type": "bool"
        }
      ],
      "stateMutability": "view",
      "type": "function"
    },
    {
      "inputs": [],
      "name": "totalFundsCollected",
      "outputs": [
        {
          "internalType": "uint256",
          "name": "",
          "type": "uint256"
        }
      ],
      "stateMutability": "view",
      "type": "function"
    },
    {
      "inputs": [],
      "name": "totalFundsDistributed",
      "outputs": [
        {
          "internalType": "uint256",
          "name": "",
          "type": "uint256"
        }
      ],
      "stateMutability": "view",
      "type": "function"
    },
    {
      "inputs": [],
      "name": "unpause",
      "outputs": [],
      "stateMutability": "nonpayable",
      "type": "function"
    },
    {
      "inputs": [
        {
          "internalType": "uint256",
          "name": "_lossId",
          "type": "uint256"
        },
        {
          "internalType": "bool",
          "name": "_approved",
          "type": "bool"
        }
      ],
      "name": "verifyLoss",
      "outputs": [],
      "stateMutability": "nonpayable",
      "type": "function"
    },
    {
      "inputs": [
        {
          "internalType": "uint256",
          "name": "",
          "type": "uint256"
        }
      ],
      "name": "votesAgainst",
      "outputs": [
        {
          "internalType": "uint256",
          "name": "",
          "type": "uint256"
        }
      ],
      "stateMutability": "view",
      "type": "function"
    },
    {
      "inputs": [
        {
          "internalType": "uint256",
          "name": "",
          "type": "uint256"
        }
      ],
      "name": "votesFor",
      "outputs": [
        {
          "internalType": "uint256",
          "name": "",
          "type": "uint256"
        }
      ],
      "stateMutability": "view",
      "type": "function"
    },
    {
      "inputs": [],
      "name": "withdrawPlatformFees",
      "outputs": [],
      "stateMutability": "nonpayable",
      "type": "function"
    },
    {
      "stateMutability": "payable",
      "type": "receive"
    }
  ],
  "bytecode": "0x608060405234620000435760016000556200001a3362000048565b506200002633620000c9565b5062000032336200016c565b5060405161259c90816200020b8239f35b600080fd5b6001600160a01b031660008181527fa6eef7e35abe7026729641147f7915573c7e97b47efa546f5f6e3230263bcb49602052604081205490919060ff16620000c55781805260016020526040822081835260205260408220600160ff198254161790553391600080516020620027a78339815191528180a4600190565b5090565b6001600160a01b031660008181527fe8fad4b49f5ba25b2c682cfec2ac50a7a40bbd1e12ab51733ec3e9c2f6f1c5db60205260408120549091907f55435dd261a4b9b3364963f7738a7a662ad9c84396d64be3365284bb7f0a50419060ff16620001675780835260016020526040832082845260205260408320600160ff19825416179055600080516020620027a7833981519152339380a4600190565b505090565b6001600160a01b031660008181527f84433e072bc3ac3c18226f9f21b50875aa98e54f9cd054a671364d170e03666160205260408120549091907f3b5d4cc60d3ec3516ee8ae083bd60934f6eb2a6c54b1229985c41bfb092b26039060ff16620001675780835260016020526040832082845260205260408320600160ff19825416179055600080516020620027a7833981519152339380a460019056fe608080604052600436101561001d575b50361561001b57600080fd5b005b60003560e01c90816301ffc9a714611e9c575080630294fa3b14611e7157806303b41d7e14611e3857806308ae4b0c14611da757806319bee47414611d8957806323b4a99814611d5d578063248a9ca314611d2e57806324ea54f414611cf35780632f2ff15d14611cb45780632fbbd1eb14611c3c57806336568abe14611bf55780633d891f5914611b7a5780633f4ba83a14611b105780634385963214611ac35780634b46887014611a9f5780634c203fcd14611a17578063539aa77f146119fb5780635c975abb146119d85780636b4169c3146119695780637d3024941461168a578063803faffb1461166c5780638456cb591461161257806391d14854146115c557806399bb5215146114cd578063a0c206c514610da3578063a217fddf14610d87578063a3e7544114610d3d578063a480f3ff14610d1f578063a8db456e14610ca0578063b582efa914610c82578063b7f3b59714610c56578063c1cbbca714610874578063c85fcbe814610856578063cde7720c14610839578063d0b7830b14610760578063d547741f14610721578063e931bed8146106c9578063e9c265181461068e578063ecf040081461054f578063f58a6d60146105315763f726f715146101ed573861000f565b3461052c5760208060031936011261052c5760043580151580610520575b61021490612373565b61021c612355565b6102246123b5565b806000526007825260406000206001810180549060ff8260a81c1661024881611f84565b6001811490811561050c575b50156104d3576003830154916004840192835494858211156104965760ff8360b01c16600481101561048057600203610447578060ff600a88930154166103d3575b506102a0916123d8565b9260c8840284810460c814851517156103bd576127106102cc9104946102c686826123d8565b96612304565b905560ff60a81b1916600360a81b1781556004546102eb908490612304565b60045560065480156103bd576000190160065560018060a01b039081815416600052600886526002604060002001610324858254612304565b905561033282825416612515565b600080808087868654165af1610346612405565b501561038657917fbf69083e799a399c42e9ab19a3fc8b662ec522df69bb2d998588cbcf199c7dfb93916040935416958351928352820152a36001600055005b60405162461bcd60e51b815260048101879052600f60248201526e151c985b9cd9995c8819985a5b1959608a1b6044820152606490fd5b634e487b7160e01b600052601160045260246000fd5b600591500154610e1081018091116103bd5742106103f2578438610296565b60405162461bcd60e51b815260048101889052602760248201527f456d657267656e637920666173742d747261636b20706572696f64206e6f7420604482015266195b185c1cd95960ca1b6064820152608490fd5b60405162461bcd60e51b8152600481018990526011602482015270131bdcdcc81b9bdd081d995c9a599a5959607a1b6044820152606490fd5b634e487b7160e01b600052602160045260246000fd5b60405162461bcd60e51b81526004810189905260156024820152744e6f7468696e6720746f206469737472696275746560581b6044820152606490fd5b60405162461bcd60e51b815260048101869052601160248201527043616e6e6f74206469737472696275746560781b6044820152606490fd5b6002915061051981611f84565b1438610254565b5060035481111561020b565b600080fd5b3461052c57600036600319011261052c576020600554604051908152f35b3461052c57604036600319011261052c57600435602435801515810361052c5761057761218b565b81151580610682575b61058990612373565b81600052600760205260406000206001810190815460ff8160b01c1660048110156104805760010361063d5760ff9315610626575081544260079092019190915561ffff60a81b191661020160a81b1781556006546105e790612311565b6006555b5460b01c16906105fe6040518093611f8e565b7fc91dee0149a505b9d0f5dc99868f1776b067c22face0f95e90a74e02872cf11360203393a3005b61ffff60a81b191661030560a81b178255506105eb565b60405162461bcd60e51b815260206004820152601860248201527f4e6f742070656e64696e6720766572696669636174696f6e00000000000000006044820152606490fd5b50600354821115610580565b3461052c57600036600319011261052c5760206040517f3b5d4cc60d3ec3516ee8ae083bd60934f6eb2a6c54b1229985c41bfb092b26038152f35b3461052c57604036600319011261052c576106e2611eef565b6001600160a01b03166000908152600b602052604090208054602435919082101561052c5760209161071391611f1b565b90546040519160031b1c8152f35b3461052c57604036600319011261052c5761001b600435610740611f05565b9080600052600160205261075b6001604060002001546121e7565b61228d565b3461052c57600036600319011261052c57610779612133565b6107816123b5565b4760045480821160001461083057610798916123d8565b80156107f557600080808093335af16107af612405565b50156107bc576001600055005b60405162461bcd60e51b815260206004820152601160248201527015da5d1a191c985dd85b0819985a5b1959607a1b6044820152606490fd5b60405162461bcd60e51b81526020600482015260136024820152724e6f206665657320746f20776974686472617760681b6044820152606490fd5b50506000610798565b3461052c57600036600319011261052c576020604051610e108152f35b3461052c57600036600319011261052c5760206040516276a7008152f35b60208060031936011261052c576004359081151580610c4a575b61089790612373565b81600052600781526001918260ff816040600020015460a81c166108ba81611f84565b03610c13578060005260078252600660406000200154421015610bdf576108df612355565b6108e76123b5565b3415610ba8579081839260005260078252604060002091600981526040600020336000528152836040600020015415610b4d575b816000526009815260406000203360005281526040600020916bffffffffffffffffffffffff60a01b9233848254161790558060005260098252604060002033600052825284604060002001610972348254612304565b9055806000526009825260406000203360005282524260026040600020015560038401926109a1348554612304565b84556109af34600554612304565b600555336000526008835260ff6006604060002001541615610a66575b503360005260088252846040600020016109e7348254612304565b905533600052600c82526109ff816040600020612320565b610a0833612515565b6000604051923484528301527fe3a3c4f3cdaa1ed257de7ec52114e6f93de7e08963cb632caa2587432c94a44260403393a35460028201541115610a4d575b50600055005b01805460ff60a81b1916600160a91b1790558082610a47565b82610b066006604051610a7881612032565b338152838101600081526040820160008152606083014281526080840191600083528d60a08601946064865260c087019a828c52600860e089019b848d52336000525260406000209760018060a01b039051169088541617875551908601555160028501555160038401555160048301555160058201550192511515839060ff801983541691151516179055565b51151561ff0082549160081b169061ff0019161790556040514281527f7f3b9effe05cfb4f31f854004de03199fd03fe56bf38a48b2aa9a9f4402d6e23833392a2866109cc565b6009830180549450600160401b851015610b925784610b7191878097018155611f1b565b81546001600160a01b0360039290921b91821b19163390911b17905561091b565b634e487b7160e01b600052604160045260246000fd5b60405162461bcd60e51b815260048101839052600f60248201526e4d7573742073656e642066756e647360881b6044820152606490fd5b60405162461bcd60e51b815260048101839052600c60248201526b131bdcdcc8195e1c1a5c995960a21b6044820152606490fd5b60405162461bcd60e51b815260048101839052600f60248201526e4c6f7373206e6f742061637469766560881b6044820152606490fd5b5060035482111561088e565b3461052c57602036600319011261052c57600435600052600e6020526020604060002054604051908152f35b3461052c57600036600319011261052c576020600654604051908152f35b3461052c57602036600319011261052c57600435610cbc61218b565b80151580610d13575b610cce90612373565b806000526007602052600a604060002001600160ff1982541617905533907fd5527ac2295f918eb5c9a6121c8e0f29bef54c4b25de1f98331d541ffec71407600080a3005b50600354811115610cc5565b3461052c57600036600319011261052c576020600354604051908152f35b3461052c57604036600319011261052c57610d56611eef565b6001600160a01b03166000908152600c602052604090208054602435919082101561052c5760209161071391611f1b565b3461052c57600036600319011261052c57602060405160008152f35b3461052c5760a036600319011261052c576004356001600160a01b038116810361052c576006602435101561052c576064359067ffffffffffffffff821161052c573660238301121561052c578160040135610dfe81612117565b92610e0c604051948561204f565b818452366024838301011161052c5781600092602460209301838701378401015260843515156084350361052c5733600052600860205260ff60066040600020015416156114945733600052600860205260ff60066040600020015460081c1615611458573360005260086020526003604060002001546276a70081018091116103bd57421061141357610e9e612355565b6001600160a01b038116156113d6576044351561139c5760018060a01b038116600052600b6020526040600020906040518083602082955493848152019060005260206000209260005b818110611383575050610efd9250038361204f565b60005b82518110156110e35760208160051b840101516000526007602052604060002060405190610f2d82612015565b8054825260018101546001600160a01b038116602084015260a081901c60ff16610f5681611f84565b604084015260ff8160a81c16610f6b81611f84565b6060840152600460ff8260b01c1610156104805760b01c60ff166080830152600281015460a0830152600381015460c0830152600481015460e0830152600581015461010083015260068101546101208301526007810154610140830152610fd560088201612071565b610160830152600981016040519081602082549182815201916000526020600020906000905b8082106110c1575050509181611017600a9360ff95038261204f565b61018085015201541615156101a0820152683635c9adc5dea0000060a0820151101590816110a4575b506110535761104e90612311565b610f00565b60405162461bcd60e51b8152602060048201526024808201527f52617465206c696d69743a2031206d616a6f72207265717565737420706572206044820152633cb2b0b960e11b6064820152608490fd5b610100915001516301e1338081018091116103bd57421085611040565b82546001600160a01b0316845260209093019260019283019290910190610ffb565b50826110f0600354612311565b918260035582600052600760205260406000209283556001830154611116602435611f84565b6001600160a81b0319166001600160a01b0382161760243560a01b60ff60a01b161760018401556044356002840155426005840181905562ed4e0081019081106103bd57600684015581519267ffffffffffffffff8411610b925761117e6008820154611fdb565b93601f851161133c575b6020945084601f82116001146112d057819293946000926112c5575b50508160011b916000199060031b1c19161760088201555b6111d7608435600a83019060ff801983541691151516179055565b683635c9adc5dea000006044351080156112bc575b156112a25760018101805461ffff60a81b191661020160a81b1790554260079091015560065461121b90612311565b6006555b6001600160a01b0381166000908152600b83526040902060035461124291612320565b60035490817f3e72682ca35c0fc274bd79b3cce2934f296f83c47a89340b35dc62322403a6b7606060405193611279602435611f84565b602435855260443587860152608435151560408601526001600160a01b031693a3604051908152f35b600101805461ffff60a81b1916600160b01b17905561121f565b506084356111ec565b0151905085806111a4565b60088301600052856000209060005b601f19841681106113255750600193949583601f1981161061130c575b505050811b0160088201556111bc565b015160001960f88460031b161c191690558580806112fc565b90918760018192858a0151815501930191016112df565b600882016000526020600020601f820160051c81016020831061137c575b601f870160051c82018110611370575050611188565b6000815560010161135a565b508061135a565b8454835260019485019487945060209093019201610ee8565b60405162461bcd60e51b81526020600482015260126024820152710546172676574206d757374206265203e20360741b6044820152606490fd5b60405162461bcd60e51b8152602060048201526015602482015274496e76616c6964207472696164206164647265737360581b6044820152606490fd5b60405162461bcd60e51b815260206004820152601b60248201527f56657374696e6720706572696f64206e6f7420636f6d706c65746500000000006044820152606490fd5b60405162461bcd60e51b81526020600482015260146024820152734e6f7420696e20676f6f64207374616e64696e6760601b6044820152606490fd5b60405162461bcd60e51b81526020600482015260116024820152702737ba1030b1ba34bb329036b2b6b132b960791b6044820152606490fd5b3461052c57602036600319011261052c5760043560005260076020526040806000208054906115b860018201549160ff8360a01c169260ff8160a81c16906002830154600384015460048501549060058601549261158560068801549560078901549760ff600a61154060088d01612071565b9b0154169b8e519e8f9e8f90815260018060a01b038516602082015261156583611f84565b015261157081611f84565b60608d015260ff60808d019160b01c16611f8e565b60a08a015260c089015260e08801526101008701526101208601526101408501526101a080610160860152840190611f9b565b9015156101808301520390f35b3461052c57604036600319011261052c576115de611f05565b600435600052600160205260406000209060018060a01b0316600052602052602060ff604060002054166040519015158152f35b3461052c57600036600319011261052c5761162b612133565b611633612355565b600160ff1960025416176002557f62e78cea01bee320cd4e420270b5ea74000d11b0c9f74754ebdbfc544b05a2586020604051338152a1005b3461052c57600036600319011261052c57602060405162ed4e008152f35b3461052c57602036600319011261052c5760043560006101a06040516116af81612015565b8281528260208201528260408201528260608201528260808201528260a08201528260c08201528260e08201528261010082015282610120820152826101408201526060610160820152606061018082015201528015158061195d575b61171590612373565b600052600760205260406000206040519061172f82612015565b8054825260018101546001600160a01b038116602084015260a081901c60ff1661175881611f84565b604084015260ff8160a81c1661176d81611f84565b6060840152600460ff8260b01c1610156104805760b01c60ff166080830152600281015460a0830152600381015460c0830152600481015460e08301526005810154610100830152600681015461012083015260078101546101408301526117d760088201612071565b6101608301526040518060098301906020825491828152019160005260206000209060005b81811061193e578660ff600a8888611816818a038261204f565b61018085015201541615156101a08201526040805160208082528351818301528301516001600160a01b0316818301529082015161185381611f84565b6060820152606082015161186681611f84565b608082015261187d608083015160a0830190611f8e565b60a082015160c082015260c082015160e082015260e08201516101008201526101008201516101208201526101208201516101408201526101408201516101608201526101608201516118df6101c091826101808501526101e0840190611f9b565b9061018084015191601f19848203016101a08501526020808451928381520193019060005b81811061191f575050506101a0839401511515908301520390f35b82516001600160a01b0316855260209485019490920191600101611904565b82546001600160a01b03168452602090930192600192830192016117fc565b5060035481111561170c565b3461052c57600036600319011261052c576003546006546005546004549092919082156119cd576064810293818504606414821517156103bd576119af8160a0966123e5565b925b6040519485526020850152604084015260608301526080820152f35b60a0936000926119b1565b3461052c57600036600319011261052c57602060ff600254166040519015158152f35b3461052c57600036600319011261052c57602060405160c88152f35b3461052c5760208060031936011261052c576001600160a01b03611a39611eef565b16600052600c8152604060002090604051908181845491828152019360005281600020916000905b828210611a8857611a8485611a788189038261204f565b60405191829182611f49565b0390f35b835486529485019460019384019390910190611a61565b3461052c57600036600319011261052c576020604051683635c9adc5dea000008152f35b3461052c57604036600319011261052c57611adc611f05565b600435600052600d60205260406000209060018060a01b0316600052602052602060ff604060002054166040519015158152f35b3461052c57600036600319011261052c57611b29612133565b60025460ff811615611b685760ff19166002557f5db9ee0a495bf2e6ff9c91a7834c1ba4fdd244a5e8aa4e537bd38aeae4b073aa6020604051338152a1005b604051638dfc202b60e01b8152600490fd5b3461052c57604036600319011261052c5760a0611b95611f05565b60043560005260096020526040600020600180841b03809216600052602052604060002090815416906001810154906002810154600460ff6003840154169201549260405194855260208501526040840152151560608301526080820152f35b3461052c57604036600319011261052c57611c0e611f05565b336001600160a01b03821603611c2a5761001b9060043561228d565b60405163334bd91960e11b8152600490fd5b3461052c5760208060031936011261052c576001600160a01b03611c5e611eef565b16600052600b8152604060002090604051908181845491828152019360005281600020916000905b828210611c9d57611a8485611a788189038261204f565b835486529485019460019384019390910190611c86565b3461052c57604036600319011261052c5761001b600435611cd3611f05565b90806000526001602052611cee6001604060002001546121e7565b61220d565b3461052c57600036600319011261052c5760206040517f55435dd261a4b9b3364963f7738a7a662ad9c84396d64be3365284bb7f0a50418152f35b3461052c57602036600319011261052c5760043560005260016020526020600160406000200154604051908152f35b3461052c57602036600319011261052c57600435600052600f6020526020604060002054604051908152f35b3461052c57600036600319011261052c576020600454604051908152f35b3461052c57602036600319011261052c576101006001600160a01b0380611dcc611eef565b16600052600860205260ff60406000209182541691600181015490600281015460038201546004830154916006600585015494015494604051978852602088015260408701526060860152608085015260a0840152818116151560c084015260081c16151560e0820152f35b3461052c57604036600319011261052c57602435600435600052600a6020526040600020805482101561052c5760209161071391611f1b565b3461052c57602036600319011261052c576020611e94611e8f611eef565b612435565b604051908152f35b3461052c57602036600319011261052c576004359063ffffffff60e01b821680920361052c57602091637965db0b60e01b8114908115611ede575b5015158152f35b6301ffc9a760e01b14905083611ed7565b600435906001600160a01b038216820361052c57565b602435906001600160a01b038216820361052c57565b8054821015611f335760005260206000200190600090565b634e487b7160e01b600052603260045260246000fd5b6020908160408183019282815285518094520193019160005b828110611f70575050505090565b835185529381019392810192600101611f62565b6006111561048057565b9060048210156104805752565b919082519283825260005b848110611fc7575050826000602080949584010152601f8019910116010190565b602081830181015184830182015201611fa6565b90600182811c9216801561200b575b6020831014611ff557565b634e487b7160e01b600052602260045260246000fd5b91607f1691611fea565b6101c0810190811067ffffffffffffffff821117610b9257604052565b610100810190811067ffffffffffffffff821117610b9257604052565b90601f8019910116810190811067ffffffffffffffff821117610b9257604052565b906040519182600082549261208584611fdb565b9081845260019485811690816000146120f457506001146120b1575b50506120af9250038361204f565b565b9093915060005260209081600020936000915b8183106120dc5750506120af935082010138806120a1565b855488840185015294850194879450918301916120c4565b9150506120af94506020925060ff191682840152151560051b82010138806120a1565b67ffffffffffffffff8111610b9257601f01601f191660200190565b3360009081527fa6eef7e35abe7026729641147f7915573c7e97b47efa546f5f6e3230263bcb49602052604081205460ff161561216d5750565b6044906040519063e2517d3f60e01b82523360048301526024820152fd5b3360009081527fe8fad4b49f5ba25b2c682cfec2ac50a7a40bbd1e12ab51733ec3e9c2f6f1c5db60205260409020547f55435dd261a4b9b3364963f7738a7a662ad9c84396d64be3365284bb7f0a50419060ff161561216d5750565b80600052600160205260406000203360005260205260ff604060002054161561216d5750565b906000918083526001602052604083209160018060a01b03169182845260205260ff604084205416156000146122885780835260016020526040832082845260205260408320600160ff198254161790557f2f8788117e7eff1d82e926ec794901d17c78024a50270940304540a733656f0d339380a4600190565b505090565b906000918083526001602052604083209160018060a01b03169182845260205260ff604084205416600014612288578083526001602052604083208284526020526040832060ff1981541690557ff6391f5c32d9c69d2a47ea670b442974b53935d1edc7fd64eb21e047a839171b339380a4600190565b919082018092116103bd57565b60001981146103bd5760010190565b8054600160401b811015610b925761233d91600182018155611f1b565b819291549060031b91821b91600019901b1916179055565b60ff6002541661236157565b60405163d93c066560e01b8152600490fd5b1561237a57565b60405162461bcd60e51b8152602060048201526013602482015272131bdcdcc8191bd95cc81b9bdd08195e1a5cdd606a1b6044820152606490fd5b6002600054146123c6576002600055565b604051633ee5aeb560e01b8152600490fd5b919082039182116103bd57565b81156123ef570490565b634e487b7160e01b600052601260045260246000fd5b3d15612430573d9061241682612117565b91612424604051938461204f565b82523d6000602084013e565b606090565b6001600160a01b0390811660009081526008602052604080822090519093919261245e82612032565b8454168152600184015493602082019185835260e060ff60066002850154948560408601526003810154606086015260048101546080860152600581015460a08601520154818116151560c085015260081c16151591015280156124ff576124c891929394612304565b90516064810290808204606414901517156124eb576124e89293506123e5565b90565b634e487b7160e01b84526011600452602484fd5b50909215905061250f5750606490565b60ff1690565b7f14f51a27a51605d079f5a233d10786b96a4f13e78bebd8f3891724619e0561cc602061254183612435565b9260018060a01b031692836000526008825280600460406000200155604051908152a256fea2646970667358221220cdbbcd52b82cfcafd934d14d582c39a8609650779936a796134b5be9109809c664736f6c634300081400332f8788117e7eff1d82e926ec794901d17c78024a50270940304540a733656f0d",
  "linkReferences": {},
  "deployedLinkReferences": {}
}